{
	"contracts/SupplyChain.sol": {
		"SupplyChain": {
			"abi": [
				{
					"anonymous": false,
					"inputs": [
						{
							"indexed": false,
							"internalType": "string",
							"name": "batchId",
							"type": "string"
						},
						{
							"indexed": false,
							"internalType": "string",
							"name": "drug",
							"type": "string"
						},
						{
							"indexed": false,
							"internalType": "address",
							"name": "manufacturer",
							"type": "address"
						}
					],
					"name": "BatchCreated",
					"type": "event"
				},
				{
					"anonymous": false,
					"inputs": [
						{
							"indexed": false,
							"internalType": "string",
							"name": "batchId",
							"type": "string"
						},
						{
							"indexed": false,
							"internalType": "address",
							"name": "pharmacy",
							"type": "address"
						}
					],
					"name": "Received",
					"type": "event"
				},
				{
					"anonymous": false,
					"inputs": [
						{
							"indexed": false,
							"internalType": "string",
							"name": "batchId",
							"type": "string"
						},
						{
							"indexed": false,
							"internalType": "address",
							"name": "distributor",
							"type": "address"
						}
					],
					"name": "Shipped",
					"type": "event"
				},
				{
					"anonymous": false,
					"inputs": [
						{
							"indexed": false,
							"internalType": "string",
							"name": "batchId",
							"type": "string"
						}
					],
					"name": "Sold",
					"type": "event"
				},
				{
					"inputs": [
						{
							"internalType": "string",
							"name": "",
							"type": "string"
						}
					],
					"name": "batches",
					"outputs": [
						{
							"internalType": "string",
							"name": "drugName",
							"type": "string"
						},
						{
							"internalType": "string",
							"name": "batchId",
							"type": "string"
						},
						{
							"internalType": "uint256",
							"name": "mfgDate",
							"type": "uint256"
						},
						{
							"internalType": "uint256",
							"name": "expDate",
							"type": "uint256"
						},
						{
							"internalType": "address",
							"name": "manufacturer",
							"type": "address"
						},
						{
							"internalType": "address",
							"name": "distributor",
							"type": "address"
						},
						{
							"internalType": "address",
							"name": "pharmacy",
							"type": "address"
						},
						{
							"internalType": "enum SupplyChain.State",
							"name": "state",
							"type": "uint8"
						}
					],
					"stateMutability": "view",
					"type": "function"
				},
				{
					"inputs": [
						{
							"internalType": "string",
							"name": "batchId",
							"type": "string"
						},
						{
							"internalType": "string",
							"name": "drugName",
							"type": "string"
						},
						{
							"internalType": "uint256",
							"name": "mfgDate",
							"type": "uint256"
						},
						{
							"internalType": "uint256",
							"name": "expDate",
							"type": "uint256"
						},
						{
							"internalType": "address",
							"name": "distributor",
							"type": "address"
						}
					],
					"name": "createBatch",
					"outputs": [],
					"stateMutability": "nonpayable",
					"type": "function"
				},
				{
					"inputs": [
						{
							"internalType": "string",
							"name": "batchId",
							"type": "string"
						}
					],
					"name": "getBatch",
					"outputs": [
						{
							"components": [
								{
									"internalType": "string",
									"name": "drugName",
									"type": "string"
								},
								{
									"internalType": "string",
									"name": "batchId",
									"type": "string"
								},
								{
									"internalType": "uint256",
									"name": "mfgDate",
									"type": "uint256"
								},
								{
									"internalType": "uint256",
									"name": "expDate",
									"type": "uint256"
								},
								{
									"internalType": "address",
									"name": "manufacturer",
									"type": "address"
								},
								{
									"internalType": "address",
									"name": "distributor",
									"type": "address"
								},
								{
									"internalType": "address",
									"name": "pharmacy",
									"type": "address"
								},
								{
									"internalType": "enum SupplyChain.State",
									"name": "state",
									"type": "uint8"
								}
							],
							"internalType": "struct SupplyChain.Batch",
							"name": "",
							"type": "tuple"
						}
					],
					"stateMutability": "view",
					"type": "function"
				},
				{
					"inputs": [
						{
							"internalType": "string",
							"name": "batchId",
							"type": "string"
						}
					],
					"name": "markSold",
					"outputs": [],
					"stateMutability": "nonpayable",
					"type": "function"
				},
				{
					"inputs": [
						{
							"internalType": "string",
							"name": "batchId",
							"type": "string"
						},
						{
							"internalType": "address",
							"name": "pharmacy",
							"type": "address"
						}
					],
					"name": "receiveAtPharmacy",
					"outputs": [],
					"stateMutability": "nonpayable",
					"type": "function"
				},
				{
					"inputs": [
						{
							"internalType": "string",
							"name": "batchId",
							"type": "string"
						}
					],
					"name": "ship",
					"outputs": [],
					"stateMutability": "nonpayable",
					"type": "function"
				}
			],
			"devdoc": {
				"kind": "dev",
				"methods": {},
				"version": 1
			},
			"evm": {
				"assembly": "    /* \"contracts/SupplyChain.sol\":214:2671  contract SupplyChain {... */\n  mstore(0x40, 0x80)\n  callvalue\n  dup1\n  iszero\n  tag_1\n  jumpi\n  0x00\n  dup1\n  revert\ntag_1:\n  pop\n  dataSize(sub_0)\n  dup1\n  dataOffset(sub_0)\n  0x00\n  codecopy\n  0x00\n  return\nstop\n\nsub_0: assembly {\n        /* \"contracts/SupplyChain.sol\":214:2671  contract SupplyChain {... */\n      mstore(0x40, 0x80)\n      callvalue\n      dup1\n      iszero\n      tag_1\n      jumpi\n      0x00\n      dup1\n      revert\n    tag_1:\n      pop\n      jumpi(tag_2, lt(calldatasize, 0x04))\n      shr(0xe0, calldataload(0x00))\n      dup1\n      0x0ed5bdae\n      eq\n      tag_3\n      jumpi\n      dup1\n      0x2692fdec\n      eq\n      tag_4\n      jumpi\n      dup1\n      0x7ef1446a\n      eq\n      tag_5\n      jumpi\n      dup1\n      0x951d1029\n      eq\n      tag_6\n      jumpi\n      dup1\n      0xdd3fa136\n      eq\n      tag_7\n      jumpi\n      dup1\n      0xf9ca4274\n      eq\n      tag_8\n      jumpi\n    tag_2:\n      0x00\n      dup1\n      revert\n        /* \"contracts/SupplyChain.sol\":824:1510  function createBatch(... */\n    tag_3:\n      tag_9\n      0x04\n      dup1\n      calldatasize\n      sub\n      dup2\n      add\n      swap1\n      tag_10\n      swap2\n      swap1\n      tag_11\n      jump\t// in\n    tag_10:\n      tag_12\n      jump\t// in\n    tag_9:\n      stop\n        /* \"contracts/SupplyChain.sol\":1880:2246  function receiveAtPharmacy(string calldata batchId, address pharmacy) external {... */\n    tag_4:\n      tag_13\n      0x04\n      dup1\n      calldatasize\n      sub\n      dup2\n      add\n      swap1\n      tag_14\n      swap2\n      swap1\n      tag_15\n      jump\t// in\n    tag_14:\n      tag_16\n      jump\t// in\n    tag_13:\n      stop\n        /* \"contracts/SupplyChain.sol\":539:578  mapping(string => Batch) public batches */\n    tag_5:\n      tag_17\n      0x04\n      dup1\n      calldatasize\n      sub\n      dup2\n      add\n      swap1\n      tag_18\n      swap2\n      swap1\n      tag_19\n      jump\t// in\n    tag_18:\n      tag_20\n      jump\t// in\n    tag_17:\n      mload(0x40)\n      tag_21\n      swap9\n      swap8\n      swap7\n      swap6\n      swap5\n      swap4\n      swap3\n      swap2\n      swap1\n      tag_22\n      jump\t// in\n    tag_21:\n      mload(0x40)\n      dup1\n      swap2\n      sub\n      swap1\n      return\n        /* \"contracts/SupplyChain.sol\":2254:2538  function markSold(string calldata batchId) external {... */\n    tag_6:\n      tag_23\n      0x04\n      dup1\n      calldatasize\n      sub\n      dup2\n      add\n      swap1\n      tag_24\n      swap2\n      swap1\n      tag_25\n      jump\t// in\n    tag_24:\n      tag_26\n      jump\t// in\n    tag_23:\n      stop\n        /* \"contracts/SupplyChain.sol\":1518:1872  function ship(string calldata batchId) external {... */\n    tag_7:\n      tag_27\n      0x04\n      dup1\n      calldatasize\n      sub\n      dup2\n      add\n      swap1\n      tag_28\n      swap2\n      swap1\n      tag_25\n      jump\t// in\n    tag_28:\n      tag_29\n      jump\t// in\n    tag_27:\n      stop\n        /* \"contracts/SupplyChain.sol\":2546:2668  function getBatch(string calldata batchId) external view returns (Batch memory) {... */\n    tag_8:\n      tag_30\n      0x04\n      dup1\n      calldatasize\n      sub\n      dup2\n      add\n      swap1\n      tag_31\n      swap2\n      swap1\n      tag_25\n      jump\t// in\n    tag_31:\n      tag_32\n      jump\t// in\n    tag_30:\n      mload(0x40)\n      tag_33\n      swap2\n      swap1\n      tag_34\n      jump\t// in\n    tag_33:\n      mload(0x40)\n      dup1\n      swap2\n      sub\n      swap1\n      return\n        /* \"contracts/SupplyChain.sol\":824:1510  function createBatch(... */\n    tag_12:\n        /* \"contracts/SupplyChain.sol\":1059:1060  0 */\n      0x00\n        /* \"contracts/SupplyChain.sol\":1031:1038  batches */\n      dup1\n        /* \"contracts/SupplyChain.sol\":1039:1046  batchId */\n      dup9\n      dup9\n        /* \"contracts/SupplyChain.sol\":1031:1047  batches[batchId] */\n      mload(0x40)\n      tag_36\n      swap3\n      swap2\n      swap1\n      tag_37\n      jump\t// in\n    tag_36:\n      swap1\n      dup2\n      mstore\n      0x20\n      add\n      mload(0x40)\n      dup1\n      swap2\n      sub\n      swap1\n      keccak256\n        /* \"contracts/SupplyChain.sol\":1031:1055  batches[batchId].mfgDate */\n      0x02\n      add\n      sload\n        /* \"contracts/SupplyChain.sol\":1031:1060  batches[batchId].mfgDate == 0 */\n      eq\n        /* \"contracts/SupplyChain.sol\":1023:1071  require(batches[batchId].mfgDate == 0, \"exists\") */\n      tag_38\n      jumpi\n      mload(0x40)\n      0x08c379a000000000000000000000000000000000000000000000000000000000\n      dup2\n      mstore\n      0x04\n      add\n      tag_39\n      swap1\n      tag_40\n      jump\t// in\n    tag_39:\n      mload(0x40)\n      dup1\n      swap2\n      sub\n      swap1\n      revert\n    tag_38:\n        /* \"contracts/SupplyChain.sol\":1100:1107  mfgDate */\n      dup3\n        /* \"contracts/SupplyChain.sol\":1090:1097  expDate */\n      dup3\n        /* \"contracts/SupplyChain.sol\":1090:1107  expDate > mfgDate */\n      gt\n        /* \"contracts/SupplyChain.sol\":1082:1121  require(expDate > mfgDate, \"bad dates\") */\n      tag_41\n      jumpi\n      mload(0x40)\n      0x08c379a000000000000000000000000000000000000000000000000000000000\n      dup2\n      mstore\n      0x04\n      add\n      tag_42\n      swap1\n      tag_43\n      jump\t// in\n    tag_42:\n      mload(0x40)\n      dup1\n      swap2\n      sub\n      swap1\n      revert\n    tag_41:\n        /* \"contracts/SupplyChain.sol\":1151:1443  Batch({... */\n      mload(0x40)\n      dup1\n      0x0100\n      add\n      0x40\n      mstore\n      dup1\n        /* \"contracts/SupplyChain.sol\":1182:1190  drugName */\n      dup7\n      dup7\n        /* \"contracts/SupplyChain.sol\":1151:1443  Batch({... */\n      dup1\n      dup1\n      0x1f\n      add\n      0x20\n      dup1\n      swap2\n      div\n      mul\n      0x20\n      add\n      mload(0x40)\n      swap1\n      dup2\n      add\n      0x40\n      mstore\n      dup1\n      swap4\n      swap3\n      swap2\n      swap1\n      dup2\n      dup2\n      mstore\n      0x20\n      add\n      dup4\n      dup4\n      dup1\n      dup3\n      dup5\n      calldatacopy\n      0x00\n      dup2\n      dup5\n      add\n      mstore\n      not(0x1f)\n      0x1f\n      dup3\n      add\n      and\n      swap1\n      pop\n      dup1\n      dup4\n      add\n      swap3\n      pop\n      pop\n      pop\n      pop\n      pop\n      pop\n      pop\n      dup2\n      mstore\n      0x20\n      add\n        /* \"contracts/SupplyChain.sol\":1214:1221  batchId */\n      dup9\n      dup9\n        /* \"contracts/SupplyChain.sol\":1151:1443  Batch({... */\n      dup1\n      dup1\n      0x1f\n      add\n      0x20\n      dup1\n      swap2\n      div\n      mul\n      0x20\n      add\n      mload(0x40)\n      swap1\n      dup2\n      add\n      0x40\n      mstore\n      dup1\n      swap4\n      swap3\n      swap2\n      swap1\n      dup2\n      dup2\n      mstore\n      0x20\n      add\n      dup4\n      dup4\n      dup1\n      dup3\n      dup5\n      calldatacopy\n      0x00\n      dup2\n      dup5\n      add\n      mstore\n      not(0x1f)\n      0x1f\n      dup3\n      add\n      and\n      swap1\n      pop\n      dup1\n      dup4\n      add\n      swap3\n      pop\n      pop\n      pop\n      pop\n      pop\n      pop\n      pop\n      dup2\n      mstore\n      0x20\n      add\n        /* \"contracts/SupplyChain.sol\":1245:1252  mfgDate */\n      dup5\n        /* \"contracts/SupplyChain.sol\":1151:1443  Batch({... */\n      dup2\n      mstore\n      0x20\n      add\n        /* \"contracts/SupplyChain.sol\":1276:1283  expDate */\n      dup4\n        /* \"contracts/SupplyChain.sol\":1151:1443  Batch({... */\n      dup2\n      mstore\n      0x20\n      add\n        /* \"contracts/SupplyChain.sol\":1312:1322  msg.sender */\n      caller\n        /* \"contracts/SupplyChain.sol\":1151:1443  Batch({... */\n      0xffffffffffffffffffffffffffffffffffffffff\n      and\n      dup2\n      mstore\n      0x20\n      add\n        /* \"contracts/SupplyChain.sol\":1350:1361  distributor */\n      dup3\n        /* \"contracts/SupplyChain.sol\":1151:1443  Batch({... */\n      0xffffffffffffffffffffffffffffffffffffffff\n      and\n      dup2\n      mstore\n      0x20\n      add\n        /* \"contracts/SupplyChain.sol\":1394:1395  0 */\n      0x00\n        /* \"contracts/SupplyChain.sol\":1151:1443  Batch({... */\n      0xffffffffffffffffffffffffffffffffffffffff\n      and\n      dup2\n      mstore\n      0x20\n      add\n        /* \"contracts/SupplyChain.sol\":1418:1431  State.Created */\n      0x00\n        /* \"contracts/SupplyChain.sol\":1151:1443  Batch({... */\n      0x03\n      dup2\n      gt\n      iszero\n      tag_44\n      jumpi\n      tag_45\n      tag_46\n      jump\t// in\n    tag_45:\n    tag_44:\n      dup2\n      mstore\n      pop\n        /* \"contracts/SupplyChain.sol\":1132:1139  batches */\n      0x00\n        /* \"contracts/SupplyChain.sol\":1140:1147  batchId */\n      dup9\n      dup9\n        /* \"contracts/SupplyChain.sol\":1132:1148  batches[batchId] */\n      mload(0x40)\n      tag_47\n      swap3\n      swap2\n      swap1\n      tag_37\n      jump\t// in\n    tag_47:\n      swap1\n      dup2\n      mstore\n      0x20\n      add\n      mload(0x40)\n      dup1\n      swap2\n      sub\n      swap1\n      keccak256\n        /* \"contracts/SupplyChain.sol\":1132:1443  batches[batchId] = Batch({... */\n      0x00\n      dup3\n      add\n      mload\n      dup2\n      0x00\n      add\n      swap1\n      dup2\n      tag_48\n      swap2\n      swap1\n      tag_49\n      jump\t// in\n    tag_48:\n      pop\n      0x20\n      dup3\n      add\n      mload\n      dup2\n      0x01\n      add\n      swap1\n      dup2\n      tag_50\n      swap2\n      swap1\n      tag_49\n      jump\t// in\n    tag_50:\n      pop\n      0x40\n      dup3\n      add\n      mload\n      dup2\n      0x02\n      add\n      sstore\n      0x60\n      dup3\n      add\n      mload\n      dup2\n      0x03\n      add\n      sstore\n      0x80\n      dup3\n      add\n      mload\n      dup2\n      0x04\n      add\n      exp(0x0100, 0x00)\n      dup2\n      sload\n      dup2\n      0xffffffffffffffffffffffffffffffffffffffff\n      mul\n      not\n      and\n      swap1\n      dup4\n      0xffffffffffffffffffffffffffffffffffffffff\n      and\n      mul\n      or\n      swap1\n      sstore\n      pop\n      0xa0\n      dup3\n      add\n      mload\n      dup2\n      0x05\n      add\n      exp(0x0100, 0x00)\n      dup2\n      sload\n      dup2\n      0xffffffffffffffffffffffffffffffffffffffff\n      mul\n      not\n      and\n      swap1\n      dup4\n      0xffffffffffffffffffffffffffffffffffffffff\n      and\n      mul\n      or\n      swap1\n      sstore\n      pop\n      0xc0\n      dup3\n      add\n      mload\n      dup2\n      0x06\n      add\n      exp(0x0100, 0x00)\n      dup2\n      sload\n      dup2\n      0xffffffffffffffffffffffffffffffffffffffff\n      mul\n      not\n      and\n      swap1\n      dup4\n      0xffffffffffffffffffffffffffffffffffffffff\n      and\n      mul\n      or\n      swap1\n      sstore\n      pop\n      0xe0\n      dup3\n      add\n      mload\n      dup2\n      0x06\n      add\n      exp(0x0100, 0x14)\n      dup2\n      sload\n      dup2\n      0xff\n      mul\n      not\n      and\n      swap1\n      dup4\n      0x03\n      dup2\n      gt\n      iszero\n      tag_51\n      jumpi\n      tag_52\n      tag_46\n      jump\t// in\n    tag_52:\n    tag_51:\n      mul\n      or\n      swap1\n      sstore\n      pop\n      swap1\n      pop\n      pop\n        /* \"contracts/SupplyChain.sol\":1459:1502  BatchCreated(batchId, drugName, msg.sender) */\n      0x14a4819b534290cb8ccfb4060d5410e04c15b9493bccae224d5b9ae9e6f939d0\n        /* \"contracts/SupplyChain.sol\":1472:1479  batchId */\n      dup8\n      dup8\n        /* \"contracts/SupplyChain.sol\":1481:1489  drugName */\n      dup8\n      dup8\n        /* \"contracts/SupplyChain.sol\":1491:1501  msg.sender */\n      caller\n        /* \"contracts/SupplyChain.sol\":1459:1502  BatchCreated(batchId, drugName, msg.sender) */\n      mload(0x40)\n      tag_53\n      swap6\n      swap5\n      swap4\n      swap3\n      swap2\n      swap1\n      tag_54\n      jump\t// in\n    tag_53:\n      mload(0x40)\n      dup1\n      swap2\n      sub\n      swap1\n      log1\n        /* \"contracts/SupplyChain.sol\":824:1510  function createBatch(... */\n      pop\n      pop\n      pop\n      pop\n      pop\n      pop\n      pop\n      jump\t// out\n        /* \"contracts/SupplyChain.sol\":1880:2246  function receiveAtPharmacy(string calldata batchId, address pharmacy) external {... */\n    tag_16:\n        /* \"contracts/SupplyChain.sol\":1970:1985  Batch storage b */\n      0x00\n        /* \"contracts/SupplyChain.sol\":1988:1995  batches */\n      dup1\n        /* \"contracts/SupplyChain.sol\":1996:2003  batchId */\n      dup5\n      dup5\n        /* \"contracts/SupplyChain.sol\":1988:2004  batches[batchId] */\n      mload(0x40)\n      tag_56\n      swap3\n      swap2\n      swap1\n      tag_37\n      jump\t// in\n    tag_56:\n      swap1\n      dup2\n      mstore\n      0x20\n      add\n      mload(0x40)\n      dup1\n      swap2\n      sub\n      swap1\n      keccak256\n        /* \"contracts/SupplyChain.sol\":1970:2004  Batch storage b = batches[batchId] */\n      swap1\n      pop\n        /* \"contracts/SupplyChain.sol\":2034:2047  State.Shipped */\n      0x01\n        /* \"contracts/SupplyChain.sol\":2023:2047  b.state == State.Shipped */\n      0x03\n      dup2\n      gt\n      iszero\n      tag_57\n      jumpi\n      tag_58\n      tag_46\n      jump\t// in\n    tag_58:\n    tag_57:\n        /* \"contracts/SupplyChain.sol\":2023:2024  b */\n      dup2\n        /* \"contracts/SupplyChain.sol\":2023:2030  b.state */\n      0x06\n      add\n      0x14\n      swap1\n      sload\n      swap1\n      0x0100\n      exp\n      swap1\n      div\n      0xff\n      and\n        /* \"contracts/SupplyChain.sol\":2023:2047  b.state == State.Shipped */\n      0x03\n      dup2\n      gt\n      iszero\n      tag_59\n      jumpi\n      tag_60\n      tag_46\n      jump\t// in\n    tag_60:\n    tag_59:\n      eq\n        /* \"contracts/SupplyChain.sol\":2015:2061  require(b.state == State.Shipped, \"bad state\") */\n      tag_61\n      jumpi\n      mload(0x40)\n      0x08c379a000000000000000000000000000000000000000000000000000000000\n      dup2\n      mstore\n      0x04\n      add\n      tag_62\n      swap1\n      tag_63\n      jump\t// in\n    tag_62:\n      mload(0x40)\n      dup1\n      swap2\n      sub\n      swap1\n      revert\n    tag_61:\n        /* \"contracts/SupplyChain.sol\":2094:2095  b */\n      dup1\n        /* \"contracts/SupplyChain.sol\":2094:2107  b.distributor */\n      0x05\n      add\n      0x00\n      swap1\n      sload\n      swap1\n      0x0100\n      exp\n      swap1\n      div\n      0xffffffffffffffffffffffffffffffffffffffff\n      and\n        /* \"contracts/SupplyChain.sol\":2080:2107  msg.sender == b.distributor */\n      0xffffffffffffffffffffffffffffffffffffffff\n      and\n        /* \"contracts/SupplyChain.sol\":2080:2090  msg.sender */\n      caller\n        /* \"contracts/SupplyChain.sol\":2080:2107  msg.sender == b.distributor */\n      0xffffffffffffffffffffffffffffffffffffffff\n      and\n      eq\n        /* \"contracts/SupplyChain.sol\":2072:2128  require(msg.sender == b.distributor, \"only distributor\") */\n      tag_64\n      jumpi\n      mload(0x40)\n      0x08c379a000000000000000000000000000000000000000000000000000000000\n      dup2\n      mstore\n      0x04\n      add\n      tag_65\n      swap1\n      tag_66\n      jump\t// in\n    tag_65:\n      mload(0x40)\n      dup1\n      swap2\n      sub\n      swap1\n      revert\n    tag_64:\n        /* \"contracts/SupplyChain.sol\":2152:2160  pharmacy */\n      dup2\n        /* \"contracts/SupplyChain.sol\":2139:2140  b */\n      dup2\n        /* \"contracts/SupplyChain.sol\":2139:2149  b.pharmacy */\n      0x06\n      add\n      0x00\n        /* \"contracts/SupplyChain.sol\":2139:2160  b.pharmacy = pharmacy */\n      0x0100\n      exp\n      dup2\n      sload\n      dup2\n      0xffffffffffffffffffffffffffffffffffffffff\n      mul\n      not\n      and\n      swap1\n      dup4\n      0xffffffffffffffffffffffffffffffffffffffff\n      and\n      mul\n      or\n      swap1\n      sstore\n      pop\n        /* \"contracts/SupplyChain.sol\":2181:2195  State.Received */\n      0x02\n        /* \"contracts/SupplyChain.sol\":2171:2172  b */\n      dup2\n        /* \"contracts/SupplyChain.sol\":2171:2178  b.state */\n      0x06\n      add\n      0x14\n        /* \"contracts/SupplyChain.sol\":2171:2195  b.state = State.Received */\n      0x0100\n      exp\n      dup2\n      sload\n      dup2\n      0xff\n      mul\n      not\n      and\n      swap1\n      dup4\n      0x03\n      dup2\n      gt\n      iszero\n      tag_67\n      jumpi\n      tag_68\n      tag_46\n      jump\t// in\n    tag_68:\n    tag_67:\n      mul\n      or\n      swap1\n      sstore\n      pop\n        /* \"contracts/SupplyChain.sol\":2211:2238  Received(batchId, pharmacy) */\n      0x2306428e180d672dbbdf396b994b727732a06aa0e366facdfd9a587fe8a56dcd\n        /* \"contracts/SupplyChain.sol\":2220:2227  batchId */\n      dup5\n      dup5\n        /* \"contracts/SupplyChain.sol\":2229:2237  pharmacy */\n      dup5\n        /* \"contracts/SupplyChain.sol\":2211:2238  Received(batchId, pharmacy) */\n      mload(0x40)\n      tag_69\n      swap4\n      swap3\n      swap2\n      swap1\n      tag_70\n      jump\t// in\n    tag_69:\n      mload(0x40)\n      dup1\n      swap2\n      sub\n      swap1\n      log1\n        /* \"contracts/SupplyChain.sol\":1959:2246  {... */\n      pop\n        /* \"contracts/SupplyChain.sol\":1880:2246  function receiveAtPharmacy(string calldata batchId, address pharmacy) external {... */\n      pop\n      pop\n      pop\n      jump\t// out\n        /* \"contracts/SupplyChain.sol\":539:578  mapping(string => Batch) public batches */\n    tag_20:\n      0x00\n      dup2\n      dup1\n      mload\n      0x20\n      dup2\n      add\n      dup3\n      add\n      dup1\n      mload\n      dup5\n      dup3\n      mstore\n      0x20\n      dup4\n      add\n      0x20\n      dup6\n      add\n      keccak256\n      dup2\n      dup4\n      mstore\n      dup1\n      swap6\n      pop\n      pop\n      pop\n      pop\n      pop\n      pop\n      0x00\n      swap2\n      pop\n      swap1\n      pop\n      dup1\n      0x00\n      add\n      dup1\n      sload\n      tag_71\n      swap1\n      tag_72\n      jump\t// in\n    tag_71:\n      dup1\n      0x1f\n      add\n      0x20\n      dup1\n      swap2\n      div\n      mul\n      0x20\n      add\n      mload(0x40)\n      swap1\n      dup2\n      add\n      0x40\n      mstore\n      dup1\n      swap3\n      swap2\n      swap1\n      dup2\n      dup2\n      mstore\n      0x20\n      add\n      dup3\n      dup1\n      sload\n      tag_73\n      swap1\n      tag_72\n      jump\t// in\n    tag_73:\n      dup1\n      iszero\n      tag_74\n      jumpi\n      dup1\n      0x1f\n      lt\n      tag_75\n      jumpi\n      0x0100\n      dup1\n      dup4\n      sload\n      div\n      mul\n      dup4\n      mstore\n      swap2\n      0x20\n      add\n      swap2\n      jump(tag_74)\n    tag_75:\n      dup3\n      add\n      swap2\n      swap1\n      0x00\n      mstore\n      keccak256(0x00, 0x20)\n      swap1\n    tag_76:\n      dup2\n      sload\n      dup2\n      mstore\n      swap1\n      0x01\n      add\n      swap1\n      0x20\n      add\n      dup1\n      dup4\n      gt\n      tag_76\n      jumpi\n      dup3\n      swap1\n      sub\n      0x1f\n      and\n      dup3\n      add\n      swap2\n    tag_74:\n      pop\n      pop\n      pop\n      pop\n      pop\n      swap1\n      dup1\n      0x01\n      add\n      dup1\n      sload\n      tag_77\n      swap1\n      tag_72\n      jump\t// in\n    tag_77:\n      dup1\n      0x1f\n      add\n      0x20\n      dup1\n      swap2\n      div\n      mul\n      0x20\n      add\n      mload(0x40)\n      swap1\n      dup2\n      add\n      0x40\n      mstore\n      dup1\n      swap3\n      swap2\n      swap1\n      dup2\n      dup2\n      mstore\n      0x20\n      add\n      dup3\n      dup1\n      sload\n      tag_78\n      swap1\n      tag_72\n      jump\t// in\n    tag_78:\n      dup1\n      iszero\n      tag_79\n      jumpi\n      dup1\n      0x1f\n      lt\n      tag_80\n      jumpi\n      0x0100\n      dup1\n      dup4\n      sload\n      div\n      mul\n      dup4\n      mstore\n      swap2\n      0x20\n      add\n      swap2\n      jump(tag_79)\n    tag_80:\n      dup3\n      add\n      swap2\n      swap1\n      0x00\n      mstore\n      keccak256(0x00, 0x20)\n      swap1\n    tag_81:\n      dup2\n      sload\n      dup2\n      mstore\n      swap1\n      0x01\n      add\n      swap1\n      0x20\n      add\n      dup1\n      dup4\n      gt\n      tag_81\n      jumpi\n      dup3\n      swap1\n      sub\n      0x1f\n      and\n      dup3\n      add\n      swap2\n    tag_79:\n      pop\n      pop\n      pop\n      pop\n      pop\n      swap1\n      dup1\n      0x02\n      add\n      sload\n      swap1\n      dup1\n      0x03\n      add\n      sload\n      swap1\n      dup1\n      0x04\n      add\n      0x00\n      swap1\n      sload\n      swap1\n      0x0100\n      exp\n      swap1\n      div\n      0xffffffffffffffffffffffffffffffffffffffff\n      and\n      swap1\n      dup1\n      0x05\n      add\n      0x00\n      swap1\n      sload\n      swap1\n      0x0100\n      exp\n      swap1\n      div\n      0xffffffffffffffffffffffffffffffffffffffff\n      and\n      swap1\n      dup1\n      0x06\n      add\n      0x00\n      swap1\n      sload\n      swap1\n      0x0100\n      exp\n      swap1\n      div\n      0xffffffffffffffffffffffffffffffffffffffff\n      and\n      swap1\n      dup1\n      0x06\n      add\n      0x14\n      swap1\n      sload\n      swap1\n      0x0100\n      exp\n      swap1\n      div\n      0xff\n      and\n      swap1\n      pop\n      dup9\n      jump\t// out\n        /* \"contracts/SupplyChain.sol\":2254:2538  function markSold(string calldata batchId) external {... */\n    tag_26:\n        /* \"contracts/SupplyChain.sol\":2317:2332  Batch storage b */\n      0x00\n        /* \"contracts/SupplyChain.sol\":2335:2342  batches */\n      dup1\n        /* \"contracts/SupplyChain.sol\":2343:2350  batchId */\n      dup4\n      dup4\n        /* \"contracts/SupplyChain.sol\":2335:2351  batches[batchId] */\n      mload(0x40)\n      tag_83\n      swap3\n      swap2\n      swap1\n      tag_37\n      jump\t// in\n    tag_83:\n      swap1\n      dup2\n      mstore\n      0x20\n      add\n      mload(0x40)\n      dup1\n      swap2\n      sub\n      swap1\n      keccak256\n        /* \"contracts/SupplyChain.sol\":2317:2351  Batch storage b = batches[batchId] */\n      swap1\n      pop\n        /* \"contracts/SupplyChain.sol\":2381:2395  State.Received */\n      0x02\n        /* \"contracts/SupplyChain.sol\":2370:2395  b.state == State.Received */\n      0x03\n      dup2\n      gt\n      iszero\n      tag_84\n      jumpi\n      tag_85\n      tag_46\n      jump\t// in\n    tag_85:\n    tag_84:\n        /* \"contracts/SupplyChain.sol\":2370:2371  b */\n      dup2\n        /* \"contracts/SupplyChain.sol\":2370:2377  b.state */\n      0x06\n      add\n      0x14\n      swap1\n      sload\n      swap1\n      0x0100\n      exp\n      swap1\n      div\n      0xff\n      and\n        /* \"contracts/SupplyChain.sol\":2370:2395  b.state == State.Received */\n      0x03\n      dup2\n      gt\n      iszero\n      tag_86\n      jumpi\n      tag_87\n      tag_46\n      jump\t// in\n    tag_87:\n    tag_86:\n      eq\n        /* \"contracts/SupplyChain.sol\":2362:2409  require(b.state == State.Received, \"bad state\") */\n      tag_88\n      jumpi\n      mload(0x40)\n      0x08c379a000000000000000000000000000000000000000000000000000000000\n      dup2\n      mstore\n      0x04\n      add\n      tag_89\n      swap1\n      tag_63\n      jump\t// in\n    tag_89:\n      mload(0x40)\n      dup1\n      swap2\n      sub\n      swap1\n      revert\n    tag_88:\n        /* \"contracts/SupplyChain.sol\":2442:2443  b */\n      dup1\n        /* \"contracts/SupplyChain.sol\":2442:2452  b.pharmacy */\n      0x06\n      add\n      0x00\n      swap1\n      sload\n      swap1\n      0x0100\n      exp\n      swap1\n      div\n      0xffffffffffffffffffffffffffffffffffffffff\n      and\n        /* \"contracts/SupplyChain.sol\":2428:2452  msg.sender == b.pharmacy */\n      0xffffffffffffffffffffffffffffffffffffffff\n      and\n        /* \"contracts/SupplyChain.sol\":2428:2438  msg.sender */\n      caller\n        /* \"contracts/SupplyChain.sol\":2428:2452  msg.sender == b.pharmacy */\n      0xffffffffffffffffffffffffffffffffffffffff\n      and\n      eq\n        /* \"contracts/SupplyChain.sol\":2420:2470  require(msg.sender == b.pharmacy, \"only pharmacy\") */\n      tag_90\n      jumpi\n      mload(0x40)\n      0x08c379a000000000000000000000000000000000000000000000000000000000\n      dup2\n      mstore\n      0x04\n      add\n      tag_91\n      swap1\n      tag_92\n      jump\t// in\n    tag_91:\n      mload(0x40)\n      dup1\n      swap2\n      sub\n      swap1\n      revert\n    tag_90:\n        /* \"contracts/SupplyChain.sol\":2491:2501  State.Sold */\n      0x03\n        /* \"contracts/SupplyChain.sol\":2481:2482  b */\n      dup2\n        /* \"contracts/SupplyChain.sol\":2481:2488  b.state */\n      0x06\n      add\n      0x14\n        /* \"contracts/SupplyChain.sol\":2481:2501  b.state = State.Sold */\n      0x0100\n      exp\n      dup2\n      sload\n      dup2\n      0xff\n      mul\n      not\n      and\n      swap1\n      dup4\n      0x03\n      dup2\n      gt\n      iszero\n      tag_93\n      jumpi\n      tag_94\n      tag_46\n      jump\t// in\n    tag_94:\n    tag_93:\n      mul\n      or\n      swap1\n      sstore\n      pop\n        /* \"contracts/SupplyChain.sol\":2517:2530  Sold(batchId) */\n      0xe849b0af4ecf208b975210b68de7f7e7a16da0804e997c5586fd91397ea96f5a\n        /* \"contracts/SupplyChain.sol\":2522:2529  batchId */\n      dup4\n      dup4\n        /* \"contracts/SupplyChain.sol\":2517:2530  Sold(batchId) */\n      mload(0x40)\n      tag_95\n      swap3\n      swap2\n      swap1\n      tag_96\n      jump\t// in\n    tag_95:\n      mload(0x40)\n      dup1\n      swap2\n      sub\n      swap1\n      log1\n        /* \"contracts/SupplyChain.sol\":2306:2538  {... */\n      pop\n        /* \"contracts/SupplyChain.sol\":2254:2538  function markSold(string calldata batchId) external {... */\n      pop\n      pop\n      jump\t// out\n        /* \"contracts/SupplyChain.sol\":1518:1872  function ship(string calldata batchId) external {... */\n    tag_29:\n        /* \"contracts/SupplyChain.sol\":1577:1592  Batch storage b */\n      0x00\n        /* \"contracts/SupplyChain.sol\":1595:1602  batches */\n      dup1\n        /* \"contracts/SupplyChain.sol\":1603:1610  batchId */\n      dup4\n      dup4\n        /* \"contracts/SupplyChain.sol\":1595:1611  batches[batchId] */\n      mload(0x40)\n      tag_98\n      swap3\n      swap2\n      swap1\n      tag_37\n      jump\t// in\n    tag_98:\n      swap1\n      dup2\n      mstore\n      0x20\n      add\n      mload(0x40)\n      dup1\n      swap2\n      sub\n      swap1\n      keccak256\n        /* \"contracts/SupplyChain.sol\":1577:1611  Batch storage b = batches[batchId] */\n      swap1\n      pop\n        /* \"contracts/SupplyChain.sol\":1643:1644  0 */\n      0x00\n        /* \"contracts/SupplyChain.sol\":1630:1631  b */\n      dup2\n        /* \"contracts/SupplyChain.sol\":1630:1639  b.mfgDate */\n      0x02\n      add\n      sload\n        /* \"contracts/SupplyChain.sol\":1630:1644  b.mfgDate != 0 */\n      sub\n        /* \"contracts/SupplyChain.sol\":1622:1657  require(b.mfgDate != 0, \"no batch\") */\n      tag_99\n      jumpi\n      mload(0x40)\n      0x08c379a000000000000000000000000000000000000000000000000000000000\n      dup2\n      mstore\n      0x04\n      add\n      tag_100\n      swap1\n      tag_101\n      jump\t// in\n    tag_100:\n      mload(0x40)\n      dup1\n      swap2\n      sub\n      swap1\n      revert\n    tag_99:\n        /* \"contracts/SupplyChain.sol\":1687:1700  State.Created */\n      0x00\n        /* \"contracts/SupplyChain.sol\":1676:1700  b.state == State.Created */\n      0x03\n      dup2\n      gt\n      iszero\n      tag_102\n      jumpi\n      tag_103\n      tag_46\n      jump\t// in\n    tag_103:\n    tag_102:\n        /* \"contracts/SupplyChain.sol\":1676:1677  b */\n      dup2\n        /* \"contracts/SupplyChain.sol\":1676:1683  b.state */\n      0x06\n      add\n      0x14\n      swap1\n      sload\n      swap1\n      0x0100\n      exp\n      swap1\n      div\n      0xff\n      and\n        /* \"contracts/SupplyChain.sol\":1676:1700  b.state == State.Created */\n      0x03\n      dup2\n      gt\n      iszero\n      tag_104\n      jumpi\n      tag_105\n      tag_46\n      jump\t// in\n    tag_105:\n    tag_104:\n      eq\n        /* \"contracts/SupplyChain.sol\":1668:1714  require(b.state == State.Created, \"bad state\") */\n      tag_106\n      jumpi\n      mload(0x40)\n      0x08c379a000000000000000000000000000000000000000000000000000000000\n      dup2\n      mstore\n      0x04\n      add\n      tag_107\n      swap1\n      tag_63\n      jump\t// in\n    tag_107:\n      mload(0x40)\n      dup1\n      swap2\n      sub\n      swap1\n      revert\n    tag_106:\n        /* \"contracts/SupplyChain.sol\":1747:1748  b */\n      dup1\n        /* \"contracts/SupplyChain.sol\":1747:1761  b.manufacturer */\n      0x04\n      add\n      0x00\n      swap1\n      sload\n      swap1\n      0x0100\n      exp\n      swap1\n      div\n      0xffffffffffffffffffffffffffffffffffffffff\n      and\n        /* \"contracts/SupplyChain.sol\":1733:1761  msg.sender == b.manufacturer */\n      0xffffffffffffffffffffffffffffffffffffffff\n      and\n        /* \"contracts/SupplyChain.sol\":1733:1743  msg.sender */\n      caller\n        /* \"contracts/SupplyChain.sol\":1733:1761  msg.sender == b.manufacturer */\n      0xffffffffffffffffffffffffffffffffffffffff\n      and\n      eq\n        /* \"contracts/SupplyChain.sol\":1725:1783  require(msg.sender == b.manufacturer, \"only manufacturer\") */\n      tag_108\n      jumpi\n      mload(0x40)\n      0x08c379a000000000000000000000000000000000000000000000000000000000\n      dup2\n      mstore\n      0x04\n      add\n      tag_109\n      swap1\n      tag_110\n      jump\t// in\n    tag_109:\n      mload(0x40)\n      dup1\n      swap2\n      sub\n      swap1\n      revert\n    tag_108:\n        /* \"contracts/SupplyChain.sol\":1804:1817  State.Shipped */\n      0x01\n        /* \"contracts/SupplyChain.sol\":1794:1795  b */\n      dup2\n        /* \"contracts/SupplyChain.sol\":1794:1801  b.state */\n      0x06\n      add\n      0x14\n        /* \"contracts/SupplyChain.sol\":1794:1817  b.state = State.Shipped */\n      0x0100\n      exp\n      dup2\n      sload\n      dup2\n      0xff\n      mul\n      not\n      and\n      swap1\n      dup4\n      0x03\n      dup2\n      gt\n      iszero\n      tag_111\n      jumpi\n      tag_112\n      tag_46\n      jump\t// in\n    tag_112:\n    tag_111:\n      mul\n      or\n      swap1\n      sstore\n      pop\n        /* \"contracts/SupplyChain.sol\":1833:1864  Shipped(batchId, b.distributor) */\n      0xcf05a7b6e0e16465dbf39c9ded584a1365bd6b2b299bffa12b9e0e671c0ddb39\n        /* \"contracts/SupplyChain.sol\":1841:1848  batchId */\n      dup4\n      dup4\n        /* \"contracts/SupplyChain.sol\":1850:1851  b */\n      dup4\n        /* \"contracts/SupplyChain.sol\":1850:1863  b.distributor */\n      0x05\n      add\n      0x00\n      swap1\n      sload\n      swap1\n      0x0100\n      exp\n      swap1\n      div\n      0xffffffffffffffffffffffffffffffffffffffff\n      and\n        /* \"contracts/SupplyChain.sol\":1833:1864  Shipped(batchId, b.distributor) */\n      mload(0x40)\n      tag_113\n      swap4\n      swap3\n      swap2\n      swap1\n      tag_70\n      jump\t// in\n    tag_113:\n      mload(0x40)\n      dup1\n      swap2\n      sub\n      swap1\n      log1\n        /* \"contracts/SupplyChain.sol\":1566:1872  {... */\n      pop\n        /* \"contracts/SupplyChain.sol\":1518:1872  function ship(string calldata batchId) external {... */\n      pop\n      pop\n      jump\t// out\n        /* \"contracts/SupplyChain.sol\":2546:2668  function getBatch(string calldata batchId) external view returns (Batch memory) {... */\n    tag_32:\n        /* \"contracts/SupplyChain.sol\":2612:2624  Batch memory */\n      tag_114\n      tag_115\n      jump\t// in\n    tag_114:\n        /* \"contracts/SupplyChain.sol\":2644:2651  batches */\n      0x00\n        /* \"contracts/SupplyChain.sol\":2652:2659  batchId */\n      dup4\n      dup4\n        /* \"contracts/SupplyChain.sol\":2644:2660  batches[batchId] */\n      mload(0x40)\n      tag_117\n      swap3\n      swap2\n      swap1\n      tag_37\n      jump\t// in\n    tag_117:\n      swap1\n      dup2\n      mstore\n      0x20\n      add\n      mload(0x40)\n      dup1\n      swap2\n      sub\n      swap1\n      keccak256\n        /* \"contracts/SupplyChain.sol\":2637:2660  return batches[batchId] */\n      mload(0x40)\n      dup1\n      0x0100\n      add\n      0x40\n      mstore\n      swap1\n      dup2\n      0x00\n      dup3\n      add\n      dup1\n      sload\n      tag_118\n      swap1\n      tag_72\n      jump\t// in\n    tag_118:\n      dup1\n      0x1f\n      add\n      0x20\n      dup1\n      swap2\n      div\n      mul\n      0x20\n      add\n      mload(0x40)\n      swap1\n      dup2\n      add\n      0x40\n      mstore\n      dup1\n      swap3\n      swap2\n      swap1\n      dup2\n      dup2\n      mstore\n      0x20\n      add\n      dup3\n      dup1\n      sload\n      tag_119\n      swap1\n      tag_72\n      jump\t// in\n    tag_119:\n      dup1\n      iszero\n      tag_120\n      jumpi\n      dup1\n      0x1f\n      lt\n      tag_121\n      jumpi\n      0x0100\n      dup1\n      dup4\n      sload\n      div\n      mul\n      dup4\n      mstore\n      swap2\n      0x20\n      add\n      swap2\n      jump(tag_120)\n    tag_121:\n      dup3\n      add\n      swap2\n      swap1\n      0x00\n      mstore\n      keccak256(0x00, 0x20)\n      swap1\n    tag_122:\n      dup2\n      sload\n      dup2\n      mstore\n      swap1\n      0x01\n      add\n      swap1\n      0x20\n      add\n      dup1\n      dup4\n      gt\n      tag_122\n      jumpi\n      dup3\n      swap1\n      sub\n      0x1f\n      and\n      dup3\n      add\n      swap2\n    tag_120:\n      pop\n      pop\n      pop\n      pop\n      pop\n      dup2\n      mstore\n      0x20\n      add\n      0x01\n      dup3\n      add\n      dup1\n      sload\n      tag_123\n      swap1\n      tag_72\n      jump\t// in\n    tag_123:\n      dup1\n      0x1f\n      add\n      0x20\n      dup1\n      swap2\n      div\n      mul\n      0x20\n      add\n      mload(0x40)\n      swap1\n      dup2\n      add\n      0x40\n      mstore\n      dup1\n      swap3\n      swap2\n      swap1\n      dup2\n      dup2\n      mstore\n      0x20\n      add\n      dup3\n      dup1\n      sload\n      tag_124\n      swap1\n      tag_72\n      jump\t// in\n    tag_124:\n      dup1\n      iszero\n      tag_125\n      jumpi\n      dup1\n      0x1f\n      lt\n      tag_126\n      jumpi\n      0x0100\n      dup1\n      dup4\n      sload\n      div\n      mul\n      dup4\n      mstore\n      swap2\n      0x20\n      add\n      swap2\n      jump(tag_125)\n    tag_126:\n      dup3\n      add\n      swap2\n      swap1\n      0x00\n      mstore\n      keccak256(0x00, 0x20)\n      swap1\n    tag_127:\n      dup2\n      sload\n      dup2\n      mstore\n      swap1\n      0x01\n      add\n      swap1\n      0x20\n      add\n      dup1\n      dup4\n      gt\n      tag_127\n      jumpi\n      dup3\n      swap1\n      sub\n      0x1f\n      and\n      dup3\n      add\n      swap2\n    tag_125:\n      pop\n      pop\n      pop\n      pop\n      pop\n      dup2\n      mstore\n      0x20\n      add\n      0x02\n      dup3\n      add\n      sload\n      dup2\n      mstore\n      0x20\n      add\n      0x03\n      dup3\n      add\n      sload\n      dup2\n      mstore\n      0x20\n      add\n      0x04\n      dup3\n      add\n      0x00\n      swap1\n      sload\n      swap1\n      0x0100\n      exp\n      swap1\n      div\n      0xffffffffffffffffffffffffffffffffffffffff\n      and\n      0xffffffffffffffffffffffffffffffffffffffff\n      and\n      0xffffffffffffffffffffffffffffffffffffffff\n      and\n      dup2\n      mstore\n      0x20\n      add\n      0x05\n      dup3\n      add\n      0x00\n      swap1\n      sload\n      swap1\n      0x0100\n      exp\n      swap1\n      div\n      0xffffffffffffffffffffffffffffffffffffffff\n      and\n      0xffffffffffffffffffffffffffffffffffffffff\n      and\n      0xffffffffffffffffffffffffffffffffffffffff\n      and\n      dup2\n      mstore\n      0x20\n      add\n      0x06\n      dup3\n      add\n      0x00\n      swap1\n      sload\n      swap1\n      0x0100\n      exp\n      swap1\n      div\n      0xffffffffffffffffffffffffffffffffffffffff\n      and\n      0xffffffffffffffffffffffffffffffffffffffff\n      and\n      0xffffffffffffffffffffffffffffffffffffffff\n      and\n      dup2\n      mstore\n      0x20\n      add\n      0x06\n      dup3\n      add\n      0x14\n      swap1\n      sload\n      swap1\n      0x0100\n      exp\n      swap1\n      div\n      0xff\n      and\n      0x03\n      dup2\n      gt\n      iszero\n      tag_128\n      jumpi\n      tag_129\n      tag_46\n      jump\t// in\n    tag_129:\n    tag_128:\n      0x03\n      dup2\n      gt\n      iszero\n      tag_130\n      jumpi\n      tag_131\n      tag_46\n      jump\t// in\n    tag_131:\n    tag_130:\n      dup2\n      mstore\n      pop\n      pop\n      swap1\n      pop\n        /* \"contracts/SupplyChain.sol\":2546:2668  function getBatch(string calldata batchId) external view returns (Batch memory) {... */\n      swap3\n      swap2\n      pop\n      pop\n      jump\t// out\n    tag_115:\n      mload(0x40)\n      dup1\n      0x0100\n      add\n      0x40\n      mstore\n      dup1\n      0x60\n      dup2\n      mstore\n      0x20\n      add\n      0x60\n      dup2\n      mstore\n      0x20\n      add\n      0x00\n      dup2\n      mstore\n      0x20\n      add\n      0x00\n      dup2\n      mstore\n      0x20\n      add\n      and(0xffffffffffffffffffffffffffffffffffffffff, 0x00)\n      dup2\n      mstore\n      0x20\n      add\n      and(0xffffffffffffffffffffffffffffffffffffffff, 0x00)\n      dup2\n      mstore\n      0x20\n      add\n      and(0xffffffffffffffffffffffffffffffffffffffff, 0x00)\n      dup2\n      mstore\n      0x20\n      add\n      0x00\n      0x03\n      dup2\n      gt\n      iszero\n      tag_132\n      jumpi\n      tag_133\n      tag_46\n      jump\t// in\n    tag_133:\n    tag_132:\n      dup2\n      mstore\n      pop\n      swap1\n      jump\t// out\n        /* \"#utility.yul\":7:82   */\n    tag_134:\n        /* \"#utility.yul\":40:46   */\n      0x00\n        /* \"#utility.yul\":73:75   */\n      0x40\n        /* \"#utility.yul\":67:76   */\n      mload\n        /* \"#utility.yul\":57:76   */\n      swap1\n      pop\n        /* \"#utility.yul\":7:82   */\n      swap1\n      jump\t// out\n        /* \"#utility.yul\":88:205   */\n    tag_135:\n        /* \"#utility.yul\":197:198   */\n      0x00\n        /* \"#utility.yul\":194:195   */\n      dup1\n        /* \"#utility.yul\":187:199   */\n      revert\n        /* \"#utility.yul\":211:328   */\n    tag_136:\n        /* \"#utility.yul\":320:321   */\n      0x00\n        /* \"#utility.yul\":317:318   */\n      dup1\n        /* \"#utility.yul\":310:322   */\n      revert\n        /* \"#utility.yul\":334:451   */\n    tag_137:\n        /* \"#utility.yul\":443:444   */\n      0x00\n        /* \"#utility.yul\":440:441   */\n      dup1\n        /* \"#utility.yul\":433:445   */\n      revert\n        /* \"#utility.yul\":457:574   */\n    tag_138:\n        /* \"#utility.yul\":566:567   */\n      0x00\n        /* \"#utility.yul\":563:564   */\n      dup1\n        /* \"#utility.yul\":556:568   */\n      revert\n        /* \"#utility.yul\":580:697   */\n    tag_139:\n        /* \"#utility.yul\":689:690   */\n      0x00\n        /* \"#utility.yul\":686:687   */\n      dup1\n        /* \"#utility.yul\":679:691   */\n      revert\n        /* \"#utility.yul\":717:1270   */\n    tag_140:\n        /* \"#utility.yul\":775:783   */\n      0x00\n        /* \"#utility.yul\":785:791   */\n      dup1\n        /* \"#utility.yul\":835:838   */\n      dup4\n        /* \"#utility.yul\":828:832   */\n      0x1f\n        /* \"#utility.yul\":820:826   */\n      dup5\n        /* \"#utility.yul\":816:833   */\n      add\n        /* \"#utility.yul\":812:839   */\n      slt\n        /* \"#utility.yul\":802:924   */\n      tag_214\n      jumpi\n        /* \"#utility.yul\":843:922   */\n      tag_215\n      tag_137\n      jump\t// in\n    tag_215:\n        /* \"#utility.yul\":802:924   */\n    tag_214:\n        /* \"#utility.yul\":956:962   */\n      dup3\n        /* \"#utility.yul\":943:963   */\n      calldataload\n        /* \"#utility.yul\":933:963   */\n      swap1\n      pop\n        /* \"#utility.yul\":986:1004   */\n      0xffffffffffffffff\n        /* \"#utility.yul\":978:984   */\n      dup2\n        /* \"#utility.yul\":975:1005   */\n      gt\n        /* \"#utility.yul\":972:1089   */\n      iszero\n      tag_216\n      jumpi\n        /* \"#utility.yul\":1008:1087   */\n      tag_217\n      tag_138\n      jump\t// in\n    tag_217:\n        /* \"#utility.yul\":972:1089   */\n    tag_216:\n        /* \"#utility.yul\":1122:1126   */\n      0x20\n        /* \"#utility.yul\":1114:1120   */\n      dup4\n        /* \"#utility.yul\":1110:1127   */\n      add\n        /* \"#utility.yul\":1098:1127   */\n      swap2\n      pop\n        /* \"#utility.yul\":1176:1179   */\n      dup4\n        /* \"#utility.yul\":1168:1172   */\n      0x01\n        /* \"#utility.yul\":1160:1166   */\n      dup3\n        /* \"#utility.yul\":1156:1173   */\n      mul\n        /* \"#utility.yul\":1146:1154   */\n      dup4\n        /* \"#utility.yul\":1142:1174   */\n      add\n        /* \"#utility.yul\":1139:1180   */\n      gt\n        /* \"#utility.yul\":1136:1264   */\n      iszero\n      tag_218\n      jumpi\n        /* \"#utility.yul\":1183:1262   */\n      tag_219\n      tag_139\n      jump\t// in\n    tag_219:\n        /* \"#utility.yul\":1136:1264   */\n    tag_218:\n        /* \"#utility.yul\":717:1270   */\n      swap3\n      pop\n      swap3\n      swap1\n      pop\n      jump\t// out\n        /* \"#utility.yul\":1276:1353   */\n    tag_141:\n        /* \"#utility.yul\":1313:1320   */\n      0x00\n        /* \"#utility.yul\":1342:1347   */\n      dup2\n        /* \"#utility.yul\":1331:1347   */\n      swap1\n      pop\n        /* \"#utility.yul\":1276:1353   */\n      swap2\n      swap1\n      pop\n      jump\t// out\n        /* \"#utility.yul\":1359:1481   */\n    tag_142:\n        /* \"#utility.yul\":1432:1456   */\n      tag_222\n        /* \"#utility.yul\":1450:1455   */\n      dup2\n        /* \"#utility.yul\":1432:1456   */\n      tag_141\n      jump\t// in\n    tag_222:\n        /* \"#utility.yul\":1425:1430   */\n      dup2\n        /* \"#utility.yul\":1422:1457   */\n      eq\n        /* \"#utility.yul\":1412:1475   */\n      tag_223\n      jumpi\n        /* \"#utility.yul\":1471:1472   */\n      0x00\n        /* \"#utility.yul\":1468:1469   */\n      dup1\n        /* \"#utility.yul\":1461:1473   */\n      revert\n        /* \"#utility.yul\":1412:1475   */\n    tag_223:\n        /* \"#utility.yul\":1359:1481   */\n      pop\n      jump\t// out\n        /* \"#utility.yul\":1487:1626   */\n    tag_143:\n        /* \"#utility.yul\":1533:1538   */\n      0x00\n        /* \"#utility.yul\":1571:1577   */\n      dup2\n        /* \"#utility.yul\":1558:1578   */\n      calldataload\n        /* \"#utility.yul\":1549:1578   */\n      swap1\n      pop\n        /* \"#utility.yul\":1587:1620   */\n      tag_225\n        /* \"#utility.yul\":1614:1619   */\n      dup2\n        /* \"#utility.yul\":1587:1620   */\n      tag_142\n      jump\t// in\n    tag_225:\n        /* \"#utility.yul\":1487:1626   */\n      swap3\n      swap2\n      pop\n      pop\n      jump\t// out\n        /* \"#utility.yul\":1632:1758   */\n    tag_144:\n        /* \"#utility.yul\":1669:1676   */\n      0x00\n        /* \"#utility.yul\":1709:1751   */\n      0xffffffffffffffffffffffffffffffffffffffff\n        /* \"#utility.yul\":1702:1707   */\n      dup3\n        /* \"#utility.yul\":1698:1752   */\n      and\n        /* \"#utility.yul\":1687:1752   */\n      swap1\n      pop\n        /* \"#utility.yul\":1632:1758   */\n      swap2\n      swap1\n      pop\n      jump\t// out\n        /* \"#utility.yul\":1764:1860   */\n    tag_145:\n        /* \"#utility.yul\":1801:1808   */\n      0x00\n        /* \"#utility.yul\":1830:1854   */\n      tag_228\n        /* \"#utility.yul\":1848:1853   */\n      dup3\n        /* \"#utility.yul\":1830:1854   */\n      tag_144\n      jump\t// in\n    tag_228:\n        /* \"#utility.yul\":1819:1854   */\n      swap1\n      pop\n        /* \"#utility.yul\":1764:1860   */\n      swap2\n      swap1\n      pop\n      jump\t// out\n        /* \"#utility.yul\":1866:1988   */\n    tag_146:\n        /* \"#utility.yul\":1939:1963   */\n      tag_230\n        /* \"#utility.yul\":1957:1962   */\n      dup2\n        /* \"#utility.yul\":1939:1963   */\n      tag_145\n      jump\t// in\n    tag_230:\n        /* \"#utility.yul\":1932:1937   */\n      dup2\n        /* \"#utility.yul\":1929:1964   */\n      eq\n        /* \"#utility.yul\":1919:1982   */\n      tag_231\n      jumpi\n        /* \"#utility.yul\":1978:1979   */\n      0x00\n        /* \"#utility.yul\":1975:1976   */\n      dup1\n        /* \"#utility.yul\":1968:1980   */\n      revert\n        /* \"#utility.yul\":1919:1982   */\n    tag_231:\n        /* \"#utility.yul\":1866:1988   */\n      pop\n      jump\t// out\n        /* \"#utility.yul\":1994:2133   */\n    tag_147:\n        /* \"#utility.yul\":2040:2045   */\n      0x00\n        /* \"#utility.yul\":2078:2084   */\n      dup2\n        /* \"#utility.yul\":2065:2085   */\n      calldataload\n        /* \"#utility.yul\":2056:2085   */\n      swap1\n      pop\n        /* \"#utility.yul\":2094:2127   */\n      tag_233\n        /* \"#utility.yul\":2121:2126   */\n      dup2\n        /* \"#utility.yul\":2094:2127   */\n      tag_146\n      jump\t// in\n    tag_233:\n        /* \"#utility.yul\":1994:2133   */\n      swap3\n      swap2\n      pop\n      pop\n      jump\t// out\n        /* \"#utility.yul\":2139:3450   */\n    tag_11:\n        /* \"#utility.yul\":2258:2264   */\n      0x00\n        /* \"#utility.yul\":2266:2272   */\n      dup1\n        /* \"#utility.yul\":2274:2280   */\n      0x00\n        /* \"#utility.yul\":2282:2288   */\n      dup1\n        /* \"#utility.yul\":2290:2296   */\n      0x00\n        /* \"#utility.yul\":2298:2304   */\n      dup1\n        /* \"#utility.yul\":2306:2312   */\n      0x00\n        /* \"#utility.yul\":2355:2358   */\n      0xa0\n        /* \"#utility.yul\":2343:2352   */\n      dup9\n        /* \"#utility.yul\":2334:2341   */\n      dup11\n        /* \"#utility.yul\":2330:2353   */\n      sub\n        /* \"#utility.yul\":2326:2359   */\n      slt\n        /* \"#utility.yul\":2323:2443   */\n      iszero\n      tag_235\n      jumpi\n        /* \"#utility.yul\":2362:2441   */\n      tag_236\n      tag_135\n      jump\t// in\n    tag_236:\n        /* \"#utility.yul\":2323:2443   */\n    tag_235:\n        /* \"#utility.yul\":2510:2511   */\n      0x00\n        /* \"#utility.yul\":2499:2508   */\n      dup9\n        /* \"#utility.yul\":2495:2512   */\n      add\n        /* \"#utility.yul\":2482:2513   */\n      calldataload\n        /* \"#utility.yul\":2540:2558   */\n      0xffffffffffffffff\n        /* \"#utility.yul\":2532:2538   */\n      dup2\n        /* \"#utility.yul\":2529:2559   */\n      gt\n        /* \"#utility.yul\":2526:2643   */\n      iszero\n      tag_237\n      jumpi\n        /* \"#utility.yul\":2562:2641   */\n      tag_238\n      tag_136\n      jump\t// in\n    tag_238:\n        /* \"#utility.yul\":2526:2643   */\n    tag_237:\n        /* \"#utility.yul\":2675:2740   */\n      tag_239\n        /* \"#utility.yul\":2732:2739   */\n      dup11\n        /* \"#utility.yul\":2723:2729   */\n      dup3\n        /* \"#utility.yul\":2712:2721   */\n      dup12\n        /* \"#utility.yul\":2708:2730   */\n      add\n        /* \"#utility.yul\":2675:2740   */\n      tag_140\n      jump\t// in\n    tag_239:\n        /* \"#utility.yul\":2657:2740   */\n      swap8\n      pop\n      swap8\n      pop\n        /* \"#utility.yul\":2453:2750   */\n      pop\n        /* \"#utility.yul\":2817:2819   */\n      0x20\n        /* \"#utility.yul\":2806:2815   */\n      dup9\n        /* \"#utility.yul\":2802:2820   */\n      add\n        /* \"#utility.yul\":2789:2821   */\n      calldataload\n        /* \"#utility.yul\":2848:2866   */\n      0xffffffffffffffff\n        /* \"#utility.yul\":2840:2846   */\n      dup2\n        /* \"#utility.yul\":2837:2867   */\n      gt\n        /* \"#utility.yul\":2834:2951   */\n      iszero\n      tag_240\n      jumpi\n        /* \"#utility.yul\":2870:2949   */\n      tag_241\n      tag_136\n      jump\t// in\n    tag_241:\n        /* \"#utility.yul\":2834:2951   */\n    tag_240:\n        /* \"#utility.yul\":2983:3048   */\n      tag_242\n        /* \"#utility.yul\":3040:3047   */\n      dup11\n        /* \"#utility.yul\":3031:3037   */\n      dup3\n        /* \"#utility.yul\":3020:3029   */\n      dup12\n        /* \"#utility.yul\":3016:3038   */\n      add\n        /* \"#utility.yul\":2983:3048   */\n      tag_140\n      jump\t// in\n    tag_242:\n        /* \"#utility.yul\":2965:3048   */\n      swap6\n      pop\n      swap6\n      pop\n        /* \"#utility.yul\":2760:3058   */\n      pop\n        /* \"#utility.yul\":3097:3099   */\n      0x40\n        /* \"#utility.yul\":3123:3176   */\n      tag_243\n        /* \"#utility.yul\":3168:3175   */\n      dup11\n        /* \"#utility.yul\":3159:3165   */\n      dup3\n        /* \"#utility.yul\":3148:3157   */\n      dup12\n        /* \"#utility.yul\":3144:3166   */\n      add\n        /* \"#utility.yul\":3123:3176   */\n      tag_143\n      jump\t// in\n    tag_243:\n        /* \"#utility.yul\":3113:3176   */\n      swap4\n      pop\n        /* \"#utility.yul\":3068:3186   */\n      pop\n        /* \"#utility.yul\":3225:3227   */\n      0x60\n        /* \"#utility.yul\":3251:3304   */\n      tag_244\n        /* \"#utility.yul\":3296:3303   */\n      dup11\n        /* \"#utility.yul\":3287:3293   */\n      dup3\n        /* \"#utility.yul\":3276:3285   */\n      dup12\n        /* \"#utility.yul\":3272:3294   */\n      add\n        /* \"#utility.yul\":3251:3304   */\n      tag_143\n      jump\t// in\n    tag_244:\n        /* \"#utility.yul\":3241:3304   */\n      swap3\n      pop\n        /* \"#utility.yul\":3196:3314   */\n      pop\n        /* \"#utility.yul\":3353:3356   */\n      0x80\n        /* \"#utility.yul\":3380:3433   */\n      tag_245\n        /* \"#utility.yul\":3425:3432   */\n      dup11\n        /* \"#utility.yul\":3416:3422   */\n      dup3\n        /* \"#utility.yul\":3405:3414   */\n      dup12\n        /* \"#utility.yul\":3401:3423   */\n      add\n        /* \"#utility.yul\":3380:3433   */\n      tag_147\n      jump\t// in\n    tag_245:\n        /* \"#utility.yul\":3370:3433   */\n      swap2\n      pop\n        /* \"#utility.yul\":3324:3443   */\n      pop\n        /* \"#utility.yul\":2139:3450   */\n      swap3\n      swap6\n      swap9\n      swap2\n      swap5\n      swap8\n      pop\n      swap3\n      swap6\n      pop\n      jump\t// out\n        /* \"#utility.yul\":3456:4130   */\n    tag_15:\n        /* \"#utility.yul\":3536:3542   */\n      0x00\n        /* \"#utility.yul\":3544:3550   */\n      dup1\n        /* \"#utility.yul\":3552:3558   */\n      0x00\n        /* \"#utility.yul\":3601:3603   */\n      0x40\n        /* \"#utility.yul\":3589:3598   */\n      dup5\n        /* \"#utility.yul\":3580:3587   */\n      dup7\n        /* \"#utility.yul\":3576:3599   */\n      sub\n        /* \"#utility.yul\":3572:3604   */\n      slt\n        /* \"#utility.yul\":3569:3688   */\n      iszero\n      tag_247\n      jumpi\n        /* \"#utility.yul\":3607:3686   */\n      tag_248\n      tag_135\n      jump\t// in\n    tag_248:\n        /* \"#utility.yul\":3569:3688   */\n    tag_247:\n        /* \"#utility.yul\":3755:3756   */\n      0x00\n        /* \"#utility.yul\":3744:3753   */\n      dup5\n        /* \"#utility.yul\":3740:3757   */\n      add\n        /* \"#utility.yul\":3727:3758   */\n      calldataload\n        /* \"#utility.yul\":3785:3803   */\n      0xffffffffffffffff\n        /* \"#utility.yul\":3777:3783   */\n      dup2\n        /* \"#utility.yul\":3774:3804   */\n      gt\n        /* \"#utility.yul\":3771:3888   */\n      iszero\n      tag_249\n      jumpi\n        /* \"#utility.yul\":3807:3886   */\n      tag_250\n      tag_136\n      jump\t// in\n    tag_250:\n        /* \"#utility.yul\":3771:3888   */\n    tag_249:\n        /* \"#utility.yul\":3920:3985   */\n      tag_251\n        /* \"#utility.yul\":3977:3984   */\n      dup7\n        /* \"#utility.yul\":3968:3974   */\n      dup3\n        /* \"#utility.yul\":3957:3966   */\n      dup8\n        /* \"#utility.yul\":3953:3975   */\n      add\n        /* \"#utility.yul\":3920:3985   */\n      tag_140\n      jump\t// in\n    tag_251:\n        /* \"#utility.yul\":3902:3985   */\n      swap4\n      pop\n      swap4\n      pop\n        /* \"#utility.yul\":3698:3995   */\n      pop\n        /* \"#utility.yul\":4034:4036   */\n      0x20\n        /* \"#utility.yul\":4060:4113   */\n      tag_252\n        /* \"#utility.yul\":4105:4112   */\n      dup7\n        /* \"#utility.yul\":4096:4102   */\n      dup3\n        /* \"#utility.yul\":4085:4094   */\n      dup8\n        /* \"#utility.yul\":4081:4103   */\n      add\n        /* \"#utility.yul\":4060:4113   */\n      tag_147\n      jump\t// in\n    tag_252:\n        /* \"#utility.yul\":4050:4113   */\n      swap2\n      pop\n        /* \"#utility.yul\":4005:4123   */\n      pop\n        /* \"#utility.yul\":3456:4130   */\n      swap3\n      pop\n      swap3\n      pop\n      swap3\n      jump\t// out\n        /* \"#utility.yul\":4136:4253   */\n    tag_148:\n        /* \"#utility.yul\":4245:4246   */\n      0x00\n        /* \"#utility.yul\":4242:4243   */\n      dup1\n        /* \"#utility.yul\":4235:4247   */\n      revert\n        /* \"#utility.yul\":4259:4361   */\n    tag_149:\n        /* \"#utility.yul\":4300:4306   */\n      0x00\n        /* \"#utility.yul\":4351:4353   */\n      0x1f\n        /* \"#utility.yul\":4347:4354   */\n      not\n        /* \"#utility.yul\":4342:4344   */\n      0x1f\n        /* \"#utility.yul\":4335:4340   */\n      dup4\n        /* \"#utility.yul\":4331:4345   */\n      add\n        /* \"#utility.yul\":4327:4355   */\n      and\n        /* \"#utility.yul\":4317:4355   */\n      swap1\n      pop\n        /* \"#utility.yul\":4259:4361   */\n      swap2\n      swap1\n      pop\n      jump\t// out\n        /* \"#utility.yul\":4367:4547   */\n    tag_150:\n        /* \"#utility.yul\":4415:4492   */\n      0x4e487b7100000000000000000000000000000000000000000000000000000000\n        /* \"#utility.yul\":4412:4413   */\n      0x00\n        /* \"#utility.yul\":4405:4493   */\n      mstore\n        /* \"#utility.yul\":4512:4516   */\n      0x41\n        /* \"#utility.yul\":4509:4510   */\n      0x04\n        /* \"#utility.yul\":4502:4517   */\n      mstore\n        /* \"#utility.yul\":4536:4540   */\n      0x24\n        /* \"#utility.yul\":4533:4534   */\n      0x00\n        /* \"#utility.yul\":4526:4541   */\n      revert\n        /* \"#utility.yul\":4553:4834   */\n    tag_151:\n        /* \"#utility.yul\":4636:4663   */\n      tag_257\n        /* \"#utility.yul\":4658:4662   */\n      dup3\n        /* \"#utility.yul\":4636:4663   */\n      tag_149\n      jump\t// in\n    tag_257:\n        /* \"#utility.yul\":4628:4634   */\n      dup2\n        /* \"#utility.yul\":4624:4664   */\n      add\n        /* \"#utility.yul\":4766:4772   */\n      dup2\n        /* \"#utility.yul\":4754:4764   */\n      dup2\n        /* \"#utility.yul\":4751:4773   */\n      lt\n        /* \"#utility.yul\":4730:4748   */\n      0xffffffffffffffff\n        /* \"#utility.yul\":4718:4728   */\n      dup3\n        /* \"#utility.yul\":4715:4749   */\n      gt\n        /* \"#utility.yul\":4712:4774   */\n      or\n        /* \"#utility.yul\":4709:4797   */\n      iszero\n      tag_258\n      jumpi\n        /* \"#utility.yul\":4777:4795   */\n      tag_259\n      tag_150\n      jump\t// in\n    tag_259:\n        /* \"#utility.yul\":4709:4797   */\n    tag_258:\n        /* \"#utility.yul\":4817:4827   */\n      dup1\n        /* \"#utility.yul\":4813:4815   */\n      0x40\n        /* \"#utility.yul\":4806:4828   */\n      mstore\n        /* \"#utility.yul\":4596:4834   */\n      pop\n        /* \"#utility.yul\":4553:4834   */\n      pop\n      pop\n      jump\t// out\n        /* \"#utility.yul\":4840:4969   */\n    tag_152:\n        /* \"#utility.yul\":4874:4880   */\n      0x00\n        /* \"#utility.yul\":4901:4921   */\n      tag_261\n      tag_134\n      jump\t// in\n    tag_261:\n        /* \"#utility.yul\":4891:4921   */\n      swap1\n      pop\n        /* \"#utility.yul\":4930:4963   */\n      tag_262\n        /* \"#utility.yul\":4958:4962   */\n      dup3\n        /* \"#utility.yul\":4950:4956   */\n      dup3\n        /* \"#utility.yul\":4930:4963   */\n      tag_151\n      jump\t// in\n    tag_262:\n        /* \"#utility.yul\":4840:4969   */\n      swap2\n      swap1\n      pop\n      jump\t// out\n        /* \"#utility.yul\":4975:5283   */\n    tag_153:\n        /* \"#utility.yul\":5037:5041   */\n      0x00\n        /* \"#utility.yul\":5127:5145   */\n      0xffffffffffffffff\n        /* \"#utility.yul\":5119:5125   */\n      dup3\n        /* \"#utility.yul\":5116:5146   */\n      gt\n        /* \"#utility.yul\":5113:5169   */\n      iszero\n      tag_264\n      jumpi\n        /* \"#utility.yul\":5149:5167   */\n      tag_265\n      tag_150\n      jump\t// in\n    tag_265:\n        /* \"#utility.yul\":5113:5169   */\n    tag_264:\n        /* \"#utility.yul\":5187:5216   */\n      tag_266\n        /* \"#utility.yul\":5209:5215   */\n      dup3\n        /* \"#utility.yul\":5187:5216   */\n      tag_149\n      jump\t// in\n    tag_266:\n        /* \"#utility.yul\":5179:5216   */\n      swap1\n      pop\n        /* \"#utility.yul\":5271:5275   */\n      0x20\n        /* \"#utility.yul\":5265:5269   */\n      dup2\n        /* \"#utility.yul\":5261:5276   */\n      add\n        /* \"#utility.yul\":5253:5276   */\n      swap1\n      pop\n        /* \"#utility.yul\":4975:5283   */\n      swap2\n      swap1\n      pop\n      jump\t// out\n        /* \"#utility.yul\":5289:5435   */\n    tag_154:\n        /* \"#utility.yul\":5386:5392   */\n      dup3\n        /* \"#utility.yul\":5381:5384   */\n      dup2\n        /* \"#utility.yul\":5376:5379   */\n      dup4\n        /* \"#utility.yul\":5363:5393   */\n      calldatacopy\n        /* \"#utility.yul\":5427:5428   */\n      0x00\n        /* \"#utility.yul\":5418:5424   */\n      dup4\n        /* \"#utility.yul\":5413:5416   */\n      dup4\n        /* \"#utility.yul\":5409:5425   */\n      add\n        /* \"#utility.yul\":5402:5429   */\n      mstore\n        /* \"#utility.yul\":5289:5435   */\n      pop\n      pop\n      pop\n      jump\t// out\n        /* \"#utility.yul\":5441:5866   */\n    tag_155:\n        /* \"#utility.yul\":5519:5524   */\n      0x00\n        /* \"#utility.yul\":5544:5610   */\n      tag_269\n        /* \"#utility.yul\":5560:5609   */\n      tag_270\n        /* \"#utility.yul\":5602:5608   */\n      dup5\n        /* \"#utility.yul\":5560:5609   */\n      tag_153\n      jump\t// in\n    tag_270:\n        /* \"#utility.yul\":5544:5610   */\n      tag_152\n      jump\t// in\n    tag_269:\n        /* \"#utility.yul\":5535:5610   */\n      swap1\n      pop\n        /* \"#utility.yul\":5633:5639   */\n      dup3\n        /* \"#utility.yul\":5626:5631   */\n      dup2\n        /* \"#utility.yul\":5619:5640   */\n      mstore\n        /* \"#utility.yul\":5671:5675   */\n      0x20\n        /* \"#utility.yul\":5664:5669   */\n      dup2\n        /* \"#utility.yul\":5660:5676   */\n      add\n        /* \"#utility.yul\":5709:5712   */\n      dup5\n        /* \"#utility.yul\":5700:5706   */\n      dup5\n        /* \"#utility.yul\":5695:5698   */\n      dup5\n        /* \"#utility.yul\":5691:5707   */\n      add\n        /* \"#utility.yul\":5688:5713   */\n      gt\n        /* \"#utility.yul\":5685:5797   */\n      iszero\n      tag_271\n      jumpi\n        /* \"#utility.yul\":5716:5795   */\n      tag_272\n      tag_148\n      jump\t// in\n    tag_272:\n        /* \"#utility.yul\":5685:5797   */\n    tag_271:\n        /* \"#utility.yul\":5806:5860   */\n      tag_273\n        /* \"#utility.yul\":5853:5859   */\n      dup5\n        /* \"#utility.yul\":5848:5851   */\n      dup3\n        /* \"#utility.yul\":5843:5846   */\n      dup6\n        /* \"#utility.yul\":5806:5860   */\n      tag_154\n      jump\t// in\n    tag_273:\n        /* \"#utility.yul\":5525:5866   */\n      pop\n        /* \"#utility.yul\":5441:5866   */\n      swap4\n      swap3\n      pop\n      pop\n      pop\n      jump\t// out\n        /* \"#utility.yul\":5886:6226   */\n    tag_156:\n        /* \"#utility.yul\":5942:5947   */\n      0x00\n        /* \"#utility.yul\":5991:5994   */\n      dup3\n        /* \"#utility.yul\":5984:5988   */\n      0x1f\n        /* \"#utility.yul\":5976:5982   */\n      dup4\n        /* \"#utility.yul\":5972:5989   */\n      add\n        /* \"#utility.yul\":5968:5995   */\n      slt\n        /* \"#utility.yul\":5958:6080   */\n      tag_275\n      jumpi\n        /* \"#utility.yul\":5999:6078   */\n      tag_276\n      tag_137\n      jump\t// in\n    tag_276:\n        /* \"#utility.yul\":5958:6080   */\n    tag_275:\n        /* \"#utility.yul\":6116:6122   */\n      dup2\n        /* \"#utility.yul\":6103:6123   */\n      calldataload\n        /* \"#utility.yul\":6141:6220   */\n      tag_277\n        /* \"#utility.yul\":6216:6219   */\n      dup5\n        /* \"#utility.yul\":6208:6214   */\n      dup3\n        /* \"#utility.yul\":6201:6205   */\n      0x20\n        /* \"#utility.yul\":6193:6199   */\n      dup7\n        /* \"#utility.yul\":6189:6206   */\n      add\n        /* \"#utility.yul\":6141:6220   */\n      tag_155\n      jump\t// in\n    tag_277:\n        /* \"#utility.yul\":6132:6220   */\n      swap2\n      pop\n        /* \"#utility.yul\":5948:6226   */\n      pop\n        /* \"#utility.yul\":5886:6226   */\n      swap3\n      swap2\n      pop\n      pop\n      jump\t// out\n        /* \"#utility.yul\":6232:6741   */\n    tag_19:\n        /* \"#utility.yul\":6301:6307   */\n      0x00\n        /* \"#utility.yul\":6350:6352   */\n      0x20\n        /* \"#utility.yul\":6338:6347   */\n      dup3\n        /* \"#utility.yul\":6329:6336   */\n      dup5\n        /* \"#utility.yul\":6325:6348   */\n      sub\n        /* \"#utility.yul\":6321:6353   */\n      slt\n        /* \"#utility.yul\":6318:6437   */\n      iszero\n      tag_279\n      jumpi\n        /* \"#utility.yul\":6356:6435   */\n      tag_280\n      tag_135\n      jump\t// in\n    tag_280:\n        /* \"#utility.yul\":6318:6437   */\n    tag_279:\n        /* \"#utility.yul\":6504:6505   */\n      0x00\n        /* \"#utility.yul\":6493:6502   */\n      dup3\n        /* \"#utility.yul\":6489:6506   */\n      add\n        /* \"#utility.yul\":6476:6507   */\n      calldataload\n        /* \"#utility.yul\":6534:6552   */\n      0xffffffffffffffff\n        /* \"#utility.yul\":6526:6532   */\n      dup2\n        /* \"#utility.yul\":6523:6553   */\n      gt\n        /* \"#utility.yul\":6520:6637   */\n      iszero\n      tag_281\n      jumpi\n        /* \"#utility.yul\":6556:6635   */\n      tag_282\n      tag_136\n      jump\t// in\n    tag_282:\n        /* \"#utility.yul\":6520:6637   */\n    tag_281:\n        /* \"#utility.yul\":6661:6724   */\n      tag_283\n        /* \"#utility.yul\":6716:6723   */\n      dup5\n        /* \"#utility.yul\":6707:6713   */\n      dup3\n        /* \"#utility.yul\":6696:6705   */\n      dup6\n        /* \"#utility.yul\":6692:6714   */\n      add\n        /* \"#utility.yul\":6661:6724   */\n      tag_156\n      jump\t// in\n    tag_283:\n        /* \"#utility.yul\":6651:6724   */\n      swap2\n      pop\n        /* \"#utility.yul\":6447:6734   */\n      pop\n        /* \"#utility.yul\":6232:6741   */\n      swap3\n      swap2\n      pop\n      pop\n      jump\t// out\n        /* \"#utility.yul\":6747:6846   */\n    tag_157:\n        /* \"#utility.yul\":6799:6805   */\n      0x00\n        /* \"#utility.yul\":6833:6838   */\n      dup2\n        /* \"#utility.yul\":6827:6839   */\n      mload\n        /* \"#utility.yul\":6817:6839   */\n      swap1\n      pop\n        /* \"#utility.yul\":6747:6846   */\n      swap2\n      swap1\n      pop\n      jump\t// out\n        /* \"#utility.yul\":6852:7021   */\n    tag_158:\n        /* \"#utility.yul\":6936:6947   */\n      0x00\n        /* \"#utility.yul\":6970:6976   */\n      dup3\n        /* \"#utility.yul\":6965:6968   */\n      dup3\n        /* \"#utility.yul\":6958:6977   */\n      mstore\n        /* \"#utility.yul\":7010:7014   */\n      0x20\n        /* \"#utility.yul\":7005:7008   */\n      dup3\n        /* \"#utility.yul\":7001:7015   */\n      add\n        /* \"#utility.yul\":6986:7015   */\n      swap1\n      pop\n        /* \"#utility.yul\":6852:7021   */\n      swap3\n      swap2\n      pop\n      pop\n      jump\t// out\n        /* \"#utility.yul\":7027:7273   */\n    tag_159:\n        /* \"#utility.yul\":7108:7109   */\n      0x00\n        /* \"#utility.yul\":7118:7231   */\n    tag_287:\n        /* \"#utility.yul\":7132:7138   */\n      dup4\n        /* \"#utility.yul\":7129:7130   */\n      dup2\n        /* \"#utility.yul\":7126:7139   */\n      lt\n        /* \"#utility.yul\":7118:7231   */\n      iszero\n      tag_289\n      jumpi\n        /* \"#utility.yul\":7217:7218   */\n      dup1\n        /* \"#utility.yul\":7212:7215   */\n      dup3\n        /* \"#utility.yul\":7208:7219   */\n      add\n        /* \"#utility.yul\":7202:7220   */\n      mload\n        /* \"#utility.yul\":7198:7199   */\n      dup2\n        /* \"#utility.yul\":7193:7196   */\n      dup5\n        /* \"#utility.yul\":7189:7200   */\n      add\n        /* \"#utility.yul\":7182:7221   */\n      mstore\n        /* \"#utility.yul\":7154:7156   */\n      0x20\n        /* \"#utility.yul\":7151:7152   */\n      dup2\n        /* \"#utility.yul\":7147:7157   */\n      add\n        /* \"#utility.yul\":7142:7157   */\n      swap1\n      pop\n        /* \"#utility.yul\":7118:7231   */\n      jump(tag_287)\n    tag_289:\n        /* \"#utility.yul\":7265:7266   */\n      0x00\n        /* \"#utility.yul\":7256:7262   */\n      dup5\n        /* \"#utility.yul\":7251:7254   */\n      dup5\n        /* \"#utility.yul\":7247:7263   */\n      add\n        /* \"#utility.yul\":7240:7267   */\n      mstore\n        /* \"#utility.yul\":7089:7273   */\n      pop\n        /* \"#utility.yul\":7027:7273   */\n      pop\n      pop\n      pop\n      jump\t// out\n        /* \"#utility.yul\":7279:7656   */\n    tag_160:\n        /* \"#utility.yul\":7367:7370   */\n      0x00\n        /* \"#utility.yul\":7395:7434   */\n      tag_291\n        /* \"#utility.yul\":7428:7433   */\n      dup3\n        /* \"#utility.yul\":7395:7434   */\n      tag_157\n      jump\t// in\n    tag_291:\n        /* \"#utility.yul\":7450:7521   */\n      tag_292\n        /* \"#utility.yul\":7514:7520   */\n      dup2\n        /* \"#utility.yul\":7509:7512   */\n      dup6\n        /* \"#utility.yul\":7450:7521   */\n      tag_158\n      jump\t// in\n    tag_292:\n        /* \"#utility.yul\":7443:7521   */\n      swap4\n      pop\n        /* \"#utility.yul\":7530:7595   */\n      tag_293\n        /* \"#utility.yul\":7588:7594   */\n      dup2\n        /* \"#utility.yul\":7583:7586   */\n      dup6\n        /* \"#utility.yul\":7576:7580   */\n      0x20\n        /* \"#utility.yul\":7569:7574   */\n      dup7\n        /* \"#utility.yul\":7565:7581   */\n      add\n        /* \"#utility.yul\":7530:7595   */\n      tag_159\n      jump\t// in\n    tag_293:\n        /* \"#utility.yul\":7620:7649   */\n      tag_294\n        /* \"#utility.yul\":7642:7648   */\n      dup2\n        /* \"#utility.yul\":7620:7649   */\n      tag_149\n      jump\t// in\n    tag_294:\n        /* \"#utility.yul\":7615:7618   */\n      dup5\n        /* \"#utility.yul\":7611:7650   */\n      add\n        /* \"#utility.yul\":7604:7650   */\n      swap2\n      pop\n        /* \"#utility.yul\":7371:7656   */\n      pop\n        /* \"#utility.yul\":7279:7656   */\n      swap3\n      swap2\n      pop\n      pop\n      jump\t// out\n        /* \"#utility.yul\":7662:7780   */\n    tag_161:\n        /* \"#utility.yul\":7749:7773   */\n      tag_296\n        /* \"#utility.yul\":7767:7772   */\n      dup2\n        /* \"#utility.yul\":7749:7773   */\n      tag_141\n      jump\t// in\n    tag_296:\n        /* \"#utility.yul\":7744:7747   */\n      dup3\n        /* \"#utility.yul\":7737:7774   */\n      mstore\n        /* \"#utility.yul\":7662:7780   */\n      pop\n      pop\n      jump\t// out\n        /* \"#utility.yul\":7786:7904   */\n    tag_162:\n        /* \"#utility.yul\":7873:7897   */\n      tag_298\n        /* \"#utility.yul\":7891:7896   */\n      dup2\n        /* \"#utility.yul\":7873:7897   */\n      tag_145\n      jump\t// in\n    tag_298:\n        /* \"#utility.yul\":7868:7871   */\n      dup3\n        /* \"#utility.yul\":7861:7898   */\n      mstore\n        /* \"#utility.yul\":7786:7904   */\n      pop\n      pop\n      jump\t// out\n        /* \"#utility.yul\":7910:8090   */\n    tag_46:\n        /* \"#utility.yul\":7958:8035   */\n      0x4e487b7100000000000000000000000000000000000000000000000000000000\n        /* \"#utility.yul\":7955:7956   */\n      0x00\n        /* \"#utility.yul\":7948:8036   */\n      mstore\n        /* \"#utility.yul\":8055:8059   */\n      0x21\n        /* \"#utility.yul\":8052:8053   */\n      0x04\n        /* \"#utility.yul\":8045:8060   */\n      mstore\n        /* \"#utility.yul\":8079:8083   */\n      0x24\n        /* \"#utility.yul\":8076:8077   */\n      0x00\n        /* \"#utility.yul\":8069:8084   */\n      revert\n        /* \"#utility.yul\":8096:8208   */\n    tag_163:\n        /* \"#utility.yul\":8176:8177   */\n      0x04\n        /* \"#utility.yul\":8169:8174   */\n      dup2\n        /* \"#utility.yul\":8166:8178   */\n      lt\n        /* \"#utility.yul\":8156:8202   */\n      tag_301\n      jumpi\n        /* \"#utility.yul\":8182:8200   */\n      tag_302\n      tag_46\n      jump\t// in\n    tag_302:\n        /* \"#utility.yul\":8156:8202   */\n    tag_301:\n        /* \"#utility.yul\":8096:8208   */\n      pop\n      jump\t// out\n        /* \"#utility.yul\":8214:8339   */\n    tag_164:\n        /* \"#utility.yul\":8258:8265   */\n      0x00\n        /* \"#utility.yul\":8287:8292   */\n      dup2\n        /* \"#utility.yul\":8276:8292   */\n      swap1\n      pop\n        /* \"#utility.yul\":8293:8333   */\n      tag_304\n        /* \"#utility.yul\":8327:8332   */\n      dup3\n        /* \"#utility.yul\":8293:8333   */\n      tag_163\n      jump\t// in\n    tag_304:\n        /* \"#utility.yul\":8214:8339   */\n      swap2\n      swap1\n      pop\n      jump\t// out\n        /* \"#utility.yul\":8345:8470   */\n    tag_165:\n        /* \"#utility.yul\":8400:8409   */\n      0x00\n        /* \"#utility.yul\":8433:8464   */\n      tag_306\n        /* \"#utility.yul\":8458:8463   */\n      dup3\n        /* \"#utility.yul\":8433:8464   */\n      tag_164\n      jump\t// in\n    tag_306:\n        /* \"#utility.yul\":8420:8464   */\n      swap1\n      pop\n        /* \"#utility.yul\":8345:8470   */\n      swap2\n      swap1\n      pop\n      jump\t// out\n        /* \"#utility.yul\":8476:8617   */\n    tag_166:\n        /* \"#utility.yul\":8568:8610   */\n      tag_308\n        /* \"#utility.yul\":8604:8609   */\n      dup2\n        /* \"#utility.yul\":8568:8610   */\n      tag_165\n      jump\t// in\n    tag_308:\n        /* \"#utility.yul\":8563:8566   */\n      dup3\n        /* \"#utility.yul\":8556:8611   */\n      mstore\n        /* \"#utility.yul\":8476:8617   */\n      pop\n      pop\n      jump\t// out\n        /* \"#utility.yul\":8623:9812   */\n    tag_22:\n        /* \"#utility.yul\":8957:8961   */\n      0x00\n        /* \"#utility.yul\":8995:8998   */\n      0x0100\n        /* \"#utility.yul\":8984:8993   */\n      dup3\n        /* \"#utility.yul\":8980:8999   */\n      add\n        /* \"#utility.yul\":8972:8999   */\n      swap1\n      pop\n        /* \"#utility.yul\":9045:9054   */\n      dup2\n        /* \"#utility.yul\":9039:9043   */\n      dup2\n        /* \"#utility.yul\":9035:9055   */\n      sub\n        /* \"#utility.yul\":9031:9032   */\n      0x00\n        /* \"#utility.yul\":9020:9029   */\n      dup4\n        /* \"#utility.yul\":9016:9033   */\n      add\n        /* \"#utility.yul\":9009:9056   */\n      mstore\n        /* \"#utility.yul\":9073:9151   */\n      tag_310\n        /* \"#utility.yul\":9146:9150   */\n      dup2\n        /* \"#utility.yul\":9137:9143   */\n      dup12\n        /* \"#utility.yul\":9073:9151   */\n      tag_160\n      jump\t// in\n    tag_310:\n        /* \"#utility.yul\":9065:9151   */\n      swap1\n      pop\n        /* \"#utility.yul\":9198:9207   */\n      dup2\n        /* \"#utility.yul\":9192:9196   */\n      dup2\n        /* \"#utility.yul\":9188:9208   */\n      sub\n        /* \"#utility.yul\":9183:9185   */\n      0x20\n        /* \"#utility.yul\":9172:9181   */\n      dup4\n        /* \"#utility.yul\":9168:9186   */\n      add\n        /* \"#utility.yul\":9161:9209   */\n      mstore\n        /* \"#utility.yul\":9226:9304   */\n      tag_311\n        /* \"#utility.yul\":9299:9303   */\n      dup2\n        /* \"#utility.yul\":9290:9296   */\n      dup11\n        /* \"#utility.yul\":9226:9304   */\n      tag_160\n      jump\t// in\n    tag_311:\n        /* \"#utility.yul\":9218:9304   */\n      swap1\n      pop\n        /* \"#utility.yul\":9314:9386   */\n      tag_312\n        /* \"#utility.yul\":9382:9384   */\n      0x40\n        /* \"#utility.yul\":9371:9380   */\n      dup4\n        /* \"#utility.yul\":9367:9385   */\n      add\n        /* \"#utility.yul\":9358:9364   */\n      dup10\n        /* \"#utility.yul\":9314:9386   */\n      tag_161\n      jump\t// in\n    tag_312:\n        /* \"#utility.yul\":9396:9468   */\n      tag_313\n        /* \"#utility.yul\":9464:9466   */\n      0x60\n        /* \"#utility.yul\":9453:9462   */\n      dup4\n        /* \"#utility.yul\":9449:9467   */\n      add\n        /* \"#utility.yul\":9440:9446   */\n      dup9\n        /* \"#utility.yul\":9396:9468   */\n      tag_161\n      jump\t// in\n    tag_313:\n        /* \"#utility.yul\":9478:9551   */\n      tag_314\n        /* \"#utility.yul\":9546:9549   */\n      0x80\n        /* \"#utility.yul\":9535:9544   */\n      dup4\n        /* \"#utility.yul\":9531:9550   */\n      add\n        /* \"#utility.yul\":9522:9528   */\n      dup8\n        /* \"#utility.yul\":9478:9551   */\n      tag_162\n      jump\t// in\n    tag_314:\n        /* \"#utility.yul\":9561:9634   */\n      tag_315\n        /* \"#utility.yul\":9629:9632   */\n      0xa0\n        /* \"#utility.yul\":9618:9627   */\n      dup4\n        /* \"#utility.yul\":9614:9633   */\n      add\n        /* \"#utility.yul\":9605:9611   */\n      dup7\n        /* \"#utility.yul\":9561:9634   */\n      tag_162\n      jump\t// in\n    tag_315:\n        /* \"#utility.yul\":9644:9717   */\n      tag_316\n        /* \"#utility.yul\":9712:9715   */\n      0xc0\n        /* \"#utility.yul\":9701:9710   */\n      dup4\n        /* \"#utility.yul\":9697:9716   */\n      add\n        /* \"#utility.yul\":9688:9694   */\n      dup6\n        /* \"#utility.yul\":9644:9717   */\n      tag_162\n      jump\t// in\n    tag_316:\n        /* \"#utility.yul\":9727:9805   */\n      tag_317\n        /* \"#utility.yul\":9800:9803   */\n      0xe0\n        /* \"#utility.yul\":9789:9798   */\n      dup4\n        /* \"#utility.yul\":9785:9804   */\n      add\n        /* \"#utility.yul\":9776:9782   */\n      dup5\n        /* \"#utility.yul\":9727:9805   */\n      tag_166\n      jump\t// in\n    tag_317:\n        /* \"#utility.yul\":8623:9812   */\n      swap10\n      swap9\n      pop\n      pop\n      pop\n      pop\n      pop\n      pop\n      pop\n      pop\n      pop\n      jump\t// out\n        /* \"#utility.yul\":9818:10347   */\n    tag_25:\n        /* \"#utility.yul\":9889:9895   */\n      0x00\n        /* \"#utility.yul\":9897:9903   */\n      dup1\n        /* \"#utility.yul\":9946:9948   */\n      0x20\n        /* \"#utility.yul\":9934:9943   */\n      dup4\n        /* \"#utility.yul\":9925:9932   */\n      dup6\n        /* \"#utility.yul\":9921:9944   */\n      sub\n        /* \"#utility.yul\":9917:9949   */\n      slt\n        /* \"#utility.yul\":9914:10033   */\n      iszero\n      tag_319\n      jumpi\n        /* \"#utility.yul\":9952:10031   */\n      tag_320\n      tag_135\n      jump\t// in\n    tag_320:\n        /* \"#utility.yul\":9914:10033   */\n    tag_319:\n        /* \"#utility.yul\":10100:10101   */\n      0x00\n        /* \"#utility.yul\":10089:10098   */\n      dup4\n        /* \"#utility.yul\":10085:10102   */\n      add\n        /* \"#utility.yul\":10072:10103   */\n      calldataload\n        /* \"#utility.yul\":10130:10148   */\n      0xffffffffffffffff\n        /* \"#utility.yul\":10122:10128   */\n      dup2\n        /* \"#utility.yul\":10119:10149   */\n      gt\n        /* \"#utility.yul\":10116:10233   */\n      iszero\n      tag_321\n      jumpi\n        /* \"#utility.yul\":10152:10231   */\n      tag_322\n      tag_136\n      jump\t// in\n    tag_322:\n        /* \"#utility.yul\":10116:10233   */\n    tag_321:\n        /* \"#utility.yul\":10265:10330   */\n      tag_323\n        /* \"#utility.yul\":10322:10329   */\n      dup6\n        /* \"#utility.yul\":10313:10319   */\n      dup3\n        /* \"#utility.yul\":10302:10311   */\n      dup7\n        /* \"#utility.yul\":10298:10320   */\n      add\n        /* \"#utility.yul\":10265:10330   */\n      tag_140\n      jump\t// in\n    tag_323:\n        /* \"#utility.yul\":10247:10330   */\n      swap3\n      pop\n      swap3\n      pop\n        /* \"#utility.yul\":10043:10340   */\n      pop\n        /* \"#utility.yul\":9818:10347   */\n      swap3\n      pop\n      swap3\n      swap1\n      pop\n      jump\t// out\n        /* \"#utility.yul\":10353:10512   */\n    tag_167:\n        /* \"#utility.yul\":10427:10438   */\n      0x00\n        /* \"#utility.yul\":10461:10467   */\n      dup3\n        /* \"#utility.yul\":10456:10459   */\n      dup3\n        /* \"#utility.yul\":10449:10468   */\n      mstore\n        /* \"#utility.yul\":10501:10505   */\n      0x20\n        /* \"#utility.yul\":10496:10499   */\n      dup3\n        /* \"#utility.yul\":10492:10506   */\n      add\n        /* \"#utility.yul\":10477:10506   */\n      swap1\n      pop\n        /* \"#utility.yul\":10353:10512   */\n      swap3\n      swap2\n      pop\n      pop\n      jump\t// out\n        /* \"#utility.yul\":10518:10875   */\n    tag_168:\n        /* \"#utility.yul\":10596:10599   */\n      0x00\n        /* \"#utility.yul\":10624:10663   */\n      tag_326\n        /* \"#utility.yul\":10657:10662   */\n      dup3\n        /* \"#utility.yul\":10624:10663   */\n      tag_157\n      jump\t// in\n    tag_326:\n        /* \"#utility.yul\":10679:10740   */\n      tag_327\n        /* \"#utility.yul\":10733:10739   */\n      dup2\n        /* \"#utility.yul\":10728:10731   */\n      dup6\n        /* \"#utility.yul\":10679:10740   */\n      tag_167\n      jump\t// in\n    tag_327:\n        /* \"#utility.yul\":10672:10740   */\n      swap4\n      pop\n        /* \"#utility.yul\":10749:10814   */\n      tag_328\n        /* \"#utility.yul\":10807:10813   */\n      dup2\n        /* \"#utility.yul\":10802:10805   */\n      dup6\n        /* \"#utility.yul\":10795:10799   */\n      0x20\n        /* \"#utility.yul\":10788:10793   */\n      dup7\n        /* \"#utility.yul\":10784:10800   */\n      add\n        /* \"#utility.yul\":10749:10814   */\n      tag_159\n      jump\t// in\n    tag_328:\n        /* \"#utility.yul\":10839:10868   */\n      tag_329\n        /* \"#utility.yul\":10861:10867   */\n      dup2\n        /* \"#utility.yul\":10839:10868   */\n      tag_149\n      jump\t// in\n    tag_329:\n        /* \"#utility.yul\":10834:10837   */\n      dup5\n        /* \"#utility.yul\":10830:10869   */\n      add\n        /* \"#utility.yul\":10823:10869   */\n      swap2\n      pop\n        /* \"#utility.yul\":10600:10875   */\n      pop\n        /* \"#utility.yul\":10518:10875   */\n      swap3\n      swap2\n      pop\n      pop\n      jump\t// out\n        /* \"#utility.yul\":10881:10989   */\n    tag_169:\n        /* \"#utility.yul\":10958:10982   */\n      tag_331\n        /* \"#utility.yul\":10976:10981   */\n      dup2\n        /* \"#utility.yul\":10958:10982   */\n      tag_141\n      jump\t// in\n    tag_331:\n        /* \"#utility.yul\":10953:10956   */\n      dup3\n        /* \"#utility.yul\":10946:10983   */\n      mstore\n        /* \"#utility.yul\":10881:10989   */\n      pop\n      pop\n      jump\t// out\n        /* \"#utility.yul\":10995:11103   */\n    tag_170:\n        /* \"#utility.yul\":11072:11096   */\n      tag_333\n        /* \"#utility.yul\":11090:11095   */\n      dup2\n        /* \"#utility.yul\":11072:11096   */\n      tag_145\n      jump\t// in\n    tag_333:\n        /* \"#utility.yul\":11067:11070   */\n      dup3\n        /* \"#utility.yul\":11060:11097   */\n      mstore\n        /* \"#utility.yul\":10995:11103   */\n      pop\n      pop\n      jump\t// out\n        /* \"#utility.yul\":11109:11240   */\n    tag_171:\n        /* \"#utility.yul\":11191:11233   */\n      tag_335\n        /* \"#utility.yul\":11227:11232   */\n      dup2\n        /* \"#utility.yul\":11191:11233   */\n      tag_165\n      jump\t// in\n    tag_335:\n        /* \"#utility.yul\":11186:11189   */\n      dup3\n        /* \"#utility.yul\":11179:11234   */\n      mstore\n        /* \"#utility.yul\":11109:11240   */\n      pop\n      pop\n      jump\t// out\n        /* \"#utility.yul\":11306:13059   */\n    tag_172:\n        /* \"#utility.yul\":11417:11420   */\n      0x00\n        /* \"#utility.yul\":11453:11459   */\n      0x0100\n        /* \"#utility.yul\":11448:11451   */\n      dup4\n        /* \"#utility.yul\":11444:11460   */\n      add\n        /* \"#utility.yul\":11546:11550   */\n      0x00\n        /* \"#utility.yul\":11539:11544   */\n      dup4\n        /* \"#utility.yul\":11535:11551   */\n      add\n        /* \"#utility.yul\":11529:11552   */\n      mload\n        /* \"#utility.yul\":11599:11602   */\n      dup5\n        /* \"#utility.yul\":11593:11597   */\n      dup3\n        /* \"#utility.yul\":11589:11603   */\n      sub\n        /* \"#utility.yul\":11582:11586   */\n      0x00\n        /* \"#utility.yul\":11577:11580   */\n      dup7\n        /* \"#utility.yul\":11573:11587   */\n      add\n        /* \"#utility.yul\":11566:11604   */\n      mstore\n        /* \"#utility.yul\":11625:11698   */\n      tag_337\n        /* \"#utility.yul\":11693:11697   */\n      dup3\n        /* \"#utility.yul\":11679:11691   */\n      dup3\n        /* \"#utility.yul\":11625:11698   */\n      tag_168\n      jump\t// in\n    tag_337:\n        /* \"#utility.yul\":11617:11698   */\n      swap2\n      pop\n        /* \"#utility.yul\":11470:11709   */\n      pop\n        /* \"#utility.yul\":11794:11798   */\n      0x20\n        /* \"#utility.yul\":11787:11792   */\n      dup4\n        /* \"#utility.yul\":11783:11799   */\n      add\n        /* \"#utility.yul\":11777:11800   */\n      mload\n        /* \"#utility.yul\":11847:11850   */\n      dup5\n        /* \"#utility.yul\":11841:11845   */\n      dup3\n        /* \"#utility.yul\":11837:11851   */\n      sub\n        /* \"#utility.yul\":11830:11834   */\n      0x20\n        /* \"#utility.yul\":11825:11828   */\n      dup7\n        /* \"#utility.yul\":11821:11835   */\n      add\n        /* \"#utility.yul\":11814:11852   */\n      mstore\n        /* \"#utility.yul\":11873:11946   */\n      tag_338\n        /* \"#utility.yul\":11941:11945   */\n      dup3\n        /* \"#utility.yul\":11927:11939   */\n      dup3\n        /* \"#utility.yul\":11873:11946   */\n      tag_168\n      jump\t// in\n    tag_338:\n        /* \"#utility.yul\":11865:11946   */\n      swap2\n      pop\n        /* \"#utility.yul\":11719:11957   */\n      pop\n        /* \"#utility.yul\":12042:12046   */\n      0x40\n        /* \"#utility.yul\":12035:12040   */\n      dup4\n        /* \"#utility.yul\":12031:12047   */\n      add\n        /* \"#utility.yul\":12025:12048   */\n      mload\n        /* \"#utility.yul\":12061:12124   */\n      tag_339\n        /* \"#utility.yul\":12118:12122   */\n      0x40\n        /* \"#utility.yul\":12113:12116   */\n      dup7\n        /* \"#utility.yul\":12109:12123   */\n      add\n        /* \"#utility.yul\":12095:12107   */\n      dup3\n        /* \"#utility.yul\":12061:12124   */\n      tag_169\n      jump\t// in\n    tag_339:\n        /* \"#utility.yul\":11967:12134   */\n      pop\n        /* \"#utility.yul\":12219:12223   */\n      0x60\n        /* \"#utility.yul\":12212:12217   */\n      dup4\n        /* \"#utility.yul\":12208:12224   */\n      add\n        /* \"#utility.yul\":12202:12225   */\n      mload\n        /* \"#utility.yul\":12238:12301   */\n      tag_340\n        /* \"#utility.yul\":12295:12299   */\n      0x60\n        /* \"#utility.yul\":12290:12293   */\n      dup7\n        /* \"#utility.yul\":12286:12300   */\n      add\n        /* \"#utility.yul\":12272:12284   */\n      dup3\n        /* \"#utility.yul\":12238:12301   */\n      tag_169\n      jump\t// in\n    tag_340:\n        /* \"#utility.yul\":12144:12311   */\n      pop\n        /* \"#utility.yul\":12401:12405   */\n      0x80\n        /* \"#utility.yul\":12394:12399   */\n      dup4\n        /* \"#utility.yul\":12390:12406   */\n      add\n        /* \"#utility.yul\":12384:12407   */\n      mload\n        /* \"#utility.yul\":12420:12483   */\n      tag_341\n        /* \"#utility.yul\":12477:12481   */\n      0x80\n        /* \"#utility.yul\":12472:12475   */\n      dup7\n        /* \"#utility.yul\":12468:12482   */\n      add\n        /* \"#utility.yul\":12454:12466   */\n      dup3\n        /* \"#utility.yul\":12420:12483   */\n      tag_170\n      jump\t// in\n    tag_341:\n        /* \"#utility.yul\":12321:12493   */\n      pop\n        /* \"#utility.yul\":12582:12586   */\n      0xa0\n        /* \"#utility.yul\":12575:12580   */\n      dup4\n        /* \"#utility.yul\":12571:12587   */\n      add\n        /* \"#utility.yul\":12565:12588   */\n      mload\n        /* \"#utility.yul\":12601:12664   */\n      tag_342\n        /* \"#utility.yul\":12658:12662   */\n      0xa0\n        /* \"#utility.yul\":12653:12656   */\n      dup7\n        /* \"#utility.yul\":12649:12663   */\n      add\n        /* \"#utility.yul\":12635:12647   */\n      dup3\n        /* \"#utility.yul\":12601:12664   */\n      tag_170\n      jump\t// in\n    tag_342:\n        /* \"#utility.yul\":12503:12674   */\n      pop\n        /* \"#utility.yul\":12760:12764   */\n      0xc0\n        /* \"#utility.yul\":12753:12758   */\n      dup4\n        /* \"#utility.yul\":12749:12765   */\n      add\n        /* \"#utility.yul\":12743:12766   */\n      mload\n        /* \"#utility.yul\":12779:12842   */\n      tag_343\n        /* \"#utility.yul\":12836:12840   */\n      0xc0\n        /* \"#utility.yul\":12831:12834   */\n      dup7\n        /* \"#utility.yul\":12827:12841   */\n      add\n        /* \"#utility.yul\":12813:12825   */\n      dup3\n        /* \"#utility.yul\":12779:12842   */\n      tag_170\n      jump\t// in\n    tag_343:\n        /* \"#utility.yul\":12684:12852   */\n      pop\n        /* \"#utility.yul\":12935:12939   */\n      0xe0\n        /* \"#utility.yul\":12928:12933   */\n      dup4\n        /* \"#utility.yul\":12924:12940   */\n      add\n        /* \"#utility.yul\":12918:12941   */\n      mload\n        /* \"#utility.yul\":12954:13022   */\n      tag_344\n        /* \"#utility.yul\":13016:13020   */\n      0xe0\n        /* \"#utility.yul\":13011:13014   */\n      dup7\n        /* \"#utility.yul\":13007:13021   */\n      add\n        /* \"#utility.yul\":12993:13005   */\n      dup3\n        /* \"#utility.yul\":12954:13022   */\n      tag_171\n      jump\t// in\n    tag_344:\n        /* \"#utility.yul\":12862:13032   */\n      pop\n        /* \"#utility.yul\":13049:13053   */\n      dup1\n        /* \"#utility.yul\":13042:13053   */\n      swap2\n      pop\n        /* \"#utility.yul\":11422:13059   */\n      pop\n        /* \"#utility.yul\":11306:13059   */\n      swap3\n      swap2\n      pop\n      pop\n      jump\t// out\n        /* \"#utility.yul\":13065:13422   */\n    tag_34:\n        /* \"#utility.yul\":13200:13204   */\n      0x00\n        /* \"#utility.yul\":13238:13240   */\n      0x20\n        /* \"#utility.yul\":13227:13236   */\n      dup3\n        /* \"#utility.yul\":13223:13241   */\n      add\n        /* \"#utility.yul\":13215:13241   */\n      swap1\n      pop\n        /* \"#utility.yul\":13287:13296   */\n      dup2\n        /* \"#utility.yul\":13281:13285   */\n      dup2\n        /* \"#utility.yul\":13277:13297   */\n      sub\n        /* \"#utility.yul\":13273:13274   */\n      0x00\n        /* \"#utility.yul\":13262:13271   */\n      dup4\n        /* \"#utility.yul\":13258:13275   */\n      add\n        /* \"#utility.yul\":13251:13298   */\n      mstore\n        /* \"#utility.yul\":13315:13415   */\n      tag_346\n        /* \"#utility.yul\":13410:13414   */\n      dup2\n        /* \"#utility.yul\":13401:13407   */\n      dup5\n        /* \"#utility.yul\":13315:13415   */\n      tag_172\n      jump\t// in\n    tag_346:\n        /* \"#utility.yul\":13307:13415   */\n      swap1\n      pop\n        /* \"#utility.yul\":13065:13422   */\n      swap3\n      swap2\n      pop\n      pop\n      jump\t// out\n        /* \"#utility.yul\":13428:13576   */\n    tag_173:\n        /* \"#utility.yul\":13530:13541   */\n      0x00\n        /* \"#utility.yul\":13567:13570   */\n      dup2\n        /* \"#utility.yul\":13552:13570   */\n      swap1\n      pop\n        /* \"#utility.yul\":13428:13576   */\n      swap3\n      swap2\n      pop\n      pop\n      jump\t// out\n        /* \"#utility.yul\":13606:13936   */\n    tag_174:\n        /* \"#utility.yul\":13722:13725   */\n      0x00\n        /* \"#utility.yul\":13743:13832   */\n      tag_349\n        /* \"#utility.yul\":13825:13831   */\n      dup4\n        /* \"#utility.yul\":13820:13823   */\n      dup6\n        /* \"#utility.yul\":13743:13832   */\n      tag_173\n      jump\t// in\n    tag_349:\n        /* \"#utility.yul\":13736:13832   */\n      swap4\n      pop\n        /* \"#utility.yul\":13842:13898   */\n      tag_350\n        /* \"#utility.yul\":13891:13897   */\n      dup4\n        /* \"#utility.yul\":13886:13889   */\n      dup6\n        /* \"#utility.yul\":13879:13884   */\n      dup5\n        /* \"#utility.yul\":13842:13898   */\n      tag_154\n      jump\t// in\n    tag_350:\n        /* \"#utility.yul\":13923:13929   */\n      dup3\n        /* \"#utility.yul\":13918:13921   */\n      dup5\n        /* \"#utility.yul\":13914:13930   */\n      add\n        /* \"#utility.yul\":13907:13930   */\n      swap1\n      pop\n        /* \"#utility.yul\":13606:13936   */\n      swap4\n      swap3\n      pop\n      pop\n      pop\n      jump\t// out\n        /* \"#utility.yul\":13942:14237   */\n    tag_37:\n        /* \"#utility.yul\":14084:14087   */\n      0x00\n        /* \"#utility.yul\":14106:14211   */\n      tag_352\n        /* \"#utility.yul\":14207:14210   */\n      dup3\n        /* \"#utility.yul\":14198:14204   */\n      dup5\n        /* \"#utility.yul\":14190:14196   */\n      dup7\n        /* \"#utility.yul\":14106:14211   */\n      tag_174\n      jump\t// in\n    tag_352:\n        /* \"#utility.yul\":14099:14211   */\n      swap2\n      pop\n        /* \"#utility.yul\":14228:14231   */\n      dup2\n        /* \"#utility.yul\":14221:14231   */\n      swap1\n      pop\n        /* \"#utility.yul\":13942:14237   */\n      swap4\n      swap3\n      pop\n      pop\n      pop\n      jump\t// out\n        /* \"#utility.yul\":14243:14399   */\n    tag_175:\n        /* \"#utility.yul\":14383:14391   */\n      0x6578697374730000000000000000000000000000000000000000000000000000\n        /* \"#utility.yul\":14379:14380   */\n      0x00\n        /* \"#utility.yul\":14371:14377   */\n      dup3\n        /* \"#utility.yul\":14367:14381   */\n      add\n        /* \"#utility.yul\":14360:14392   */\n      mstore\n        /* \"#utility.yul\":14243:14399   */\n      pop\n      jump\t// out\n        /* \"#utility.yul\":14405:14770   */\n    tag_176:\n        /* \"#utility.yul\":14547:14550   */\n      0x00\n        /* \"#utility.yul\":14568:14634   */\n      tag_355\n        /* \"#utility.yul\":14632:14633   */\n      0x06\n        /* \"#utility.yul\":14627:14630   */\n      dup4\n        /* \"#utility.yul\":14568:14634   */\n      tag_158\n      jump\t// in\n    tag_355:\n        /* \"#utility.yul\":14561:14634   */\n      swap2\n      pop\n        /* \"#utility.yul\":14643:14736   */\n      tag_356\n        /* \"#utility.yul\":14732:14735   */\n      dup3\n        /* \"#utility.yul\":14643:14736   */\n      tag_175\n      jump\t// in\n    tag_356:\n        /* \"#utility.yul\":14761:14763   */\n      0x20\n        /* \"#utility.yul\":14756:14759   */\n      dup3\n        /* \"#utility.yul\":14752:14764   */\n      add\n        /* \"#utility.yul\":14745:14764   */\n      swap1\n      pop\n        /* \"#utility.yul\":14405:14770   */\n      swap2\n      swap1\n      pop\n      jump\t// out\n        /* \"#utility.yul\":14776:15195   */\n    tag_40:\n        /* \"#utility.yul\":14942:14946   */\n      0x00\n        /* \"#utility.yul\":14980:14982   */\n      0x20\n        /* \"#utility.yul\":14969:14978   */\n      dup3\n        /* \"#utility.yul\":14965:14983   */\n      add\n        /* \"#utility.yul\":14957:14983   */\n      swap1\n      pop\n        /* \"#utility.yul\":15029:15038   */\n      dup2\n        /* \"#utility.yul\":15023:15027   */\n      dup2\n        /* \"#utility.yul\":15019:15039   */\n      sub\n        /* \"#utility.yul\":15015:15016   */\n      0x00\n        /* \"#utility.yul\":15004:15013   */\n      dup4\n        /* \"#utility.yul\":15000:15017   */\n      add\n        /* \"#utility.yul\":14993:15040   */\n      mstore\n        /* \"#utility.yul\":15057:15188   */\n      tag_358\n        /* \"#utility.yul\":15183:15187   */\n      dup2\n        /* \"#utility.yul\":15057:15188   */\n      tag_176\n      jump\t// in\n    tag_358:\n        /* \"#utility.yul\":15049:15188   */\n      swap1\n      pop\n        /* \"#utility.yul\":14776:15195   */\n      swap2\n      swap1\n      pop\n      jump\t// out\n        /* \"#utility.yul\":15201:15360   */\n    tag_177:\n        /* \"#utility.yul\":15341:15352   */\n      0x6261642064617465730000000000000000000000000000000000000000000000\n        /* \"#utility.yul\":15337:15338   */\n      0x00\n        /* \"#utility.yul\":15329:15335   */\n      dup3\n        /* \"#utility.yul\":15325:15339   */\n      add\n        /* \"#utility.yul\":15318:15353   */\n      mstore\n        /* \"#utility.yul\":15201:15360   */\n      pop\n      jump\t// out\n        /* \"#utility.yul\":15366:15731   */\n    tag_178:\n        /* \"#utility.yul\":15508:15511   */\n      0x00\n        /* \"#utility.yul\":15529:15595   */\n      tag_361\n        /* \"#utility.yul\":15593:15594   */\n      0x09\n        /* \"#utility.yul\":15588:15591   */\n      dup4\n        /* \"#utility.yul\":15529:15595   */\n      tag_158\n      jump\t// in\n    tag_361:\n        /* \"#utility.yul\":15522:15595   */\n      swap2\n      pop\n        /* \"#utility.yul\":15604:15697   */\n      tag_362\n        /* \"#utility.yul\":15693:15696   */\n      dup3\n        /* \"#utility.yul\":15604:15697   */\n      tag_177\n      jump\t// in\n    tag_362:\n        /* \"#utility.yul\":15722:15724   */\n      0x20\n        /* \"#utility.yul\":15717:15720   */\n      dup3\n        /* \"#utility.yul\":15713:15725   */\n      add\n        /* \"#utility.yul\":15706:15725   */\n      swap1\n      pop\n        /* \"#utility.yul\":15366:15731   */\n      swap2\n      swap1\n      pop\n      jump\t// out\n        /* \"#utility.yul\":15737:16156   */\n    tag_43:\n        /* \"#utility.yul\":15903:15907   */\n      0x00\n        /* \"#utility.yul\":15941:15943   */\n      0x20\n        /* \"#utility.yul\":15930:15939   */\n      dup3\n        /* \"#utility.yul\":15926:15944   */\n      add\n        /* \"#utility.yul\":15918:15944   */\n      swap1\n      pop\n        /* \"#utility.yul\":15990:15999   */\n      dup2\n        /* \"#utility.yul\":15984:15988   */\n      dup2\n        /* \"#utility.yul\":15980:16000   */\n      sub\n        /* \"#utility.yul\":15976:15977   */\n      0x00\n        /* \"#utility.yul\":15965:15974   */\n      dup4\n        /* \"#utility.yul\":15961:15978   */\n      add\n        /* \"#utility.yul\":15954:16001   */\n      mstore\n        /* \"#utility.yul\":16018:16149   */\n      tag_364\n        /* \"#utility.yul\":16144:16148   */\n      dup2\n        /* \"#utility.yul\":16018:16149   */\n      tag_178\n      jump\t// in\n    tag_364:\n        /* \"#utility.yul\":16010:16149   */\n      swap1\n      pop\n        /* \"#utility.yul\":15737:16156   */\n      swap2\n      swap1\n      pop\n      jump\t// out\n        /* \"#utility.yul\":16162:16342   */\n    tag_179:\n        /* \"#utility.yul\":16210:16287   */\n      0x4e487b7100000000000000000000000000000000000000000000000000000000\n        /* \"#utility.yul\":16207:16208   */\n      0x00\n        /* \"#utility.yul\":16200:16288   */\n      mstore\n        /* \"#utility.yul\":16307:16311   */\n      0x22\n        /* \"#utility.yul\":16304:16305   */\n      0x04\n        /* \"#utility.yul\":16297:16312   */\n      mstore\n        /* \"#utility.yul\":16331:16335   */\n      0x24\n        /* \"#utility.yul\":16328:16329   */\n      0x00\n        /* \"#utility.yul\":16321:16336   */\n      revert\n        /* \"#utility.yul\":16348:16668   */\n    tag_72:\n        /* \"#utility.yul\":16392:16398   */\n      0x00\n        /* \"#utility.yul\":16429:16430   */\n      0x02\n        /* \"#utility.yul\":16423:16427   */\n      dup3\n        /* \"#utility.yul\":16419:16431   */\n      div\n        /* \"#utility.yul\":16409:16431   */\n      swap1\n      pop\n        /* \"#utility.yul\":16476:16477   */\n      0x01\n        /* \"#utility.yul\":16470:16474   */\n      dup3\n        /* \"#utility.yul\":16466:16478   */\n      and\n        /* \"#utility.yul\":16497:16515   */\n      dup1\n        /* \"#utility.yul\":16487:16568   */\n      tag_367\n      jumpi\n        /* \"#utility.yul\":16553:16557   */\n      0x7f\n        /* \"#utility.yul\":16545:16551   */\n      dup3\n        /* \"#utility.yul\":16541:16558   */\n      and\n        /* \"#utility.yul\":16531:16558   */\n      swap2\n      pop\n        /* \"#utility.yul\":16487:16568   */\n    tag_367:\n        /* \"#utility.yul\":16615:16617   */\n      0x20\n        /* \"#utility.yul\":16607:16613   */\n      dup3\n        /* \"#utility.yul\":16604:16618   */\n      lt\n        /* \"#utility.yul\":16584:16602   */\n      dup2\n        /* \"#utility.yul\":16581:16619   */\n      sub\n        /* \"#utility.yul\":16578:16662   */\n      tag_368\n      jumpi\n        /* \"#utility.yul\":16634:16652   */\n      tag_369\n      tag_179\n      jump\t// in\n    tag_369:\n        /* \"#utility.yul\":16578:16662   */\n    tag_368:\n        /* \"#utility.yul\":16399:16668   */\n      pop\n        /* \"#utility.yul\":16348:16668   */\n      swap2\n      swap1\n      pop\n      jump\t// out\n        /* \"#utility.yul\":16674:16815   */\n    tag_180:\n        /* \"#utility.yul\":16723:16727   */\n      0x00\n        /* \"#utility.yul\":16746:16749   */\n      dup2\n        /* \"#utility.yul\":16738:16749   */\n      swap1\n      pop\n        /* \"#utility.yul\":16769:16772   */\n      dup2\n        /* \"#utility.yul\":16766:16767   */\n      0x00\n        /* \"#utility.yul\":16759:16773   */\n      mstore\n        /* \"#utility.yul\":16803:16807   */\n      0x20\n        /* \"#utility.yul\":16800:16801   */\n      0x00\n        /* \"#utility.yul\":16790:16808   */\n      keccak256\n        /* \"#utility.yul\":16782:16808   */\n      swap1\n      pop\n        /* \"#utility.yul\":16674:16815   */\n      swap2\n      swap1\n      pop\n      jump\t// out\n        /* \"#utility.yul\":16821:16914   */\n    tag_181:\n        /* \"#utility.yul\":16858:16864   */\n      0x00\n        /* \"#utility.yul\":16905:16907   */\n      0x20\n        /* \"#utility.yul\":16900:16902   */\n      0x1f\n        /* \"#utility.yul\":16893:16898   */\n      dup4\n        /* \"#utility.yul\":16889:16903   */\n      add\n        /* \"#utility.yul\":16885:16908   */\n      div\n        /* \"#utility.yul\":16875:16908   */\n      swap1\n      pop\n        /* \"#utility.yul\":16821:16914   */\n      swap2\n      swap1\n      pop\n      jump\t// out\n        /* \"#utility.yul\":16920:17027   */\n    tag_182:\n        /* \"#utility.yul\":16964:16972   */\n      0x00\n        /* \"#utility.yul\":17014:17019   */\n      dup3\n        /* \"#utility.yul\":17008:17012   */\n      dup3\n        /* \"#utility.yul\":17004:17020   */\n      shl\n        /* \"#utility.yul\":16983:17020   */\n      swap1\n      pop\n        /* \"#utility.yul\":16920:17027   */\n      swap3\n      swap2\n      pop\n      pop\n      jump\t// out\n        /* \"#utility.yul\":17033:17426   */\n    tag_183:\n        /* \"#utility.yul\":17102:17108   */\n      0x00\n        /* \"#utility.yul\":17152:17153   */\n      0x08\n        /* \"#utility.yul\":17140:17150   */\n      dup4\n        /* \"#utility.yul\":17136:17154   */\n      mul\n        /* \"#utility.yul\":17175:17272   */\n      tag_374\n        /* \"#utility.yul\":17205:17271   */\n      0xffffffffffffffffffffffffffffffffffffffffffffffffffffffffffffffff\n        /* \"#utility.yul\":17194:17203   */\n      dup3\n        /* \"#utility.yul\":17175:17272   */\n      tag_182\n      jump\t// in\n    tag_374:\n        /* \"#utility.yul\":17293:17332   */\n      tag_375\n        /* \"#utility.yul\":17323:17331   */\n      dup7\n        /* \"#utility.yul\":17312:17321   */\n      dup4\n        /* \"#utility.yul\":17293:17332   */\n      tag_182\n      jump\t// in\n    tag_375:\n        /* \"#utility.yul\":17281:17332   */\n      swap6\n      pop\n        /* \"#utility.yul\":17365:17369   */\n      dup1\n        /* \"#utility.yul\":17361:17370   */\n      not\n        /* \"#utility.yul\":17354:17359   */\n      dup5\n        /* \"#utility.yul\":17350:17371   */\n      and\n        /* \"#utility.yul\":17341:17371   */\n      swap4\n      pop\n        /* \"#utility.yul\":17414:17418   */\n      dup1\n        /* \"#utility.yul\":17404:17412   */\n      dup7\n        /* \"#utility.yul\":17400:17419   */\n      and\n        /* \"#utility.yul\":17393:17398   */\n      dup5\n        /* \"#utility.yul\":17390:17420   */\n      or\n        /* \"#utility.yul\":17380:17420   */\n      swap3\n      pop\n        /* \"#utility.yul\":17109:17426   */\n      pop\n      pop\n        /* \"#utility.yul\":17033:17426   */\n      swap4\n      swap3\n      pop\n      pop\n      pop\n      jump\t// out\n        /* \"#utility.yul\":17432:17492   */\n    tag_184:\n        /* \"#utility.yul\":17460:17463   */\n      0x00\n        /* \"#utility.yul\":17481:17486   */\n      dup2\n        /* \"#utility.yul\":17474:17486   */\n      swap1\n      pop\n        /* \"#utility.yul\":17432:17492   */\n      swap2\n      swap1\n      pop\n      jump\t// out\n        /* \"#utility.yul\":17498:17640   */\n    tag_185:\n        /* \"#utility.yul\":17548:17557   */\n      0x00\n        /* \"#utility.yul\":17581:17634   */\n      tag_378\n        /* \"#utility.yul\":17599:17633   */\n      tag_379\n        /* \"#utility.yul\":17608:17632   */\n      tag_380\n        /* \"#utility.yul\":17626:17631   */\n      dup5\n        /* \"#utility.yul\":17608:17632   */\n      tag_141\n      jump\t// in\n    tag_380:\n        /* \"#utility.yul\":17599:17633   */\n      tag_184\n      jump\t// in\n    tag_379:\n        /* \"#utility.yul\":17581:17634   */\n      tag_141\n      jump\t// in\n    tag_378:\n        /* \"#utility.yul\":17568:17634   */\n      swap1\n      pop\n        /* \"#utility.yul\":17498:17640   */\n      swap2\n      swap1\n      pop\n      jump\t// out\n        /* \"#utility.yul\":17646:17721   */\n    tag_186:\n        /* \"#utility.yul\":17689:17692   */\n      0x00\n        /* \"#utility.yul\":17710:17715   */\n      dup2\n        /* \"#utility.yul\":17703:17715   */\n      swap1\n      pop\n        /* \"#utility.yul\":17646:17721   */\n      swap2\n      swap1\n      pop\n      jump\t// out\n        /* \"#utility.yul\":17727:17996   */\n    tag_187:\n        /* \"#utility.yul\":17837:17876   */\n      tag_383\n        /* \"#utility.yul\":17868:17875   */\n      dup4\n        /* \"#utility.yul\":17837:17876   */\n      tag_185\n      jump\t// in\n    tag_383:\n        /* \"#utility.yul\":17898:17989   */\n      tag_384\n        /* \"#utility.yul\":17947:17988   */\n      tag_385\n        /* \"#utility.yul\":17971:17987   */\n      dup3\n        /* \"#utility.yul\":17947:17988   */\n      tag_186\n      jump\t// in\n    tag_385:\n        /* \"#utility.yul\":17939:17945   */\n      dup5\n        /* \"#utility.yul\":17932:17936   */\n      dup5\n        /* \"#utility.yul\":17926:17937   */\n      sload\n        /* \"#utility.yul\":17898:17989   */\n      tag_183\n      jump\t// in\n    tag_384:\n        /* \"#utility.yul\":17892:17896   */\n      dup3\n        /* \"#utility.yul\":17885:17990   */\n      sstore\n        /* \"#utility.yul\":17803:17996   */\n      pop\n        /* \"#utility.yul\":17727:17996   */\n      pop\n      pop\n      pop\n      jump\t// out\n        /* \"#utility.yul\":18002:18075   */\n    tag_188:\n        /* \"#utility.yul\":18047:18050   */\n      0x00\n        /* \"#utility.yul\":18002:18075   */\n      swap1\n      jump\t// out\n        /* \"#utility.yul\":18081:18270   */\n    tag_189:\n        /* \"#utility.yul\":18158:18190   */\n      tag_388\n      tag_188\n      jump\t// in\n    tag_388:\n        /* \"#utility.yul\":18199:18264   */\n      tag_389\n        /* \"#utility.yul\":18257:18263   */\n      dup2\n        /* \"#utility.yul\":18249:18255   */\n      dup5\n        /* \"#utility.yul\":18243:18247   */\n      dup5\n        /* \"#utility.yul\":18199:18264   */\n      tag_187\n      jump\t// in\n    tag_389:\n        /* \"#utility.yul\":18134:18270   */\n      pop\n        /* \"#utility.yul\":18081:18270   */\n      pop\n      pop\n      jump\t// out\n        /* \"#utility.yul\":18276:18462   */\n    tag_190:\n        /* \"#utility.yul\":18336:18456   */\n    tag_391:\n        /* \"#utility.yul\":18353:18356   */\n      dup2\n        /* \"#utility.yul\":18346:18351   */\n      dup2\n        /* \"#utility.yul\":18343:18357   */\n      lt\n        /* \"#utility.yul\":18336:18456   */\n      iszero\n      tag_393\n      jumpi\n        /* \"#utility.yul\":18407:18446   */\n      tag_394\n        /* \"#utility.yul\":18444:18445   */\n      0x00\n        /* \"#utility.yul\":18437:18442   */\n      dup3\n        /* \"#utility.yul\":18407:18446   */\n      tag_189\n      jump\t// in\n    tag_394:\n        /* \"#utility.yul\":18380:18381   */\n      0x01\n        /* \"#utility.yul\":18373:18378   */\n      dup2\n        /* \"#utility.yul\":18369:18382   */\n      add\n        /* \"#utility.yul\":18360:18382   */\n      swap1\n      pop\n        /* \"#utility.yul\":18336:18456   */\n      jump(tag_391)\n    tag_393:\n        /* \"#utility.yul\":18276:18462   */\n      pop\n      pop\n      jump\t// out\n        /* \"#utility.yul\":18468:19011   */\n    tag_191:\n        /* \"#utility.yul\":18569:18571   */\n      0x1f\n        /* \"#utility.yul\":18564:18567   */\n      dup3\n        /* \"#utility.yul\":18561:18572   */\n      gt\n        /* \"#utility.yul\":18558:19004   */\n      iszero\n      tag_396\n      jumpi\n        /* \"#utility.yul\":18603:18641   */\n      tag_397\n        /* \"#utility.yul\":18635:18640   */\n      dup2\n        /* \"#utility.yul\":18603:18641   */\n      tag_180\n      jump\t// in\n    tag_397:\n        /* \"#utility.yul\":18687:18716   */\n      tag_398\n        /* \"#utility.yul\":18705:18715   */\n      dup5\n        /* \"#utility.yul\":18687:18716   */\n      tag_181\n      jump\t// in\n    tag_398:\n        /* \"#utility.yul\":18677:18685   */\n      dup2\n        /* \"#utility.yul\":18673:18717   */\n      add\n        /* \"#utility.yul\":18870:18872   */\n      0x20\n        /* \"#utility.yul\":18858:18868   */\n      dup6\n        /* \"#utility.yul\":18855:18873   */\n      lt\n        /* \"#utility.yul\":18852:18901   */\n      iszero\n      tag_399\n      jumpi\n        /* \"#utility.yul\":18891:18899   */\n      dup2\n        /* \"#utility.yul\":18876:18899   */\n      swap1\n      pop\n        /* \"#utility.yul\":18852:18901   */\n    tag_399:\n        /* \"#utility.yul\":18914:18994   */\n      tag_400\n        /* \"#utility.yul\":18970:18992   */\n      tag_401\n        /* \"#utility.yul\":18988:18991   */\n      dup6\n        /* \"#utility.yul\":18970:18992   */\n      tag_181\n      jump\t// in\n    tag_401:\n        /* \"#utility.yul\":18960:18968   */\n      dup4\n        /* \"#utility.yul\":18956:18993   */\n      add\n        /* \"#utility.yul\":18943:18954   */\n      dup3\n        /* \"#utility.yul\":18914:18994   */\n      tag_190\n      jump\t// in\n    tag_400:\n        /* \"#utility.yul\":18573:19004   */\n      pop\n      pop\n        /* \"#utility.yul\":18558:19004   */\n    tag_396:\n        /* \"#utility.yul\":18468:19011   */\n      pop\n      pop\n      pop\n      jump\t// out\n        /* \"#utility.yul\":19017:19134   */\n    tag_192:\n        /* \"#utility.yul\":19071:19079   */\n      0x00\n        /* \"#utility.yul\":19121:19126   */\n      dup3\n        /* \"#utility.yul\":19115:19119   */\n      dup3\n        /* \"#utility.yul\":19111:19127   */\n      shr\n        /* \"#utility.yul\":19090:19127   */\n      swap1\n      pop\n        /* \"#utility.yul\":19017:19134   */\n      swap3\n      swap2\n      pop\n      pop\n      jump\t// out\n        /* \"#utility.yul\":19140:19309   */\n    tag_193:\n        /* \"#utility.yul\":19184:19190   */\n      0x00\n        /* \"#utility.yul\":19217:19268   */\n      tag_404\n        /* \"#utility.yul\":19265:19266   */\n      0x00\n        /* \"#utility.yul\":19261:19267   */\n      not\n        /* \"#utility.yul\":19253:19258   */\n      dup5\n        /* \"#utility.yul\":19250:19251   */\n      0x08\n        /* \"#utility.yul\":19246:19259   */\n      mul\n        /* \"#utility.yul\":19217:19268   */\n      tag_192\n      jump\t// in\n    tag_404:\n        /* \"#utility.yul\":19213:19269   */\n      not\n        /* \"#utility.yul\":19298:19302   */\n      dup1\n        /* \"#utility.yul\":19292:19296   */\n      dup4\n        /* \"#utility.yul\":19288:19303   */\n      and\n        /* \"#utility.yul\":19278:19303   */\n      swap2\n      pop\n        /* \"#utility.yul\":19191:19309   */\n      pop\n        /* \"#utility.yul\":19140:19309   */\n      swap3\n      swap2\n      pop\n      pop\n      jump\t// out\n        /* \"#utility.yul\":19314:19609   */\n    tag_194:\n        /* \"#utility.yul\":19390:19394   */\n      0x00\n        /* \"#utility.yul\":19536:19565   */\n      tag_406\n        /* \"#utility.yul\":19561:19564   */\n      dup4\n        /* \"#utility.yul\":19555:19559   */\n      dup4\n        /* \"#utility.yul\":19536:19565   */\n      tag_193\n      jump\t// in\n    tag_406:\n        /* \"#utility.yul\":19528:19565   */\n      swap2\n      pop\n        /* \"#utility.yul\":19598:19601   */\n      dup3\n        /* \"#utility.yul\":19595:19596   */\n      0x02\n        /* \"#utility.yul\":19591:19602   */\n      mul\n        /* \"#utility.yul\":19585:19589   */\n      dup3\n        /* \"#utility.yul\":19582:19603   */\n      or\n        /* \"#utility.yul\":19574:19603   */\n      swap1\n      pop\n        /* \"#utility.yul\":19314:19609   */\n      swap3\n      swap2\n      pop\n      pop\n      jump\t// out\n        /* \"#utility.yul\":19614:21009   */\n    tag_49:\n        /* \"#utility.yul\":19731:19768   */\n      tag_408\n        /* \"#utility.yul\":19764:19767   */\n      dup3\n        /* \"#utility.yul\":19731:19768   */\n      tag_157\n      jump\t// in\n    tag_408:\n        /* \"#utility.yul\":19833:19851   */\n      0xffffffffffffffff\n        /* \"#utility.yul\":19825:19831   */\n      dup2\n        /* \"#utility.yul\":19822:19852   */\n      gt\n        /* \"#utility.yul\":19819:19875   */\n      iszero\n      tag_409\n      jumpi\n        /* \"#utility.yul\":19855:19873   */\n      tag_410\n      tag_150\n      jump\t// in\n    tag_410:\n        /* \"#utility.yul\":19819:19875   */\n    tag_409:\n        /* \"#utility.yul\":19899:19937   */\n      tag_411\n        /* \"#utility.yul\":19931:19935   */\n      dup3\n        /* \"#utility.yul\":19925:19936   */\n      sload\n        /* \"#utility.yul\":19899:19937   */\n      tag_72\n      jump\t// in\n    tag_411:\n        /* \"#utility.yul\":19984:20051   */\n      tag_412\n        /* \"#utility.yul\":20044:20050   */\n      dup3\n        /* \"#utility.yul\":20036:20042   */\n      dup3\n        /* \"#utility.yul\":20030:20034   */\n      dup6\n        /* \"#utility.yul\":19984:20051   */\n      tag_191\n      jump\t// in\n    tag_412:\n        /* \"#utility.yul\":20078:20079   */\n      0x00\n        /* \"#utility.yul\":20102:20106   */\n      0x20\n        /* \"#utility.yul\":20089:20106   */\n      swap1\n      pop\n        /* \"#utility.yul\":20134:20136   */\n      0x1f\n        /* \"#utility.yul\":20126:20132   */\n      dup4\n        /* \"#utility.yul\":20123:20137   */\n      gt\n        /* \"#utility.yul\":20151:20152   */\n      0x01\n        /* \"#utility.yul\":20146:20764   */\n      dup2\n      eq\n      tag_414\n      jumpi\n        /* \"#utility.yul\":20808:20809   */\n      0x00\n        /* \"#utility.yul\":20825:20831   */\n      dup5\n        /* \"#utility.yul\":20822:20899   */\n      iszero\n      tag_415\n      jumpi\n        /* \"#utility.yul\":20874:20883   */\n      dup3\n        /* \"#utility.yul\":20869:20872   */\n      dup8\n        /* \"#utility.yul\":20865:20884   */\n      add\n        /* \"#utility.yul\":20859:20885   */\n      mload\n        /* \"#utility.yul\":20850:20885   */\n      swap1\n      pop\n        /* \"#utility.yul\":20822:20899   */\n    tag_415:\n        /* \"#utility.yul\":20925:20992   */\n      tag_416\n        /* \"#utility.yul\":20985:20991   */\n      dup6\n        /* \"#utility.yul\":20978:20983   */\n      dup3\n        /* \"#utility.yul\":20925:20992   */\n      tag_194\n      jump\t// in\n    tag_416:\n        /* \"#utility.yul\":20919:20923   */\n      dup7\n        /* \"#utility.yul\":20912:20993   */\n      sstore\n        /* \"#utility.yul\":20781:21003   */\n      pop\n        /* \"#utility.yul\":20116:21003   */\n      jump(tag_413)\n        /* \"#utility.yul\":20146:20764   */\n    tag_414:\n        /* \"#utility.yul\":20198:20202   */\n      0x1f\n        /* \"#utility.yul\":20194:20203   */\n      not\n        /* \"#utility.yul\":20186:20192   */\n      dup5\n        /* \"#utility.yul\":20182:20204   */\n      and\n        /* \"#utility.yul\":20232:20269   */\n      tag_417\n        /* \"#utility.yul\":20264:20268   */\n      dup7\n        /* \"#utility.yul\":20232:20269   */\n      tag_180\n      jump\t// in\n    tag_417:\n        /* \"#utility.yul\":20291:20292   */\n      0x00\n        /* \"#utility.yul\":20305:20513   */\n    tag_418:\n        /* \"#utility.yul\":20319:20326   */\n      dup3\n        /* \"#utility.yul\":20316:20317   */\n      dup2\n        /* \"#utility.yul\":20313:20327   */\n      lt\n        /* \"#utility.yul\":20305:20513   */\n      iszero\n      tag_420\n      jumpi\n        /* \"#utility.yul\":20398:20407   */\n      dup5\n        /* \"#utility.yul\":20393:20396   */\n      dup10\n        /* \"#utility.yul\":20389:20408   */\n      add\n        /* \"#utility.yul\":20383:20409   */\n      mload\n        /* \"#utility.yul\":20375:20381   */\n      dup3\n        /* \"#utility.yul\":20368:20410   */\n      sstore\n        /* \"#utility.yul\":20449:20450   */\n      0x01\n        /* \"#utility.yul\":20441:20447   */\n      dup3\n        /* \"#utility.yul\":20437:20451   */\n      add\n        /* \"#utility.yul\":20427:20451   */\n      swap2\n      pop\n        /* \"#utility.yul\":20496:20498   */\n      0x20\n        /* \"#utility.yul\":20485:20494   */\n      dup6\n        /* \"#utility.yul\":20481:20499   */\n      add\n        /* \"#utility.yul\":20468:20499   */\n      swap5\n      pop\n        /* \"#utility.yul\":20342:20346   */\n      0x20\n        /* \"#utility.yul\":20339:20340   */\n      dup2\n        /* \"#utility.yul\":20335:20347   */\n      add\n        /* \"#utility.yul\":20330:20347   */\n      swap1\n      pop\n        /* \"#utility.yul\":20305:20513   */\n      jump(tag_418)\n    tag_420:\n        /* \"#utility.yul\":20541:20547   */\n      dup7\n        /* \"#utility.yul\":20532:20539   */\n      dup4\n        /* \"#utility.yul\":20529:20548   */\n      lt\n        /* \"#utility.yul\":20526:20705   */\n      iszero\n      tag_421\n      jumpi\n        /* \"#utility.yul\":20599:20608   */\n      dup5\n        /* \"#utility.yul\":20594:20597   */\n      dup10\n        /* \"#utility.yul\":20590:20609   */\n      add\n        /* \"#utility.yul\":20584:20610   */\n      mload\n        /* \"#utility.yul\":20642:20690   */\n      tag_422\n        /* \"#utility.yul\":20684:20688   */\n      0x1f\n        /* \"#utility.yul\":20676:20682   */\n      dup10\n        /* \"#utility.yul\":20672:20689   */\n      and\n        /* \"#utility.yul\":20661:20670   */\n      dup3\n        /* \"#utility.yul\":20642:20690   */\n      tag_193\n      jump\t// in\n    tag_422:\n        /* \"#utility.yul\":20634:20640   */\n      dup4\n        /* \"#utility.yul\":20627:20691   */\n      sstore\n        /* \"#utility.yul\":20549:20705   */\n      pop\n        /* \"#utility.yul\":20526:20705   */\n    tag_421:\n        /* \"#utility.yul\":20751:20752   */\n      0x01\n        /* \"#utility.yul\":20747:20748   */\n      0x02\n        /* \"#utility.yul\":20739:20745   */\n      dup9\n        /* \"#utility.yul\":20735:20749   */\n      mul\n        /* \"#utility.yul\":20731:20753   */\n      add\n        /* \"#utility.yul\":20725:20729   */\n      dup9\n        /* \"#utility.yul\":20718:20754   */\n      sstore\n        /* \"#utility.yul\":20153:20764   */\n      pop\n      pop\n      pop\n        /* \"#utility.yul\":20116:21003   */\n    tag_413:\n      pop\n        /* \"#utility.yul\":19706:21009   */\n      pop\n      pop\n      pop\n        /* \"#utility.yul\":19614:21009   */\n      pop\n      pop\n      jump\t// out\n        /* \"#utility.yul\":21039:21356   */\n    tag_195:\n        /* \"#utility.yul\":21137:21140   */\n      0x00\n        /* \"#utility.yul\":21158:21229   */\n      tag_424\n        /* \"#utility.yul\":21222:21228   */\n      dup4\n        /* \"#utility.yul\":21217:21220   */\n      dup6\n        /* \"#utility.yul\":21158:21229   */\n      tag_158\n      jump\t// in\n    tag_424:\n        /* \"#utility.yul\":21151:21229   */\n      swap4\n      pop\n        /* \"#utility.yul\":21239:21295   */\n      tag_425\n        /* \"#utility.yul\":21288:21294   */\n      dup4\n        /* \"#utility.yul\":21283:21286   */\n      dup6\n        /* \"#utility.yul\":21276:21281   */\n      dup5\n        /* \"#utility.yul\":21239:21295   */\n      tag_154\n      jump\t// in\n    tag_425:\n        /* \"#utility.yul\":21320:21349   */\n      tag_426\n        /* \"#utility.yul\":21342:21348   */\n      dup4\n        /* \"#utility.yul\":21320:21349   */\n      tag_149\n      jump\t// in\n    tag_426:\n        /* \"#utility.yul\":21315:21318   */\n      dup5\n        /* \"#utility.yul\":21311:21350   */\n      add\n        /* \"#utility.yul\":21304:21350   */\n      swap1\n      pop\n        /* \"#utility.yul\":21039:21356   */\n      swap4\n      swap3\n      pop\n      pop\n      pop\n      jump\t// out\n        /* \"#utility.yul\":21362:22026   */\n    tag_54:\n        /* \"#utility.yul\":21571:21575   */\n      0x00\n        /* \"#utility.yul\":21609:21611   */\n      0x60\n        /* \"#utility.yul\":21598:21607   */\n      dup3\n        /* \"#utility.yul\":21594:21612   */\n      add\n        /* \"#utility.yul\":21586:21612   */\n      swap1\n      pop\n        /* \"#utility.yul\":21658:21667   */\n      dup2\n        /* \"#utility.yul\":21652:21656   */\n      dup2\n        /* \"#utility.yul\":21648:21668   */\n      sub\n        /* \"#utility.yul\":21644:21645   */\n      0x00\n        /* \"#utility.yul\":21633:21642   */\n      dup4\n        /* \"#utility.yul\":21629:21646   */\n      add\n        /* \"#utility.yul\":21622:21669   */\n      mstore\n        /* \"#utility.yul\":21686:21774   */\n      tag_428\n        /* \"#utility.yul\":21769:21773   */\n      dup2\n        /* \"#utility.yul\":21760:21766   */\n      dup8\n        /* \"#utility.yul\":21752:21758   */\n      dup10\n        /* \"#utility.yul\":21686:21774   */\n      tag_195\n      jump\t// in\n    tag_428:\n        /* \"#utility.yul\":21678:21774   */\n      swap1\n      pop\n        /* \"#utility.yul\":21821:21830   */\n      dup2\n        /* \"#utility.yul\":21815:21819   */\n      dup2\n        /* \"#utility.yul\":21811:21831   */\n      sub\n        /* \"#utility.yul\":21806:21808   */\n      0x20\n        /* \"#utility.yul\":21795:21804   */\n      dup4\n        /* \"#utility.yul\":21791:21809   */\n      add\n        /* \"#utility.yul\":21784:21832   */\n      mstore\n        /* \"#utility.yul\":21849:21937   */\n      tag_429\n        /* \"#utility.yul\":21932:21936   */\n      dup2\n        /* \"#utility.yul\":21923:21929   */\n      dup6\n        /* \"#utility.yul\":21915:21921   */\n      dup8\n        /* \"#utility.yul\":21849:21937   */\n      tag_195\n      jump\t// in\n    tag_429:\n        /* \"#utility.yul\":21841:21937   */\n      swap1\n      pop\n        /* \"#utility.yul\":21947:22019   */\n      tag_430\n        /* \"#utility.yul\":22015:22017   */\n      0x40\n        /* \"#utility.yul\":22004:22013   */\n      dup4\n        /* \"#utility.yul\":22000:22018   */\n      add\n        /* \"#utility.yul\":21991:21997   */\n      dup5\n        /* \"#utility.yul\":21947:22019   */\n      tag_162\n      jump\t// in\n    tag_430:\n        /* \"#utility.yul\":21362:22026   */\n      swap7\n      swap6\n      pop\n      pop\n      pop\n      pop\n      pop\n      pop\n      jump\t// out\n        /* \"#utility.yul\":22032:22191   */\n    tag_196:\n        /* \"#utility.yul\":22172:22183   */\n      0x6261642073746174650000000000000000000000000000000000000000000000\n        /* \"#utility.yul\":22168:22169   */\n      0x00\n        /* \"#utility.yul\":22160:22166   */\n      dup3\n        /* \"#utility.yul\":22156:22170   */\n      add\n        /* \"#utility.yul\":22149:22184   */\n      mstore\n        /* \"#utility.yul\":22032:22191   */\n      pop\n      jump\t// out\n        /* \"#utility.yul\":22197:22562   */\n    tag_197:\n        /* \"#utility.yul\":22339:22342   */\n      0x00\n        /* \"#utility.yul\":22360:22426   */\n      tag_433\n        /* \"#utility.yul\":22424:22425   */\n      0x09\n        /* \"#utility.yul\":22419:22422   */\n      dup4\n        /* \"#utility.yul\":22360:22426   */\n      tag_158\n      jump\t// in\n    tag_433:\n        /* \"#utility.yul\":22353:22426   */\n      swap2\n      pop\n        /* \"#utility.yul\":22435:22528   */\n      tag_434\n        /* \"#utility.yul\":22524:22527   */\n      dup3\n        /* \"#utility.yul\":22435:22528   */\n      tag_196\n      jump\t// in\n    tag_434:\n        /* \"#utility.yul\":22553:22555   */\n      0x20\n        /* \"#utility.yul\":22548:22551   */\n      dup3\n        /* \"#utility.yul\":22544:22556   */\n      add\n        /* \"#utility.yul\":22537:22556   */\n      swap1\n      pop\n        /* \"#utility.yul\":22197:22562   */\n      swap2\n      swap1\n      pop\n      jump\t// out\n        /* \"#utility.yul\":22568:22987   */\n    tag_63:\n        /* \"#utility.yul\":22734:22738   */\n      0x00\n        /* \"#utility.yul\":22772:22774   */\n      0x20\n        /* \"#utility.yul\":22761:22770   */\n      dup3\n        /* \"#utility.yul\":22757:22775   */\n      add\n        /* \"#utility.yul\":22749:22775   */\n      swap1\n      pop\n        /* \"#utility.yul\":22821:22830   */\n      dup2\n        /* \"#utility.yul\":22815:22819   */\n      dup2\n        /* \"#utility.yul\":22811:22831   */\n      sub\n        /* \"#utility.yul\":22807:22808   */\n      0x00\n        /* \"#utility.yul\":22796:22805   */\n      dup4\n        /* \"#utility.yul\":22792:22809   */\n      add\n        /* \"#utility.yul\":22785:22832   */\n      mstore\n        /* \"#utility.yul\":22849:22980   */\n      tag_436\n        /* \"#utility.yul\":22975:22979   */\n      dup2\n        /* \"#utility.yul\":22849:22980   */\n      tag_197\n      jump\t// in\n    tag_436:\n        /* \"#utility.yul\":22841:22980   */\n      swap1\n      pop\n        /* \"#utility.yul\":22568:22987   */\n      swap2\n      swap1\n      pop\n      jump\t// out\n        /* \"#utility.yul\":22993:23159   */\n    tag_198:\n        /* \"#utility.yul\":23133:23151   */\n      0x6f6e6c79206469737472696275746f7200000000000000000000000000000000\n        /* \"#utility.yul\":23129:23130   */\n      0x00\n        /* \"#utility.yul\":23121:23127   */\n      dup3\n        /* \"#utility.yul\":23117:23131   */\n      add\n        /* \"#utility.yul\":23110:23152   */\n      mstore\n        /* \"#utility.yul\":22993:23159   */\n      pop\n      jump\t// out\n        /* \"#utility.yul\":23165:23531   */\n    tag_199:\n        /* \"#utility.yul\":23307:23310   */\n      0x00\n        /* \"#utility.yul\":23328:23395   */\n      tag_439\n        /* \"#utility.yul\":23392:23394   */\n      0x10\n        /* \"#utility.yul\":23387:23390   */\n      dup4\n        /* \"#utility.yul\":23328:23395   */\n      tag_158\n      jump\t// in\n    tag_439:\n        /* \"#utility.yul\":23321:23395   */\n      swap2\n      pop\n        /* \"#utility.yul\":23404:23497   */\n      tag_440\n        /* \"#utility.yul\":23493:23496   */\n      dup3\n        /* \"#utility.yul\":23404:23497   */\n      tag_198\n      jump\t// in\n    tag_440:\n        /* \"#utility.yul\":23522:23524   */\n      0x20\n        /* \"#utility.yul\":23517:23520   */\n      dup3\n        /* \"#utility.yul\":23513:23525   */\n      add\n        /* \"#utility.yul\":23506:23525   */\n      swap1\n      pop\n        /* \"#utility.yul\":23165:23531   */\n      swap2\n      swap1\n      pop\n      jump\t// out\n        /* \"#utility.yul\":23537:23956   */\n    tag_66:\n        /* \"#utility.yul\":23703:23707   */\n      0x00\n        /* \"#utility.yul\":23741:23743   */\n      0x20\n        /* \"#utility.yul\":23730:23739   */\n      dup3\n        /* \"#utility.yul\":23726:23744   */\n      add\n        /* \"#utility.yul\":23718:23744   */\n      swap1\n      pop\n        /* \"#utility.yul\":23790:23799   */\n      dup2\n        /* \"#utility.yul\":23784:23788   */\n      dup2\n        /* \"#utility.yul\":23780:23800   */\n      sub\n        /* \"#utility.yul\":23776:23777   */\n      0x00\n        /* \"#utility.yul\":23765:23774   */\n      dup4\n        /* \"#utility.yul\":23761:23778   */\n      add\n        /* \"#utility.yul\":23754:23801   */\n      mstore\n        /* \"#utility.yul\":23818:23949   */\n      tag_442\n        /* \"#utility.yul\":23944:23948   */\n      dup2\n        /* \"#utility.yul\":23818:23949   */\n      tag_199\n      jump\t// in\n    tag_442:\n        /* \"#utility.yul\":23810:23949   */\n      swap1\n      pop\n        /* \"#utility.yul\":23537:23956   */\n      swap2\n      swap1\n      pop\n      jump\t// out\n        /* \"#utility.yul\":23962:24405   */\n    tag_70:\n        /* \"#utility.yul\":24113:24117   */\n      0x00\n        /* \"#utility.yul\":24151:24153   */\n      0x40\n        /* \"#utility.yul\":24140:24149   */\n      dup3\n        /* \"#utility.yul\":24136:24154   */\n      add\n        /* \"#utility.yul\":24128:24154   */\n      swap1\n      pop\n        /* \"#utility.yul\":24200:24209   */\n      dup2\n        /* \"#utility.yul\":24194:24198   */\n      dup2\n        /* \"#utility.yul\":24190:24210   */\n      sub\n        /* \"#utility.yul\":24186:24187   */\n      0x00\n        /* \"#utility.yul\":24175:24184   */\n      dup4\n        /* \"#utility.yul\":24171:24188   */\n      add\n        /* \"#utility.yul\":24164:24211   */\n      mstore\n        /* \"#utility.yul\":24228:24316   */\n      tag_444\n        /* \"#utility.yul\":24311:24315   */\n      dup2\n        /* \"#utility.yul\":24302:24308   */\n      dup6\n        /* \"#utility.yul\":24294:24300   */\n      dup8\n        /* \"#utility.yul\":24228:24316   */\n      tag_195\n      jump\t// in\n    tag_444:\n        /* \"#utility.yul\":24220:24316   */\n      swap1\n      pop\n        /* \"#utility.yul\":24326:24398   */\n      tag_445\n        /* \"#utility.yul\":24394:24396   */\n      0x20\n        /* \"#utility.yul\":24383:24392   */\n      dup4\n        /* \"#utility.yul\":24379:24397   */\n      add\n        /* \"#utility.yul\":24370:24376   */\n      dup5\n        /* \"#utility.yul\":24326:24398   */\n      tag_162\n      jump\t// in\n    tag_445:\n        /* \"#utility.yul\":23962:24405   */\n      swap5\n      swap4\n      pop\n      pop\n      pop\n      pop\n      jump\t// out\n        /* \"#utility.yul\":24411:24574   */\n    tag_200:\n        /* \"#utility.yul\":24551:24566   */\n      0x6f6e6c7920706861726d61637900000000000000000000000000000000000000\n        /* \"#utility.yul\":24547:24548   */\n      0x00\n        /* \"#utility.yul\":24539:24545   */\n      dup3\n        /* \"#utility.yul\":24535:24549   */\n      add\n        /* \"#utility.yul\":24528:24567   */\n      mstore\n        /* \"#utility.yul\":24411:24574   */\n      pop\n      jump\t// out\n        /* \"#utility.yul\":24580:24946   */\n    tag_201:\n        /* \"#utility.yul\":24722:24725   */\n      0x00\n        /* \"#utility.yul\":24743:24810   */\n      tag_448\n        /* \"#utility.yul\":24807:24809   */\n      0x0d\n        /* \"#utility.yul\":24802:24805   */\n      dup4\n        /* \"#utility.yul\":24743:24810   */\n      tag_158\n      jump\t// in\n    tag_448:\n        /* \"#utility.yul\":24736:24810   */\n      swap2\n      pop\n        /* \"#utility.yul\":24819:24912   */\n      tag_449\n        /* \"#utility.yul\":24908:24911   */\n      dup3\n        /* \"#utility.yul\":24819:24912   */\n      tag_200\n      jump\t// in\n    tag_449:\n        /* \"#utility.yul\":24937:24939   */\n      0x20\n        /* \"#utility.yul\":24932:24935   */\n      dup3\n        /* \"#utility.yul\":24928:24940   */\n      add\n        /* \"#utility.yul\":24921:24940   */\n      swap1\n      pop\n        /* \"#utility.yul\":24580:24946   */\n      swap2\n      swap1\n      pop\n      jump\t// out\n        /* \"#utility.yul\":24952:25371   */\n    tag_92:\n        /* \"#utility.yul\":25118:25122   */\n      0x00\n        /* \"#utility.yul\":25156:25158   */\n      0x20\n        /* \"#utility.yul\":25145:25154   */\n      dup3\n        /* \"#utility.yul\":25141:25159   */\n      add\n        /* \"#utility.yul\":25133:25159   */\n      swap1\n      pop\n        /* \"#utility.yul\":25205:25214   */\n      dup2\n        /* \"#utility.yul\":25199:25203   */\n      dup2\n        /* \"#utility.yul\":25195:25215   */\n      sub\n        /* \"#utility.yul\":25191:25192   */\n      0x00\n        /* \"#utility.yul\":25180:25189   */\n      dup4\n        /* \"#utility.yul\":25176:25193   */\n      add\n        /* \"#utility.yul\":25169:25216   */\n      mstore\n        /* \"#utility.yul\":25233:25364   */\n      tag_451\n        /* \"#utility.yul\":25359:25363   */\n      dup2\n        /* \"#utility.yul\":25233:25364   */\n      tag_201\n      jump\t// in\n    tag_451:\n        /* \"#utility.yul\":25225:25364   */\n      swap1\n      pop\n        /* \"#utility.yul\":24952:25371   */\n      swap2\n      swap1\n      pop\n      jump\t// out\n        /* \"#utility.yul\":25377:25710   */\n    tag_96:\n        /* \"#utility.yul\":25500:25504   */\n      0x00\n        /* \"#utility.yul\":25538:25540   */\n      0x20\n        /* \"#utility.yul\":25527:25536   */\n      dup3\n        /* \"#utility.yul\":25523:25541   */\n      add\n        /* \"#utility.yul\":25515:25541   */\n      swap1\n      pop\n        /* \"#utility.yul\":25587:25596   */\n      dup2\n        /* \"#utility.yul\":25581:25585   */\n      dup2\n        /* \"#utility.yul\":25577:25597   */\n      sub\n        /* \"#utility.yul\":25573:25574   */\n      0x00\n        /* \"#utility.yul\":25562:25571   */\n      dup4\n        /* \"#utility.yul\":25558:25575   */\n      add\n        /* \"#utility.yul\":25551:25598   */\n      mstore\n        /* \"#utility.yul\":25615:25703   */\n      tag_453\n        /* \"#utility.yul\":25698:25702   */\n      dup2\n        /* \"#utility.yul\":25689:25695   */\n      dup5\n        /* \"#utility.yul\":25681:25687   */\n      dup7\n        /* \"#utility.yul\":25615:25703   */\n      tag_195\n      jump\t// in\n    tag_453:\n        /* \"#utility.yul\":25607:25703   */\n      swap1\n      pop\n        /* \"#utility.yul\":25377:25710   */\n      swap4\n      swap3\n      pop\n      pop\n      pop\n      jump\t// out\n        /* \"#utility.yul\":25716:25874   */\n    tag_202:\n        /* \"#utility.yul\":25856:25866   */\n      0x6e6f206261746368000000000000000000000000000000000000000000000000\n        /* \"#utility.yul\":25852:25853   */\n      0x00\n        /* \"#utility.yul\":25844:25850   */\n      dup3\n        /* \"#utility.yul\":25840:25854   */\n      add\n        /* \"#utility.yul\":25833:25867   */\n      mstore\n        /* \"#utility.yul\":25716:25874   */\n      pop\n      jump\t// out\n        /* \"#utility.yul\":25880:26245   */\n    tag_203:\n        /* \"#utility.yul\":26022:26025   */\n      0x00\n        /* \"#utility.yul\":26043:26109   */\n      tag_456\n        /* \"#utility.yul\":26107:26108   */\n      0x08\n        /* \"#utility.yul\":26102:26105   */\n      dup4\n        /* \"#utility.yul\":26043:26109   */\n      tag_158\n      jump\t// in\n    tag_456:\n        /* \"#utility.yul\":26036:26109   */\n      swap2\n      pop\n        /* \"#utility.yul\":26118:26211   */\n      tag_457\n        /* \"#utility.yul\":26207:26210   */\n      dup3\n        /* \"#utility.yul\":26118:26211   */\n      tag_202\n      jump\t// in\n    tag_457:\n        /* \"#utility.yul\":26236:26238   */\n      0x20\n        /* \"#utility.yul\":26231:26234   */\n      dup3\n        /* \"#utility.yul\":26227:26239   */\n      add\n        /* \"#utility.yul\":26220:26239   */\n      swap1\n      pop\n        /* \"#utility.yul\":25880:26245   */\n      swap2\n      swap1\n      pop\n      jump\t// out\n        /* \"#utility.yul\":26251:26670   */\n    tag_101:\n        /* \"#utility.yul\":26417:26421   */\n      0x00\n        /* \"#utility.yul\":26455:26457   */\n      0x20\n        /* \"#utility.yul\":26444:26453   */\n      dup3\n        /* \"#utility.yul\":26440:26458   */\n      add\n        /* \"#utility.yul\":26432:26458   */\n      swap1\n      pop\n        /* \"#utility.yul\":26504:26513   */\n      dup2\n        /* \"#utility.yul\":26498:26502   */\n      dup2\n        /* \"#utility.yul\":26494:26514   */\n      sub\n        /* \"#utility.yul\":26490:26491   */\n      0x00\n        /* \"#utility.yul\":26479:26488   */\n      dup4\n        /* \"#utility.yul\":26475:26492   */\n      add\n        /* \"#utility.yul\":26468:26515   */\n      mstore\n        /* \"#utility.yul\":26532:26663   */\n      tag_459\n        /* \"#utility.yul\":26658:26662   */\n      dup2\n        /* \"#utility.yul\":26532:26663   */\n      tag_203\n      jump\t// in\n    tag_459:\n        /* \"#utility.yul\":26524:26663   */\n      swap1\n      pop\n        /* \"#utility.yul\":26251:26670   */\n      swap2\n      swap1\n      pop\n      jump\t// out\n        /* \"#utility.yul\":26676:26843   */\n    tag_204:\n        /* \"#utility.yul\":26816:26835   */\n      0x6f6e6c79206d616e756661637475726572000000000000000000000000000000\n        /* \"#utility.yul\":26812:26813   */\n      0x00\n        /* \"#utility.yul\":26804:26810   */\n      dup3\n        /* \"#utility.yul\":26800:26814   */\n      add\n        /* \"#utility.yul\":26793:26836   */\n      mstore\n        /* \"#utility.yul\":26676:26843   */\n      pop\n      jump\t// out\n        /* \"#utility.yul\":26849:27215   */\n    tag_205:\n        /* \"#utility.yul\":26991:26994   */\n      0x00\n        /* \"#utility.yul\":27012:27079   */\n      tag_462\n        /* \"#utility.yul\":27076:27078   */\n      0x11\n        /* \"#utility.yul\":27071:27074   */\n      dup4\n        /* \"#utility.yul\":27012:27079   */\n      tag_158\n      jump\t// in\n    tag_462:\n        /* \"#utility.yul\":27005:27079   */\n      swap2\n      pop\n        /* \"#utility.yul\":27088:27181   */\n      tag_463\n        /* \"#utility.yul\":27177:27180   */\n      dup3\n        /* \"#utility.yul\":27088:27181   */\n      tag_204\n      jump\t// in\n    tag_463:\n        /* \"#utility.yul\":27206:27208   */\n      0x20\n        /* \"#utility.yul\":27201:27204   */\n      dup3\n        /* \"#utility.yul\":27197:27209   */\n      add\n        /* \"#utility.yul\":27190:27209   */\n      swap1\n      pop\n        /* \"#utility.yul\":26849:27215   */\n      swap2\n      swap1\n      pop\n      jump\t// out\n        /* \"#utility.yul\":27221:27640   */\n    tag_110:\n        /* \"#utility.yul\":27387:27391   */\n      0x00\n        /* \"#utility.yul\":27425:27427   */\n      0x20\n        /* \"#utility.yul\":27414:27423   */\n      dup3\n        /* \"#utility.yul\":27410:27428   */\n      add\n        /* \"#utility.yul\":27402:27428   */\n      swap1\n      pop\n        /* \"#utility.yul\":27474:27483   */\n      dup2\n        /* \"#utility.yul\":27468:27472   */\n      dup2\n        /* \"#utility.yul\":27464:27484   */\n      sub\n        /* \"#utility.yul\":27460:27461   */\n      0x00\n        /* \"#utility.yul\":27449:27458   */\n      dup4\n        /* \"#utility.yul\":27445:27462   */\n      add\n        /* \"#utility.yul\":27438:27485   */\n      mstore\n        /* \"#utility.yul\":27502:27633   */\n      tag_465\n        /* \"#utility.yul\":27628:27632   */\n      dup2\n        /* \"#utility.yul\":27502:27633   */\n      tag_205\n      jump\t// in\n    tag_465:\n        /* \"#utility.yul\":27494:27633   */\n      swap1\n      pop\n        /* \"#utility.yul\":27221:27640   */\n      swap2\n      swap1\n      pop\n      jump\t// out\n\n    auxdata: 0xa264697066735822122063d4727448deb0ffbfd204546f7c27db1709464b35e775298a26e08f2c7a6b3e64736f6c63430008180033\n}\n",
				"bytecode": {
					"linkReferences": {},
					"object": "608060405234801561001057600080fd5b50611d5a806100206000396000f3fe608060405234801561001057600080fd5b50600436106100625760003560e01c80630ed5bdae146100675780632692fdec146100835780637ef1446a1461009f578063951d1029146100d6578063dd3fa136146100f2578063f9ca42741461010e575b600080fd5b610081600480360381019061007c919061105a565b61013e565b005b61009d60048036038101906100989190611116565b6104ad565b005b6100b960048036038101906100b491906112b7565b61068b565b6040516100cd989796959493929190611414565b60405180910390f35b6100f060048036038101906100eb91906114a0565b610866565b005b61010c600480360381019061010791906114a0565b6109fe565b005b610128600480360381019061012391906114a0565b610c03565b604051610135919061161b565b60405180910390f35b600080888860405161015192919061166d565b908152602001604051809103902060020154146101a3576040517f08c379a000000000000000000000000000000000000000000000000000000000815260040161019a906116d2565b60405180910390fd5b8282116101e5576040517f08c379a00000000000000000000000000000000000000000000000000000000081526004016101dc9061173e565b60405180910390fd5b60405180610100016040528086868080601f016020809104026020016040519081016040528093929190818152602001838380828437600081840152601f19601f82011690508083019250505050505050815260200188888080601f016020809104026020016040519081016040528093929190818152602001838380828437600081840152601f19601f8201169050808301925050505050505081526020018481526020018381526020013373ffffffffffffffffffffffffffffffffffffffff1681526020018273ffffffffffffffffffffffffffffffffffffffff168152602001600073ffffffffffffffffffffffffffffffffffffffff168152602001600060038111156102fa576102f961139d565b5b8152506000888860405161030f92919061166d565b90815260200160405180910390206000820151816000019081610332919061196a565b506020820151816001019081610348919061196a565b50604082015181600201556060820151816003015560808201518160040160006101000a81548173ffffffffffffffffffffffffffffffffffffffff021916908373ffffffffffffffffffffffffffffffffffffffff16021790555060a08201518160050160006101000a81548173ffffffffffffffffffffffffffffffffffffffff021916908373ffffffffffffffffffffffffffffffffffffffff16021790555060c08201518160060160006101000a81548173ffffffffffffffffffffffffffffffffffffffff021916908373ffffffffffffffffffffffffffffffffffffffff16021790555060e08201518160060160146101000a81548160ff0219169083600381111561045d5761045c61139d565b5b02179055509050507f14a4819b534290cb8ccfb4060d5410e04c15b9493bccae224d5b9ae9e6f939d0878787873360405161049c959493929190611a69565b60405180910390a150505050505050565b60008084846040516104c092919061166d565b90815260200160405180910390209050600160038111156104e4576104e361139d565b5b8160060160149054906101000a900460ff1660038111156105085761050761139d565b5b14610548576040517f08c379a000000000000000000000000000000000000000000000000000000000815260040161053f90611afe565b60405180910390fd5b8060050160009054906101000a900473ffffffffffffffffffffffffffffffffffffffff1673ffffffffffffffffffffffffffffffffffffffff163373ffffffffffffffffffffffffffffffffffffffff16146105da576040517f08c379a00000000000000000000000000000000000000000000000000000000081526004016105d190611b6a565b60405180910390fd5b818160060160006101000a81548173ffffffffffffffffffffffffffffffffffffffff021916908373ffffffffffffffffffffffffffffffffffffffff16021790555060028160060160146101000a81548160ff021916908360038111156106455761064461139d565b5b02179055507f2306428e180d672dbbdf396b994b727732a06aa0e366facdfd9a587fe8a56dcd84848460405161067d93929190611b8a565b60405180910390a150505050565b6000818051602081018201805184825260208301602085012081835280955050505050506000915090508060000180546106c49061178d565b80601f01602080910402602001604051908101604052809291908181526020018280546106f09061178d565b801561073d5780601f106107125761010080835404028352916020019161073d565b820191906000526020600020905b81548152906001019060200180831161072057829003601f168201915b5050505050908060010180546107529061178d565b80601f016020809104026020016040519081016040528092919081815260200182805461077e9061178d565b80156107cb5780601f106107a0576101008083540402835291602001916107cb565b820191906000526020600020905b8154815290600101906020018083116107ae57829003601f168201915b5050505050908060020154908060030154908060040160009054906101000a900473ffffffffffffffffffffffffffffffffffffffff16908060050160009054906101000a900473ffffffffffffffffffffffffffffffffffffffff16908060060160009054906101000a900473ffffffffffffffffffffffffffffffffffffffff16908060060160149054906101000a900460ff16905088565b600080838360405161087992919061166d565b908152602001604051809103902090506002600381111561089d5761089c61139d565b5b8160060160149054906101000a900460ff1660038111156108c1576108c061139d565b5b14610901576040517f08c379a00000000000000000000000000000000000000000000000000000000081526004016108f890611afe565b60405180910390fd5b8060060160009054906101000a900473ffffffffffffffffffffffffffffffffffffffff1673ffffffffffffffffffffffffffffffffffffffff163373ffffffffffffffffffffffffffffffffffffffff1614610993576040517f08c379a000000000000000000000000000000000000000000000000000000000815260040161098a90611c08565b60405180910390fd5b60038160060160146101000a81548160ff021916908360038111156109bb576109ba61139d565b5b02179055507fe849b0af4ecf208b975210b68de7f7e7a16da0804e997c5586fd91397ea96f5a83836040516109f1929190611c28565b60405180910390a1505050565b6000808383604051610a1192919061166d565b908152602001604051809103902090506000816002015403610a68576040517f08c379a0000000000000000000000000000000000000000000000000000000008152600401610a5f90611c98565b60405180910390fd5b60006003811115610a7c57610a7b61139d565b5b8160060160149054906101000a900460ff166003811115610aa057610a9f61139d565b5b14610ae0576040517f08c379a0000000000000000000000000000000000000000000000000000000008152600401610ad790611afe565b60405180910390fd5b8060040160009054906101000a900473ffffffffffffffffffffffffffffffffffffffff1673ffffffffffffffffffffffffffffffffffffffff163373ffffffffffffffffffffffffffffffffffffffff1614610b72576040517f08c379a0000000000000000000000000000000000000000000000000000000008152600401610b6990611d04565b60405180910390fd5b60018160060160146101000a81548160ff02191690836003811115610b9a57610b9961139d565b5b02179055507fcf05a7b6e0e16465dbf39c9ded584a1365bd6b2b299bffa12b9e0e671c0ddb3983838360050160009054906101000a900473ffffffffffffffffffffffffffffffffffffffff16604051610bf693929190611b8a565b60405180910390a1505050565b610c0b610eb4565b60008383604051610c1d92919061166d565b908152602001604051809103902060405180610100016040529081600082018054610c479061178d565b80601f0160208091040260200160405190810160405280929190818152602001828054610c739061178d565b8015610cc05780601f10610c9557610100808354040283529160200191610cc0565b820191906000526020600020905b815481529060010190602001808311610ca357829003601f168201915b50505050508152602001600182018054610cd99061178d565b80601f0160208091040260200160405190810160405280929190818152602001828054610d059061178d565b8015610d525780601f10610d2757610100808354040283529160200191610d52565b820191906000526020600020905b815481529060010190602001808311610d3557829003601f168201915b5050505050815260200160028201548152602001600382015481526020016004820160009054906101000a900473ffffffffffffffffffffffffffffffffffffffff1673ffffffffffffffffffffffffffffffffffffffff1673ffffffffffffffffffffffffffffffffffffffff1681526020016005820160009054906101000a900473ffffffffffffffffffffffffffffffffffffffff1673ffffffffffffffffffffffffffffffffffffffff1673ffffffffffffffffffffffffffffffffffffffff1681526020016006820160009054906101000a900473ffffffffffffffffffffffffffffffffffffffff1673ffffffffffffffffffffffffffffffffffffffff1673ffffffffffffffffffffffffffffffffffffffff1681526020016006820160149054906101000a900460ff166003811115610e9657610e9561139d565b5b6003811115610ea857610ea761139d565b5b81525050905092915050565b60405180610100016040528060608152602001606081526020016000815260200160008152602001600073ffffffffffffffffffffffffffffffffffffffff168152602001600073ffffffffffffffffffffffffffffffffffffffff168152602001600073ffffffffffffffffffffffffffffffffffffffff16815260200160006003811115610f4757610f4661139d565b5b81525090565b6000604051905090565b600080fd5b600080fd5b600080fd5b600080fd5b600080fd5b60008083601f840112610f8657610f85610f61565b5b8235905067ffffffffffffffff811115610fa357610fa2610f66565b5b602083019150836001820283011115610fbf57610fbe610f6b565b5b9250929050565b6000819050919050565b610fd981610fc6565b8114610fe457600080fd5b50565b600081359050610ff681610fd0565b92915050565b600073ffffffffffffffffffffffffffffffffffffffff82169050919050565b600061102782610ffc565b9050919050565b6110378161101c565b811461104257600080fd5b50565b6000813590506110548161102e565b92915050565b600080600080600080600060a0888a03121561107957611078610f57565b5b600088013567ffffffffffffffff81111561109757611096610f5c565b5b6110a38a828b01610f70565b9750975050602088013567ffffffffffffffff8111156110c6576110c5610f5c565b5b6110d28a828b01610f70565b955095505060406110e58a828b01610fe7565b93505060606110f68a828b01610fe7565b92505060806111078a828b01611045565b91505092959891949750929550565b60008060006040848603121561112f5761112e610f57565b5b600084013567ffffffffffffffff81111561114d5761114c610f5c565b5b61115986828701610f70565b9350935050602061116c86828701611045565b9150509250925092565b600080fd5b6000601f19601f8301169050919050565b7f4e487b7100000000000000000000000000000000000000000000000000000000600052604160045260246000fd5b6111c48261117b565b810181811067ffffffffffffffff821117156111e3576111e261118c565b5b80604052505050565b60006111f6610f4d565b905061120282826111bb565b919050565b600067ffffffffffffffff8211156112225761122161118c565b5b61122b8261117b565b9050602081019050919050565b82818337600083830152505050565b600061125a61125584611207565b6111ec565b90508281526020810184848401111561127657611275611176565b5b611281848285611238565b509392505050565b600082601f83011261129e5761129d610f61565b5b81356112ae848260208601611247565b91505092915050565b6000602082840312156112cd576112cc610f57565b5b600082013567ffffffffffffffff8111156112eb576112ea610f5c565b5b6112f784828501611289565b91505092915050565b600081519050919050565b600082825260208201905092915050565b60005b8381101561133a57808201518184015260208101905061131f565b60008484015250505050565b600061135182611300565b61135b818561130b565b935061136b81856020860161131c565b6113748161117b565b840191505092915050565b61138881610fc6565b82525050565b6113978161101c565b82525050565b7f4e487b7100000000000000000000000000000000000000000000000000000000600052602160045260246000fd5b600481106113dd576113dc61139d565b5b50565b60008190506113ee826113cc565b919050565b60006113fe826113e0565b9050919050565b61140e816113f3565b82525050565b600061010082019050818103600083015261142f818b611346565b90508181036020830152611443818a611346565b9050611452604083018961137f565b61145f606083018861137f565b61146c608083018761138e565b61147960a083018661138e565b61148660c083018561138e565b61149360e0830184611405565b9998505050505050505050565b600080602083850312156114b7576114b6610f57565b5b600083013567ffffffffffffffff8111156114d5576114d4610f5c565b5b6114e185828601610f70565b92509250509250929050565b600082825260208201905092915050565b600061150982611300565b61151381856114ed565b935061152381856020860161131c565b61152c8161117b565b840191505092915050565b61154081610fc6565b82525050565b61154f8161101c565b82525050565b61155e816113f3565b82525050565b600061010083016000830151848203600086015261158282826114fe565b9150506020830151848203602086015261159c82826114fe565b91505060408301516115b16040860182611537565b5060608301516115c46060860182611537565b5060808301516115d76080860182611546565b5060a08301516115ea60a0860182611546565b5060c08301516115fd60c0860182611546565b5060e083015161161060e0860182611555565b508091505092915050565b600060208201905081810360008301526116358184611564565b905092915050565b600081905092915050565b6000611654838561163d565b9350611661838584611238565b82840190509392505050565b600061167a828486611648565b91508190509392505050565b7f6578697374730000000000000000000000000000000000000000000000000000600082015250565b60006116bc60068361130b565b91506116c782611686565b602082019050919050565b600060208201905081810360008301526116eb816116af565b9050919050565b7f6261642064617465730000000000000000000000000000000000000000000000600082015250565b600061172860098361130b565b9150611733826116f2565b602082019050919050565b600060208201905081810360008301526117578161171b565b9050919050565b7f4e487b7100000000000000000000000000000000000000000000000000000000600052602260045260246000fd5b600060028204905060018216806117a557607f821691505b6020821081036117b8576117b761175e565b5b50919050565b60008190508160005260206000209050919050565b60006020601f8301049050919050565b600082821b905092915050565b6000600883026118207fffffffffffffffffffffffffffffffffffffffffffffffffffffffffffffffff826117e3565b61182a86836117e3565b95508019841693508086168417925050509392505050565b6000819050919050565b600061186761186261185d84610fc6565b611842565b610fc6565b9050919050565b6000819050919050565b6118818361184c565b61189561188d8261186e565b8484546117f0565b825550505050565b600090565b6118aa61189d565b6118b5818484611878565b505050565b5b818110156118d9576118ce6000826118a2565b6001810190506118bb565b5050565b601f82111561191e576118ef816117be565b6118f8846117d3565b81016020851015611907578190505b61191b611913856117d3565b8301826118ba565b50505b505050565b600082821c905092915050565b600061194160001984600802611923565b1980831691505092915050565b600061195a8383611930565b9150826002028217905092915050565b61197382611300565b67ffffffffffffffff81111561198c5761198b61118c565b5b611996825461178d565b6119a18282856118dd565b600060209050601f8311600181146119d457600084156119c2578287015190505b6119cc858261194e565b865550611a34565b601f1984166119e2866117be565b60005b82811015611a0a578489015182556001820191506020850194506020810190506119e5565b86831015611a275784890151611a23601f891682611930565b8355505b6001600288020188555050505b505050505050565b6000611a48838561130b565b9350611a55838584611238565b611a5e8361117b565b840190509392505050565b60006060820190508181036000830152611a84818789611a3c565b90508181036020830152611a99818587611a3c565b9050611aa8604083018461138e565b9695505050505050565b7f6261642073746174650000000000000000000000000000000000000000000000600082015250565b6000611ae860098361130b565b9150611af382611ab2565b602082019050919050565b60006020820190508181036000830152611b1781611adb565b9050919050565b7f6f6e6c79206469737472696275746f7200000000000000000000000000000000600082015250565b6000611b5460108361130b565b9150611b5f82611b1e565b602082019050919050565b60006020820190508181036000830152611b8381611b47565b9050919050565b60006040820190508181036000830152611ba5818587611a3c565b9050611bb4602083018461138e565b949350505050565b7f6f6e6c7920706861726d61637900000000000000000000000000000000000000600082015250565b6000611bf2600d8361130b565b9150611bfd82611bbc565b602082019050919050565b60006020820190508181036000830152611c2181611be5565b9050919050565b60006020820190508181036000830152611c43818486611a3c565b90509392505050565b7f6e6f206261746368000000000000000000000000000000000000000000000000600082015250565b6000611c8260088361130b565b9150611c8d82611c4c565b602082019050919050565b60006020820190508181036000830152611cb181611c75565b9050919050565b7f6f6e6c79206d616e756661637475726572000000000000000000000000000000600082015250565b6000611cee60118361130b565b9150611cf982611cb8565b602082019050919050565b60006020820190508181036000830152611d1d81611ce1565b905091905056fea264697066735822122063d4727448deb0ffbfd204546f7c27db1709464b35e775298a26e08f2c7a6b3e64736f6c63430008180033",
					"opcodes": "PUSH1 0x80 PUSH1 0x40 MSTORE CALLVALUE DUP1 ISZERO PUSH2 0x10 JUMPI PUSH1 0x0 DUP1 REVERT JUMPDEST POP PUSH2 0x1D5A DUP1 PUSH2 0x20 PUSH1 0x0 CODECOPY PUSH1 0x0 RETURN INVALID PUSH1 0x80 PUSH1 0x40 MSTORE CALLVALUE DUP1 ISZERO PUSH2 0x10 JUMPI PUSH1 0x0 DUP1 REVERT JUMPDEST POP PUSH1 0x4 CALLDATASIZE LT PUSH2 0x62 JUMPI PUSH1 0x0 CALLDATALOAD PUSH1 0xE0 SHR DUP1 PUSH4 0xED5BDAE EQ PUSH2 0x67 JUMPI DUP1 PUSH4 0x2692FDEC EQ PUSH2 0x83 JUMPI DUP1 PUSH4 0x7EF1446A EQ PUSH2 0x9F JUMPI DUP1 PUSH4 0x951D1029 EQ PUSH2 0xD6 JUMPI DUP1 PUSH4 0xDD3FA136 EQ PUSH2 0xF2 JUMPI DUP1 PUSH4 0xF9CA4274 EQ PUSH2 0x10E JUMPI JUMPDEST PUSH1 0x0 DUP1 REVERT JUMPDEST PUSH2 0x81 PUSH1 0x4 DUP1 CALLDATASIZE SUB DUP2 ADD SWAP1 PUSH2 0x7C SWAP2 SWAP1 PUSH2 0x105A JUMP JUMPDEST PUSH2 0x13E JUMP JUMPDEST STOP JUMPDEST PUSH2 0x9D PUSH1 0x4 DUP1 CALLDATASIZE SUB DUP2 ADD SWAP1 PUSH2 0x98 SWAP2 SWAP1 PUSH2 0x1116 JUMP JUMPDEST PUSH2 0x4AD JUMP JUMPDEST STOP JUMPDEST PUSH2 0xB9 PUSH1 0x4 DUP1 CALLDATASIZE SUB DUP2 ADD SWAP1 PUSH2 0xB4 SWAP2 SWAP1 PUSH2 0x12B7 JUMP JUMPDEST PUSH2 0x68B JUMP JUMPDEST PUSH1 0x40 MLOAD PUSH2 0xCD SWAP9 SWAP8 SWAP7 SWAP6 SWAP5 SWAP4 SWAP3 SWAP2 SWAP1 PUSH2 0x1414 JUMP JUMPDEST PUSH1 0x40 MLOAD DUP1 SWAP2 SUB SWAP1 RETURN JUMPDEST PUSH2 0xF0 PUSH1 0x4 DUP1 CALLDATASIZE SUB DUP2 ADD SWAP1 PUSH2 0xEB SWAP2 SWAP1 PUSH2 0x14A0 JUMP JUMPDEST PUSH2 0x866 JUMP JUMPDEST STOP JUMPDEST PUSH2 0x10C PUSH1 0x4 DUP1 CALLDATASIZE SUB DUP2 ADD SWAP1 PUSH2 0x107 SWAP2 SWAP1 PUSH2 0x14A0 JUMP JUMPDEST PUSH2 0x9FE JUMP JUMPDEST STOP JUMPDEST PUSH2 0x128 PUSH1 0x4 DUP1 CALLDATASIZE SUB DUP2 ADD SWAP1 PUSH2 0x123 SWAP2 SWAP1 PUSH2 0x14A0 JUMP JUMPDEST PUSH2 0xC03 JUMP JUMPDEST PUSH1 0x40 MLOAD PUSH2 0x135 SWAP2 SWAP1 PUSH2 0x161B JUMP JUMPDEST PUSH1 0x40 MLOAD DUP1 SWAP2 SUB SWAP1 RETURN JUMPDEST PUSH1 0x0 DUP1 DUP9 DUP9 PUSH1 0x40 MLOAD PUSH2 0x151 SWAP3 SWAP2 SWAP1 PUSH2 0x166D JUMP JUMPDEST SWAP1 DUP2 MSTORE PUSH1 0x20 ADD PUSH1 0x40 MLOAD DUP1 SWAP2 SUB SWAP1 KECCAK256 PUSH1 0x2 ADD SLOAD EQ PUSH2 0x1A3 JUMPI PUSH1 0x40 MLOAD PUSH32 0x8C379A000000000000000000000000000000000000000000000000000000000 DUP2 MSTORE PUSH1 0x4 ADD PUSH2 0x19A SWAP1 PUSH2 0x16D2 JUMP JUMPDEST PUSH1 0x40 MLOAD DUP1 SWAP2 SUB SWAP1 REVERT JUMPDEST DUP3 DUP3 GT PUSH2 0x1E5 JUMPI PUSH1 0x40 MLOAD PUSH32 0x8C379A000000000000000000000000000000000000000000000000000000000 DUP2 MSTORE PUSH1 0x4 ADD PUSH2 0x1DC SWAP1 PUSH2 0x173E JUMP JUMPDEST PUSH1 0x40 MLOAD DUP1 SWAP2 SUB SWAP1 REVERT JUMPDEST PUSH1 0x40 MLOAD DUP1 PUSH2 0x100 ADD PUSH1 0x40 MSTORE DUP1 DUP7 DUP7 DUP1 DUP1 PUSH1 0x1F ADD PUSH1 0x20 DUP1 SWAP2 DIV MUL PUSH1 0x20 ADD PUSH1 0x40 MLOAD SWAP1 DUP2 ADD PUSH1 0x40 MSTORE DUP1 SWAP4 SWAP3 SWAP2 SWAP1 DUP2 DUP2 MSTORE PUSH1 0x20 ADD DUP4 DUP4 DUP1 DUP3 DUP5 CALLDATACOPY PUSH1 0x0 DUP2 DUP5 ADD MSTORE PUSH1 0x1F NOT PUSH1 0x1F DUP3 ADD AND SWAP1 POP DUP1 DUP4 ADD SWAP3 POP POP POP POP POP POP POP DUP2 MSTORE PUSH1 0x20 ADD DUP9 DUP9 DUP1 DUP1 PUSH1 0x1F ADD PUSH1 0x20 DUP1 SWAP2 DIV MUL PUSH1 0x20 ADD PUSH1 0x40 MLOAD SWAP1 DUP2 ADD PUSH1 0x40 MSTORE DUP1 SWAP4 SWAP3 SWAP2 SWAP1 DUP2 DUP2 MSTORE PUSH1 0x20 ADD DUP4 DUP4 DUP1 DUP3 DUP5 CALLDATACOPY PUSH1 0x0 DUP2 DUP5 ADD MSTORE PUSH1 0x1F NOT PUSH1 0x1F DUP3 ADD AND SWAP1 POP DUP1 DUP4 ADD SWAP3 POP POP POP POP POP POP POP DUP2 MSTORE PUSH1 0x20 ADD DUP5 DUP2 MSTORE PUSH1 0x20 ADD DUP4 DUP2 MSTORE PUSH1 0x20 ADD CALLER PUSH20 0xFFFFFFFFFFFFFFFFFFFFFFFFFFFFFFFFFFFFFFFF AND DUP2 MSTORE PUSH1 0x20 ADD DUP3 PUSH20 0xFFFFFFFFFFFFFFFFFFFFFFFFFFFFFFFFFFFFFFFF AND DUP2 MSTORE PUSH1 0x20 ADD PUSH1 0x0 PUSH20 0xFFFFFFFFFFFFFFFFFFFFFFFFFFFFFFFFFFFFFFFF AND DUP2 MSTORE PUSH1 0x20 ADD PUSH1 0x0 PUSH1 0x3 DUP2 GT ISZERO PUSH2 0x2FA JUMPI PUSH2 0x2F9 PUSH2 0x139D JUMP JUMPDEST JUMPDEST DUP2 MSTORE POP PUSH1 0x0 DUP9 DUP9 PUSH1 0x40 MLOAD PUSH2 0x30F SWAP3 SWAP2 SWAP1 PUSH2 0x166D JUMP JUMPDEST SWAP1 DUP2 MSTORE PUSH1 0x20 ADD PUSH1 0x40 MLOAD DUP1 SWAP2 SUB SWAP1 KECCAK256 PUSH1 0x0 DUP3 ADD MLOAD DUP2 PUSH1 0x0 ADD SWAP1 DUP2 PUSH2 0x332 SWAP2 SWAP1 PUSH2 0x196A JUMP JUMPDEST POP PUSH1 0x20 DUP3 ADD MLOAD DUP2 PUSH1 0x1 ADD SWAP1 DUP2 PUSH2 0x348 SWAP2 SWAP1 PUSH2 0x196A JUMP JUMPDEST POP PUSH1 0x40 DUP3 ADD MLOAD DUP2 PUSH1 0x2 ADD SSTORE PUSH1 0x60 DUP3 ADD MLOAD DUP2 PUSH1 0x3 ADD SSTORE PUSH1 0x80 DUP3 ADD MLOAD DUP2 PUSH1 0x4 ADD PUSH1 0x0 PUSH2 0x100 EXP DUP2 SLOAD DUP2 PUSH20 0xFFFFFFFFFFFFFFFFFFFFFFFFFFFFFFFFFFFFFFFF MUL NOT AND SWAP1 DUP4 PUSH20 0xFFFFFFFFFFFFFFFFFFFFFFFFFFFFFFFFFFFFFFFF AND MUL OR SWAP1 SSTORE POP PUSH1 0xA0 DUP3 ADD MLOAD DUP2 PUSH1 0x5 ADD PUSH1 0x0 PUSH2 0x100 EXP DUP2 SLOAD DUP2 PUSH20 0xFFFFFFFFFFFFFFFFFFFFFFFFFFFFFFFFFFFFFFFF MUL NOT AND SWAP1 DUP4 PUSH20 0xFFFFFFFFFFFFFFFFFFFFFFFFFFFFFFFFFFFFFFFF AND MUL OR SWAP1 SSTORE POP PUSH1 0xC0 DUP3 ADD MLOAD DUP2 PUSH1 0x6 ADD PUSH1 0x0 PUSH2 0x100 EXP DUP2 SLOAD DUP2 PUSH20 0xFFFFFFFFFFFFFFFFFFFFFFFFFFFFFFFFFFFFFFFF MUL NOT AND SWAP1 DUP4 PUSH20 0xFFFFFFFFFFFFFFFFFFFFFFFFFFFFFFFFFFFFFFFF AND MUL OR SWAP1 SSTORE POP PUSH1 0xE0 DUP3 ADD MLOAD DUP2 PUSH1 0x6 ADD PUSH1 0x14 PUSH2 0x100 EXP DUP2 SLOAD DUP2 PUSH1 0xFF MUL NOT AND SWAP1 DUP4 PUSH1 0x3 DUP2 GT ISZERO PUSH2 0x45D JUMPI PUSH2 0x45C PUSH2 0x139D JUMP JUMPDEST JUMPDEST MUL OR SWAP1 SSTORE POP SWAP1 POP POP PUSH32 0x14A4819B534290CB8CCFB4060D5410E04C15B9493BCCAE224D5B9AE9E6F939D0 DUP8 DUP8 DUP8 DUP8 CALLER PUSH1 0x40 MLOAD PUSH2 0x49C SWAP6 SWAP5 SWAP4 SWAP3 SWAP2 SWAP1 PUSH2 0x1A69 JUMP JUMPDEST PUSH1 0x40 MLOAD DUP1 SWAP2 SUB SWAP1 LOG1 POP POP POP POP POP POP POP JUMP JUMPDEST PUSH1 0x0 DUP1 DUP5 DUP5 PUSH1 0x40 MLOAD PUSH2 0x4C0 SWAP3 SWAP2 SWAP1 PUSH2 0x166D JUMP JUMPDEST SWAP1 DUP2 MSTORE PUSH1 0x20 ADD PUSH1 0x40 MLOAD DUP1 SWAP2 SUB SWAP1 KECCAK256 SWAP1 POP PUSH1 0x1 PUSH1 0x3 DUP2 GT ISZERO PUSH2 0x4E4 JUMPI PUSH2 0x4E3 PUSH2 0x139D JUMP JUMPDEST JUMPDEST DUP2 PUSH1 0x6 ADD PUSH1 0x14 SWAP1 SLOAD SWAP1 PUSH2 0x100 EXP SWAP1 DIV PUSH1 0xFF AND PUSH1 0x3 DUP2 GT ISZERO PUSH2 0x508 JUMPI PUSH2 0x507 PUSH2 0x139D JUMP JUMPDEST JUMPDEST EQ PUSH2 0x548 JUMPI PUSH1 0x40 MLOAD PUSH32 0x8C379A000000000000000000000000000000000000000000000000000000000 DUP2 MSTORE PUSH1 0x4 ADD PUSH2 0x53F SWAP1 PUSH2 0x1AFE JUMP JUMPDEST PUSH1 0x40 MLOAD DUP1 SWAP2 SUB SWAP1 REVERT JUMPDEST DUP1 PUSH1 0x5 ADD PUSH1 0x0 SWAP1 SLOAD SWAP1 PUSH2 0x100 EXP SWAP1 DIV PUSH20 0xFFFFFFFFFFFFFFFFFFFFFFFFFFFFFFFFFFFFFFFF AND PUSH20 0xFFFFFFFFFFFFFFFFFFFFFFFFFFFFFFFFFFFFFFFF AND CALLER PUSH20 0xFFFFFFFFFFFFFFFFFFFFFFFFFFFFFFFFFFFFFFFF AND EQ PUSH2 0x5DA JUMPI PUSH1 0x40 MLOAD PUSH32 0x8C379A000000000000000000000000000000000000000000000000000000000 DUP2 MSTORE PUSH1 0x4 ADD PUSH2 0x5D1 SWAP1 PUSH2 0x1B6A JUMP JUMPDEST PUSH1 0x40 MLOAD DUP1 SWAP2 SUB SWAP1 REVERT JUMPDEST DUP2 DUP2 PUSH1 0x6 ADD PUSH1 0x0 PUSH2 0x100 EXP DUP2 SLOAD DUP2 PUSH20 0xFFFFFFFFFFFFFFFFFFFFFFFFFFFFFFFFFFFFFFFF MUL NOT AND SWAP1 DUP4 PUSH20 0xFFFFFFFFFFFFFFFFFFFFFFFFFFFFFFFFFFFFFFFF AND MUL OR SWAP1 SSTORE POP PUSH1 0x2 DUP2 PUSH1 0x6 ADD PUSH1 0x14 PUSH2 0x100 EXP DUP2 SLOAD DUP2 PUSH1 0xFF MUL NOT AND SWAP1 DUP4 PUSH1 0x3 DUP2 GT ISZERO PUSH2 0x645 JUMPI PUSH2 0x644 PUSH2 0x139D JUMP JUMPDEST JUMPDEST MUL OR SWAP1 SSTORE POP PUSH32 0x2306428E180D672DBBDF396B994B727732A06AA0E366FACDFD9A587FE8A56DCD DUP5 DUP5 DUP5 PUSH1 0x40 MLOAD PUSH2 0x67D SWAP4 SWAP3 SWAP2 SWAP1 PUSH2 0x1B8A JUMP JUMPDEST PUSH1 0x40 MLOAD DUP1 SWAP2 SUB SWAP1 LOG1 POP POP POP POP JUMP JUMPDEST PUSH1 0x0 DUP2 DUP1 MLOAD PUSH1 0x20 DUP2 ADD DUP3 ADD DUP1 MLOAD DUP5 DUP3 MSTORE PUSH1 0x20 DUP4 ADD PUSH1 0x20 DUP6 ADD KECCAK256 DUP2 DUP4 MSTORE DUP1 SWAP6 POP POP POP POP POP POP PUSH1 0x0 SWAP2 POP SWAP1 POP DUP1 PUSH1 0x0 ADD DUP1 SLOAD PUSH2 0x6C4 SWAP1 PUSH2 0x178D JUMP JUMPDEST DUP1 PUSH1 0x1F ADD PUSH1 0x20 DUP1 SWAP2 DIV MUL PUSH1 0x20 ADD PUSH1 0x40 MLOAD SWAP1 DUP2 ADD PUSH1 0x40 MSTORE DUP1 SWAP3 SWAP2 SWAP1 DUP2 DUP2 MSTORE PUSH1 0x20 ADD DUP3 DUP1 SLOAD PUSH2 0x6F0 SWAP1 PUSH2 0x178D JUMP JUMPDEST DUP1 ISZERO PUSH2 0x73D JUMPI DUP1 PUSH1 0x1F LT PUSH2 0x712 JUMPI PUSH2 0x100 DUP1 DUP4 SLOAD DIV MUL DUP4 MSTORE SWAP2 PUSH1 0x20 ADD SWAP2 PUSH2 0x73D JUMP JUMPDEST DUP3 ADD SWAP2 SWAP1 PUSH1 0x0 MSTORE PUSH1 0x20 PUSH1 0x0 KECCAK256 SWAP1 JUMPDEST DUP2 SLOAD DUP2 MSTORE SWAP1 PUSH1 0x1 ADD SWAP1 PUSH1 0x20 ADD DUP1 DUP4 GT PUSH2 0x720 JUMPI DUP3 SWAP1 SUB PUSH1 0x1F AND DUP3 ADD SWAP2 JUMPDEST POP POP POP POP POP SWAP1 DUP1 PUSH1 0x1 ADD DUP1 SLOAD PUSH2 0x752 SWAP1 PUSH2 0x178D JUMP JUMPDEST DUP1 PUSH1 0x1F ADD PUSH1 0x20 DUP1 SWAP2 DIV MUL PUSH1 0x20 ADD PUSH1 0x40 MLOAD SWAP1 DUP2 ADD PUSH1 0x40 MSTORE DUP1 SWAP3 SWAP2 SWAP1 DUP2 DUP2 MSTORE PUSH1 0x20 ADD DUP3 DUP1 SLOAD PUSH2 0x77E SWAP1 PUSH2 0x178D JUMP JUMPDEST DUP1 ISZERO PUSH2 0x7CB JUMPI DUP1 PUSH1 0x1F LT PUSH2 0x7A0 JUMPI PUSH2 0x100 DUP1 DUP4 SLOAD DIV MUL DUP4 MSTORE SWAP2 PUSH1 0x20 ADD SWAP2 PUSH2 0x7CB JUMP JUMPDEST DUP3 ADD SWAP2 SWAP1 PUSH1 0x0 MSTORE PUSH1 0x20 PUSH1 0x0 KECCAK256 SWAP1 JUMPDEST DUP2 SLOAD DUP2 MSTORE SWAP1 PUSH1 0x1 ADD SWAP1 PUSH1 0x20 ADD DUP1 DUP4 GT PUSH2 0x7AE JUMPI DUP3 SWAP1 SUB PUSH1 0x1F AND DUP3 ADD SWAP2 JUMPDEST POP POP POP POP POP SWAP1 DUP1 PUSH1 0x2 ADD SLOAD SWAP1 DUP1 PUSH1 0x3 ADD SLOAD SWAP1 DUP1 PUSH1 0x4 ADD PUSH1 0x0 SWAP1 SLOAD SWAP1 PUSH2 0x100 EXP SWAP1 DIV PUSH20 0xFFFFFFFFFFFFFFFFFFFFFFFFFFFFFFFFFFFFFFFF AND SWAP1 DUP1 PUSH1 0x5 ADD PUSH1 0x0 SWAP1 SLOAD SWAP1 PUSH2 0x100 EXP SWAP1 DIV PUSH20 0xFFFFFFFFFFFFFFFFFFFFFFFFFFFFFFFFFFFFFFFF AND SWAP1 DUP1 PUSH1 0x6 ADD PUSH1 0x0 SWAP1 SLOAD SWAP1 PUSH2 0x100 EXP SWAP1 DIV PUSH20 0xFFFFFFFFFFFFFFFFFFFFFFFFFFFFFFFFFFFFFFFF AND SWAP1 DUP1 PUSH1 0x6 ADD PUSH1 0x14 SWAP1 SLOAD SWAP1 PUSH2 0x100 EXP SWAP1 DIV PUSH1 0xFF AND SWAP1 POP DUP9 JUMP JUMPDEST PUSH1 0x0 DUP1 DUP4 DUP4 PUSH1 0x40 MLOAD PUSH2 0x879 SWAP3 SWAP2 SWAP1 PUSH2 0x166D JUMP JUMPDEST SWAP1 DUP2 MSTORE PUSH1 0x20 ADD PUSH1 0x40 MLOAD DUP1 SWAP2 SUB SWAP1 KECCAK256 SWAP1 POP PUSH1 0x2 PUSH1 0x3 DUP2 GT ISZERO PUSH2 0x89D JUMPI PUSH2 0x89C PUSH2 0x139D JUMP JUMPDEST JUMPDEST DUP2 PUSH1 0x6 ADD PUSH1 0x14 SWAP1 SLOAD SWAP1 PUSH2 0x100 EXP SWAP1 DIV PUSH1 0xFF AND PUSH1 0x3 DUP2 GT ISZERO PUSH2 0x8C1 JUMPI PUSH2 0x8C0 PUSH2 0x139D JUMP JUMPDEST JUMPDEST EQ PUSH2 0x901 JUMPI PUSH1 0x40 MLOAD PUSH32 0x8C379A000000000000000000000000000000000000000000000000000000000 DUP2 MSTORE PUSH1 0x4 ADD PUSH2 0x8F8 SWAP1 PUSH2 0x1AFE JUMP JUMPDEST PUSH1 0x40 MLOAD DUP1 SWAP2 SUB SWAP1 REVERT JUMPDEST DUP1 PUSH1 0x6 ADD PUSH1 0x0 SWAP1 SLOAD SWAP1 PUSH2 0x100 EXP SWAP1 DIV PUSH20 0xFFFFFFFFFFFFFFFFFFFFFFFFFFFFFFFFFFFFFFFF AND PUSH20 0xFFFFFFFFFFFFFFFFFFFFFFFFFFFFFFFFFFFFFFFF AND CALLER PUSH20 0xFFFFFFFFFFFFFFFFFFFFFFFFFFFFFFFFFFFFFFFF AND EQ PUSH2 0x993 JUMPI PUSH1 0x40 MLOAD PUSH32 0x8C379A000000000000000000000000000000000000000000000000000000000 DUP2 MSTORE PUSH1 0x4 ADD PUSH2 0x98A SWAP1 PUSH2 0x1C08 JUMP JUMPDEST PUSH1 0x40 MLOAD DUP1 SWAP2 SUB SWAP1 REVERT JUMPDEST PUSH1 0x3 DUP2 PUSH1 0x6 ADD PUSH1 0x14 PUSH2 0x100 EXP DUP2 SLOAD DUP2 PUSH1 0xFF MUL NOT AND SWAP1 DUP4 PUSH1 0x3 DUP2 GT ISZERO PUSH2 0x9BB JUMPI PUSH2 0x9BA PUSH2 0x139D JUMP JUMPDEST JUMPDEST MUL OR SWAP1 SSTORE POP PUSH32 0xE849B0AF4ECF208B975210B68DE7F7E7A16DA0804E997C5586FD91397EA96F5A DUP4 DUP4 PUSH1 0x40 MLOAD PUSH2 0x9F1 SWAP3 SWAP2 SWAP1 PUSH2 0x1C28 JUMP JUMPDEST PUSH1 0x40 MLOAD DUP1 SWAP2 SUB SWAP1 LOG1 POP POP POP JUMP JUMPDEST PUSH1 0x0 DUP1 DUP4 DUP4 PUSH1 0x40 MLOAD PUSH2 0xA11 SWAP3 SWAP2 SWAP1 PUSH2 0x166D JUMP JUMPDEST SWAP1 DUP2 MSTORE PUSH1 0x20 ADD PUSH1 0x40 MLOAD DUP1 SWAP2 SUB SWAP1 KECCAK256 SWAP1 POP PUSH1 0x0 DUP2 PUSH1 0x2 ADD SLOAD SUB PUSH2 0xA68 JUMPI PUSH1 0x40 MLOAD PUSH32 0x8C379A000000000000000000000000000000000000000000000000000000000 DUP2 MSTORE PUSH1 0x4 ADD PUSH2 0xA5F SWAP1 PUSH2 0x1C98 JUMP JUMPDEST PUSH1 0x40 MLOAD DUP1 SWAP2 SUB SWAP1 REVERT JUMPDEST PUSH1 0x0 PUSH1 0x3 DUP2 GT ISZERO PUSH2 0xA7C JUMPI PUSH2 0xA7B PUSH2 0x139D JUMP JUMPDEST JUMPDEST DUP2 PUSH1 0x6 ADD PUSH1 0x14 SWAP1 SLOAD SWAP1 PUSH2 0x100 EXP SWAP1 DIV PUSH1 0xFF AND PUSH1 0x3 DUP2 GT ISZERO PUSH2 0xAA0 JUMPI PUSH2 0xA9F PUSH2 0x139D JUMP JUMPDEST JUMPDEST EQ PUSH2 0xAE0 JUMPI PUSH1 0x40 MLOAD PUSH32 0x8C379A000000000000000000000000000000000000000000000000000000000 DUP2 MSTORE PUSH1 0x4 ADD PUSH2 0xAD7 SWAP1 PUSH2 0x1AFE JUMP JUMPDEST PUSH1 0x40 MLOAD DUP1 SWAP2 SUB SWAP1 REVERT JUMPDEST DUP1 PUSH1 0x4 ADD PUSH1 0x0 SWAP1 SLOAD SWAP1 PUSH2 0x100 EXP SWAP1 DIV PUSH20 0xFFFFFFFFFFFFFFFFFFFFFFFFFFFFFFFFFFFFFFFF AND PUSH20 0xFFFFFFFFFFFFFFFFFFFFFFFFFFFFFFFFFFFFFFFF AND CALLER PUSH20 0xFFFFFFFFFFFFFFFFFFFFFFFFFFFFFFFFFFFFFFFF AND EQ PUSH2 0xB72 JUMPI PUSH1 0x40 MLOAD PUSH32 0x8C379A000000000000000000000000000000000000000000000000000000000 DUP2 MSTORE PUSH1 0x4 ADD PUSH2 0xB69 SWAP1 PUSH2 0x1D04 JUMP JUMPDEST PUSH1 0x40 MLOAD DUP1 SWAP2 SUB SWAP1 REVERT JUMPDEST PUSH1 0x1 DUP2 PUSH1 0x6 ADD PUSH1 0x14 PUSH2 0x100 EXP DUP2 SLOAD DUP2 PUSH1 0xFF MUL NOT AND SWAP1 DUP4 PUSH1 0x3 DUP2 GT ISZERO PUSH2 0xB9A JUMPI PUSH2 0xB99 PUSH2 0x139D JUMP JUMPDEST JUMPDEST MUL OR SWAP1 SSTORE POP PUSH32 0xCF05A7B6E0E16465DBF39C9DED584A1365BD6B2B299BFFA12B9E0E671C0DDB39 DUP4 DUP4 DUP4 PUSH1 0x5 ADD PUSH1 0x0 SWAP1 SLOAD SWAP1 PUSH2 0x100 EXP SWAP1 DIV PUSH20 0xFFFFFFFFFFFFFFFFFFFFFFFFFFFFFFFFFFFFFFFF AND PUSH1 0x40 MLOAD PUSH2 0xBF6 SWAP4 SWAP3 SWAP2 SWAP1 PUSH2 0x1B8A JUMP JUMPDEST PUSH1 0x40 MLOAD DUP1 SWAP2 SUB SWAP1 LOG1 POP POP POP JUMP JUMPDEST PUSH2 0xC0B PUSH2 0xEB4 JUMP JUMPDEST PUSH1 0x0 DUP4 DUP4 PUSH1 0x40 MLOAD PUSH2 0xC1D SWAP3 SWAP2 SWAP1 PUSH2 0x166D JUMP JUMPDEST SWAP1 DUP2 MSTORE PUSH1 0x20 ADD PUSH1 0x40 MLOAD DUP1 SWAP2 SUB SWAP1 KECCAK256 PUSH1 0x40 MLOAD DUP1 PUSH2 0x100 ADD PUSH1 0x40 MSTORE SWAP1 DUP2 PUSH1 0x0 DUP3 ADD DUP1 SLOAD PUSH2 0xC47 SWAP1 PUSH2 0x178D JUMP JUMPDEST DUP1 PUSH1 0x1F ADD PUSH1 0x20 DUP1 SWAP2 DIV MUL PUSH1 0x20 ADD PUSH1 0x40 MLOAD SWAP1 DUP2 ADD PUSH1 0x40 MSTORE DUP1 SWAP3 SWAP2 SWAP1 DUP2 DUP2 MSTORE PUSH1 0x20 ADD DUP3 DUP1 SLOAD PUSH2 0xC73 SWAP1 PUSH2 0x178D JUMP JUMPDEST DUP1 ISZERO PUSH2 0xCC0 JUMPI DUP1 PUSH1 0x1F LT PUSH2 0xC95 JUMPI PUSH2 0x100 DUP1 DUP4 SLOAD DIV MUL DUP4 MSTORE SWAP2 PUSH1 0x20 ADD SWAP2 PUSH2 0xCC0 JUMP JUMPDEST DUP3 ADD SWAP2 SWAP1 PUSH1 0x0 MSTORE PUSH1 0x20 PUSH1 0x0 KECCAK256 SWAP1 JUMPDEST DUP2 SLOAD DUP2 MSTORE SWAP1 PUSH1 0x1 ADD SWAP1 PUSH1 0x20 ADD DUP1 DUP4 GT PUSH2 0xCA3 JUMPI DUP3 SWAP1 SUB PUSH1 0x1F AND DUP3 ADD SWAP2 JUMPDEST POP POP POP POP POP DUP2 MSTORE PUSH1 0x20 ADD PUSH1 0x1 DUP3 ADD DUP1 SLOAD PUSH2 0xCD9 SWAP1 PUSH2 0x178D JUMP JUMPDEST DUP1 PUSH1 0x1F ADD PUSH1 0x20 DUP1 SWAP2 DIV MUL PUSH1 0x20 ADD PUSH1 0x40 MLOAD SWAP1 DUP2 ADD PUSH1 0x40 MSTORE DUP1 SWAP3 SWAP2 SWAP1 DUP2 DUP2 MSTORE PUSH1 0x20 ADD DUP3 DUP1 SLOAD PUSH2 0xD05 SWAP1 PUSH2 0x178D JUMP JUMPDEST DUP1 ISZERO PUSH2 0xD52 JUMPI DUP1 PUSH1 0x1F LT PUSH2 0xD27 JUMPI PUSH2 0x100 DUP1 DUP4 SLOAD DIV MUL DUP4 MSTORE SWAP2 PUSH1 0x20 ADD SWAP2 PUSH2 0xD52 JUMP JUMPDEST DUP3 ADD SWAP2 SWAP1 PUSH1 0x0 MSTORE PUSH1 0x20 PUSH1 0x0 KECCAK256 SWAP1 JUMPDEST DUP2 SLOAD DUP2 MSTORE SWAP1 PUSH1 0x1 ADD SWAP1 PUSH1 0x20 ADD DUP1 DUP4 GT PUSH2 0xD35 JUMPI DUP3 SWAP1 SUB PUSH1 0x1F AND DUP3 ADD SWAP2 JUMPDEST POP POP POP POP POP DUP2 MSTORE PUSH1 0x20 ADD PUSH1 0x2 DUP3 ADD SLOAD DUP2 MSTORE PUSH1 0x20 ADD PUSH1 0x3 DUP3 ADD SLOAD DUP2 MSTORE PUSH1 0x20 ADD PUSH1 0x4 DUP3 ADD PUSH1 0x0 SWAP1 SLOAD SWAP1 PUSH2 0x100 EXP SWAP1 DIV PUSH20 0xFFFFFFFFFFFFFFFFFFFFFFFFFFFFFFFFFFFFFFFF AND PUSH20 0xFFFFFFFFFFFFFFFFFFFFFFFFFFFFFFFFFFFFFFFF AND PUSH20 0xFFFFFFFFFFFFFFFFFFFFFFFFFFFFFFFFFFFFFFFF AND DUP2 MSTORE PUSH1 0x20 ADD PUSH1 0x5 DUP3 ADD PUSH1 0x0 SWAP1 SLOAD SWAP1 PUSH2 0x100 EXP SWAP1 DIV PUSH20 0xFFFFFFFFFFFFFFFFFFFFFFFFFFFFFFFFFFFFFFFF AND PUSH20 0xFFFFFFFFFFFFFFFFFFFFFFFFFFFFFFFFFFFFFFFF AND PUSH20 0xFFFFFFFFFFFFFFFFFFFFFFFFFFFFFFFFFFFFFFFF AND DUP2 MSTORE PUSH1 0x20 ADD PUSH1 0x6 DUP3 ADD PUSH1 0x0 SWAP1 SLOAD SWAP1 PUSH2 0x100 EXP SWAP1 DIV PUSH20 0xFFFFFFFFFFFFFFFFFFFFFFFFFFFFFFFFFFFFFFFF AND PUSH20 0xFFFFFFFFFFFFFFFFFFFFFFFFFFFFFFFFFFFFFFFF AND PUSH20 0xFFFFFFFFFFFFFFFFFFFFFFFFFFFFFFFFFFFFFFFF AND DUP2 MSTORE PUSH1 0x20 ADD PUSH1 0x6 DUP3 ADD PUSH1 0x14 SWAP1 SLOAD SWAP1 PUSH2 0x100 EXP SWAP1 DIV PUSH1 0xFF AND PUSH1 0x3 DUP2 GT ISZERO PUSH2 0xE96 JUMPI PUSH2 0xE95 PUSH2 0x139D JUMP JUMPDEST JUMPDEST PUSH1 0x3 DUP2 GT ISZERO PUSH2 0xEA8 JUMPI PUSH2 0xEA7 PUSH2 0x139D JUMP JUMPDEST JUMPDEST DUP2 MSTORE POP POP SWAP1 POP SWAP3 SWAP2 POP POP JUMP JUMPDEST PUSH1 0x40 MLOAD DUP1 PUSH2 0x100 ADD PUSH1 0x40 MSTORE DUP1 PUSH1 0x60 DUP2 MSTORE PUSH1 0x20 ADD PUSH1 0x60 DUP2 MSTORE PUSH1 0x20 ADD PUSH1 0x0 DUP2 MSTORE PUSH1 0x20 ADD PUSH1 0x0 DUP2 MSTORE PUSH1 0x20 ADD PUSH1 0x0 PUSH20 0xFFFFFFFFFFFFFFFFFFFFFFFFFFFFFFFFFFFFFFFF AND DUP2 MSTORE PUSH1 0x20 ADD PUSH1 0x0 PUSH20 0xFFFFFFFFFFFFFFFFFFFFFFFFFFFFFFFFFFFFFFFF AND DUP2 MSTORE PUSH1 0x20 ADD PUSH1 0x0 PUSH20 0xFFFFFFFFFFFFFFFFFFFFFFFFFFFFFFFFFFFFFFFF AND DUP2 MSTORE PUSH1 0x20 ADD PUSH1 0x0 PUSH1 0x3 DUP2 GT ISZERO PUSH2 0xF47 JUMPI PUSH2 0xF46 PUSH2 0x139D JUMP JUMPDEST JUMPDEST DUP2 MSTORE POP SWAP1 JUMP JUMPDEST PUSH1 0x0 PUSH1 0x40 MLOAD SWAP1 POP SWAP1 JUMP JUMPDEST PUSH1 0x0 DUP1 REVERT JUMPDEST PUSH1 0x0 DUP1 REVERT JUMPDEST PUSH1 0x0 DUP1 REVERT JUMPDEST PUSH1 0x0 DUP1 REVERT JUMPDEST PUSH1 0x0 DUP1 REVERT JUMPDEST PUSH1 0x0 DUP1 DUP4 PUSH1 0x1F DUP5 ADD SLT PUSH2 0xF86 JUMPI PUSH2 0xF85 PUSH2 0xF61 JUMP JUMPDEST JUMPDEST DUP3 CALLDATALOAD SWAP1 POP PUSH8 0xFFFFFFFFFFFFFFFF DUP2 GT ISZERO PUSH2 0xFA3 JUMPI PUSH2 0xFA2 PUSH2 0xF66 JUMP JUMPDEST JUMPDEST PUSH1 0x20 DUP4 ADD SWAP2 POP DUP4 PUSH1 0x1 DUP3 MUL DUP4 ADD GT ISZERO PUSH2 0xFBF JUMPI PUSH2 0xFBE PUSH2 0xF6B JUMP JUMPDEST JUMPDEST SWAP3 POP SWAP3 SWAP1 POP JUMP JUMPDEST PUSH1 0x0 DUP2 SWAP1 POP SWAP2 SWAP1 POP JUMP JUMPDEST PUSH2 0xFD9 DUP2 PUSH2 0xFC6 JUMP JUMPDEST DUP2 EQ PUSH2 0xFE4 JUMPI PUSH1 0x0 DUP1 REVERT JUMPDEST POP JUMP JUMPDEST PUSH1 0x0 DUP2 CALLDATALOAD SWAP1 POP PUSH2 0xFF6 DUP2 PUSH2 0xFD0 JUMP JUMPDEST SWAP3 SWAP2 POP POP JUMP JUMPDEST PUSH1 0x0 PUSH20 0xFFFFFFFFFFFFFFFFFFFFFFFFFFFFFFFFFFFFFFFF DUP3 AND SWAP1 POP SWAP2 SWAP1 POP JUMP JUMPDEST PUSH1 0x0 PUSH2 0x1027 DUP3 PUSH2 0xFFC JUMP JUMPDEST SWAP1 POP SWAP2 SWAP1 POP JUMP JUMPDEST PUSH2 0x1037 DUP2 PUSH2 0x101C JUMP JUMPDEST DUP2 EQ PUSH2 0x1042 JUMPI PUSH1 0x0 DUP1 REVERT JUMPDEST POP JUMP JUMPDEST PUSH1 0x0 DUP2 CALLDATALOAD SWAP1 POP PUSH2 0x1054 DUP2 PUSH2 0x102E JUMP JUMPDEST SWAP3 SWAP2 POP POP JUMP JUMPDEST PUSH1 0x0 DUP1 PUSH1 0x0 DUP1 PUSH1 0x0 DUP1 PUSH1 0x0 PUSH1 0xA0 DUP9 DUP11 SUB SLT ISZERO PUSH2 0x1079 JUMPI PUSH2 0x1078 PUSH2 0xF57 JUMP JUMPDEST JUMPDEST PUSH1 0x0 DUP9 ADD CALLDATALOAD PUSH8 0xFFFFFFFFFFFFFFFF DUP2 GT ISZERO PUSH2 0x1097 JUMPI PUSH2 0x1096 PUSH2 0xF5C JUMP JUMPDEST JUMPDEST PUSH2 0x10A3 DUP11 DUP3 DUP12 ADD PUSH2 0xF70 JUMP JUMPDEST SWAP8 POP SWAP8 POP POP PUSH1 0x20 DUP9 ADD CALLDATALOAD PUSH8 0xFFFFFFFFFFFFFFFF DUP2 GT ISZERO PUSH2 0x10C6 JUMPI PUSH2 0x10C5 PUSH2 0xF5C JUMP JUMPDEST JUMPDEST PUSH2 0x10D2 DUP11 DUP3 DUP12 ADD PUSH2 0xF70 JUMP JUMPDEST SWAP6 POP SWAP6 POP POP PUSH1 0x40 PUSH2 0x10E5 DUP11 DUP3 DUP12 ADD PUSH2 0xFE7 JUMP JUMPDEST SWAP4 POP POP PUSH1 0x60 PUSH2 0x10F6 DUP11 DUP3 DUP12 ADD PUSH2 0xFE7 JUMP JUMPDEST SWAP3 POP POP PUSH1 0x80 PUSH2 0x1107 DUP11 DUP3 DUP12 ADD PUSH2 0x1045 JUMP JUMPDEST SWAP2 POP POP SWAP3 SWAP6 SWAP9 SWAP2 SWAP5 SWAP8 POP SWAP3 SWAP6 POP JUMP JUMPDEST PUSH1 0x0 DUP1 PUSH1 0x0 PUSH1 0x40 DUP5 DUP7 SUB SLT ISZERO PUSH2 0x112F JUMPI PUSH2 0x112E PUSH2 0xF57 JUMP JUMPDEST JUMPDEST PUSH1 0x0 DUP5 ADD CALLDATALOAD PUSH8 0xFFFFFFFFFFFFFFFF DUP2 GT ISZERO PUSH2 0x114D JUMPI PUSH2 0x114C PUSH2 0xF5C JUMP JUMPDEST JUMPDEST PUSH2 0x1159 DUP7 DUP3 DUP8 ADD PUSH2 0xF70 JUMP JUMPDEST SWAP4 POP SWAP4 POP POP PUSH1 0x20 PUSH2 0x116C DUP7 DUP3 DUP8 ADD PUSH2 0x1045 JUMP JUMPDEST SWAP2 POP POP SWAP3 POP SWAP3 POP SWAP3 JUMP JUMPDEST PUSH1 0x0 DUP1 REVERT JUMPDEST PUSH1 0x0 PUSH1 0x1F NOT PUSH1 0x1F DUP4 ADD AND SWAP1 POP SWAP2 SWAP1 POP JUMP JUMPDEST PUSH32 0x4E487B7100000000000000000000000000000000000000000000000000000000 PUSH1 0x0 MSTORE PUSH1 0x41 PUSH1 0x4 MSTORE PUSH1 0x24 PUSH1 0x0 REVERT JUMPDEST PUSH2 0x11C4 DUP3 PUSH2 0x117B JUMP JUMPDEST DUP2 ADD DUP2 DUP2 LT PUSH8 0xFFFFFFFFFFFFFFFF DUP3 GT OR ISZERO PUSH2 0x11E3 JUMPI PUSH2 0x11E2 PUSH2 0x118C JUMP JUMPDEST JUMPDEST DUP1 PUSH1 0x40 MSTORE POP POP POP JUMP JUMPDEST PUSH1 0x0 PUSH2 0x11F6 PUSH2 0xF4D JUMP JUMPDEST SWAP1 POP PUSH2 0x1202 DUP3 DUP3 PUSH2 0x11BB JUMP JUMPDEST SWAP2 SWAP1 POP JUMP JUMPDEST PUSH1 0x0 PUSH8 0xFFFFFFFFFFFFFFFF DUP3 GT ISZERO PUSH2 0x1222 JUMPI PUSH2 0x1221 PUSH2 0x118C JUMP JUMPDEST JUMPDEST PUSH2 0x122B DUP3 PUSH2 0x117B JUMP JUMPDEST SWAP1 POP PUSH1 0x20 DUP2 ADD SWAP1 POP SWAP2 SWAP1 POP JUMP JUMPDEST DUP3 DUP2 DUP4 CALLDATACOPY PUSH1 0x0 DUP4 DUP4 ADD MSTORE POP POP POP JUMP JUMPDEST PUSH1 0x0 PUSH2 0x125A PUSH2 0x1255 DUP5 PUSH2 0x1207 JUMP JUMPDEST PUSH2 0x11EC JUMP JUMPDEST SWAP1 POP DUP3 DUP2 MSTORE PUSH1 0x20 DUP2 ADD DUP5 DUP5 DUP5 ADD GT ISZERO PUSH2 0x1276 JUMPI PUSH2 0x1275 PUSH2 0x1176 JUMP JUMPDEST JUMPDEST PUSH2 0x1281 DUP5 DUP3 DUP6 PUSH2 0x1238 JUMP JUMPDEST POP SWAP4 SWAP3 POP POP POP JUMP JUMPDEST PUSH1 0x0 DUP3 PUSH1 0x1F DUP4 ADD SLT PUSH2 0x129E JUMPI PUSH2 0x129D PUSH2 0xF61 JUMP JUMPDEST JUMPDEST DUP2 CALLDATALOAD PUSH2 0x12AE DUP5 DUP3 PUSH1 0x20 DUP7 ADD PUSH2 0x1247 JUMP JUMPDEST SWAP2 POP POP SWAP3 SWAP2 POP POP JUMP JUMPDEST PUSH1 0x0 PUSH1 0x20 DUP3 DUP5 SUB SLT ISZERO PUSH2 0x12CD JUMPI PUSH2 0x12CC PUSH2 0xF57 JUMP JUMPDEST JUMPDEST PUSH1 0x0 DUP3 ADD CALLDATALOAD PUSH8 0xFFFFFFFFFFFFFFFF DUP2 GT ISZERO PUSH2 0x12EB JUMPI PUSH2 0x12EA PUSH2 0xF5C JUMP JUMPDEST JUMPDEST PUSH2 0x12F7 DUP5 DUP3 DUP6 ADD PUSH2 0x1289 JUMP JUMPDEST SWAP2 POP POP SWAP3 SWAP2 POP POP JUMP JUMPDEST PUSH1 0x0 DUP2 MLOAD SWAP1 POP SWAP2 SWAP1 POP JUMP JUMPDEST PUSH1 0x0 DUP3 DUP3 MSTORE PUSH1 0x20 DUP3 ADD SWAP1 POP SWAP3 SWAP2 POP POP JUMP JUMPDEST PUSH1 0x0 JUMPDEST DUP4 DUP2 LT ISZERO PUSH2 0x133A JUMPI DUP1 DUP3 ADD MLOAD DUP2 DUP5 ADD MSTORE PUSH1 0x20 DUP2 ADD SWAP1 POP PUSH2 0x131F JUMP JUMPDEST PUSH1 0x0 DUP5 DUP5 ADD MSTORE POP POP POP POP JUMP JUMPDEST PUSH1 0x0 PUSH2 0x1351 DUP3 PUSH2 0x1300 JUMP JUMPDEST PUSH2 0x135B DUP2 DUP6 PUSH2 0x130B JUMP JUMPDEST SWAP4 POP PUSH2 0x136B DUP2 DUP6 PUSH1 0x20 DUP7 ADD PUSH2 0x131C JUMP JUMPDEST PUSH2 0x1374 DUP2 PUSH2 0x117B JUMP JUMPDEST DUP5 ADD SWAP2 POP POP SWAP3 SWAP2 POP POP JUMP JUMPDEST PUSH2 0x1388 DUP2 PUSH2 0xFC6 JUMP JUMPDEST DUP3 MSTORE POP POP JUMP JUMPDEST PUSH2 0x1397 DUP2 PUSH2 0x101C JUMP JUMPDEST DUP3 MSTORE POP POP JUMP JUMPDEST PUSH32 0x4E487B7100000000000000000000000000000000000000000000000000000000 PUSH1 0x0 MSTORE PUSH1 0x21 PUSH1 0x4 MSTORE PUSH1 0x24 PUSH1 0x0 REVERT JUMPDEST PUSH1 0x4 DUP2 LT PUSH2 0x13DD JUMPI PUSH2 0x13DC PUSH2 0x139D JUMP JUMPDEST JUMPDEST POP JUMP JUMPDEST PUSH1 0x0 DUP2 SWAP1 POP PUSH2 0x13EE DUP3 PUSH2 0x13CC JUMP JUMPDEST SWAP2 SWAP1 POP JUMP JUMPDEST PUSH1 0x0 PUSH2 0x13FE DUP3 PUSH2 0x13E0 JUMP JUMPDEST SWAP1 POP SWAP2 SWAP1 POP JUMP JUMPDEST PUSH2 0x140E DUP2 PUSH2 0x13F3 JUMP JUMPDEST DUP3 MSTORE POP POP JUMP JUMPDEST PUSH1 0x0 PUSH2 0x100 DUP3 ADD SWAP1 POP DUP2 DUP2 SUB PUSH1 0x0 DUP4 ADD MSTORE PUSH2 0x142F DUP2 DUP12 PUSH2 0x1346 JUMP JUMPDEST SWAP1 POP DUP2 DUP2 SUB PUSH1 0x20 DUP4 ADD MSTORE PUSH2 0x1443 DUP2 DUP11 PUSH2 0x1346 JUMP JUMPDEST SWAP1 POP PUSH2 0x1452 PUSH1 0x40 DUP4 ADD DUP10 PUSH2 0x137F JUMP JUMPDEST PUSH2 0x145F PUSH1 0x60 DUP4 ADD DUP9 PUSH2 0x137F JUMP JUMPDEST PUSH2 0x146C PUSH1 0x80 DUP4 ADD DUP8 PUSH2 0x138E JUMP JUMPDEST PUSH2 0x1479 PUSH1 0xA0 DUP4 ADD DUP7 PUSH2 0x138E JUMP JUMPDEST PUSH2 0x1486 PUSH1 0xC0 DUP4 ADD DUP6 PUSH2 0x138E JUMP JUMPDEST PUSH2 0x1493 PUSH1 0xE0 DUP4 ADD DUP5 PUSH2 0x1405 JUMP JUMPDEST SWAP10 SWAP9 POP POP POP POP POP POP POP POP POP JUMP JUMPDEST PUSH1 0x0 DUP1 PUSH1 0x20 DUP4 DUP6 SUB SLT ISZERO PUSH2 0x14B7 JUMPI PUSH2 0x14B6 PUSH2 0xF57 JUMP JUMPDEST JUMPDEST PUSH1 0x0 DUP4 ADD CALLDATALOAD PUSH8 0xFFFFFFFFFFFFFFFF DUP2 GT ISZERO PUSH2 0x14D5 JUMPI PUSH2 0x14D4 PUSH2 0xF5C JUMP JUMPDEST JUMPDEST PUSH2 0x14E1 DUP6 DUP3 DUP7 ADD PUSH2 0xF70 JUMP JUMPDEST SWAP3 POP SWAP3 POP POP SWAP3 POP SWAP3 SWAP1 POP JUMP JUMPDEST PUSH1 0x0 DUP3 DUP3 MSTORE PUSH1 0x20 DUP3 ADD SWAP1 POP SWAP3 SWAP2 POP POP JUMP JUMPDEST PUSH1 0x0 PUSH2 0x1509 DUP3 PUSH2 0x1300 JUMP JUMPDEST PUSH2 0x1513 DUP2 DUP6 PUSH2 0x14ED JUMP JUMPDEST SWAP4 POP PUSH2 0x1523 DUP2 DUP6 PUSH1 0x20 DUP7 ADD PUSH2 0x131C JUMP JUMPDEST PUSH2 0x152C DUP2 PUSH2 0x117B JUMP JUMPDEST DUP5 ADD SWAP2 POP POP SWAP3 SWAP2 POP POP JUMP JUMPDEST PUSH2 0x1540 DUP2 PUSH2 0xFC6 JUMP JUMPDEST DUP3 MSTORE POP POP JUMP JUMPDEST PUSH2 0x154F DUP2 PUSH2 0x101C JUMP JUMPDEST DUP3 MSTORE POP POP JUMP JUMPDEST PUSH2 0x155E DUP2 PUSH2 0x13F3 JUMP JUMPDEST DUP3 MSTORE POP POP JUMP JUMPDEST PUSH1 0x0 PUSH2 0x100 DUP4 ADD PUSH1 0x0 DUP4 ADD MLOAD DUP5 DUP3 SUB PUSH1 0x0 DUP7 ADD MSTORE PUSH2 0x1582 DUP3 DUP3 PUSH2 0x14FE JUMP JUMPDEST SWAP2 POP POP PUSH1 0x20 DUP4 ADD MLOAD DUP5 DUP3 SUB PUSH1 0x20 DUP7 ADD MSTORE PUSH2 0x159C DUP3 DUP3 PUSH2 0x14FE JUMP JUMPDEST SWAP2 POP POP PUSH1 0x40 DUP4 ADD MLOAD PUSH2 0x15B1 PUSH1 0x40 DUP7 ADD DUP3 PUSH2 0x1537 JUMP JUMPDEST POP PUSH1 0x60 DUP4 ADD MLOAD PUSH2 0x15C4 PUSH1 0x60 DUP7 ADD DUP3 PUSH2 0x1537 JUMP JUMPDEST POP PUSH1 0x80 DUP4 ADD MLOAD PUSH2 0x15D7 PUSH1 0x80 DUP7 ADD DUP3 PUSH2 0x1546 JUMP JUMPDEST POP PUSH1 0xA0 DUP4 ADD MLOAD PUSH2 0x15EA PUSH1 0xA0 DUP7 ADD DUP3 PUSH2 0x1546 JUMP JUMPDEST POP PUSH1 0xC0 DUP4 ADD MLOAD PUSH2 0x15FD PUSH1 0xC0 DUP7 ADD DUP3 PUSH2 0x1546 JUMP JUMPDEST POP PUSH1 0xE0 DUP4 ADD MLOAD PUSH2 0x1610 PUSH1 0xE0 DUP7 ADD DUP3 PUSH2 0x1555 JUMP JUMPDEST POP DUP1 SWAP2 POP POP SWAP3 SWAP2 POP POP JUMP JUMPDEST PUSH1 0x0 PUSH1 0x20 DUP3 ADD SWAP1 POP DUP2 DUP2 SUB PUSH1 0x0 DUP4 ADD MSTORE PUSH2 0x1635 DUP2 DUP5 PUSH2 0x1564 JUMP JUMPDEST SWAP1 POP SWAP3 SWAP2 POP POP JUMP JUMPDEST PUSH1 0x0 DUP2 SWAP1 POP SWAP3 SWAP2 POP POP JUMP JUMPDEST PUSH1 0x0 PUSH2 0x1654 DUP4 DUP6 PUSH2 0x163D JUMP JUMPDEST SWAP4 POP PUSH2 0x1661 DUP4 DUP6 DUP5 PUSH2 0x1238 JUMP JUMPDEST DUP3 DUP5 ADD SWAP1 POP SWAP4 SWAP3 POP POP POP JUMP JUMPDEST PUSH1 0x0 PUSH2 0x167A DUP3 DUP5 DUP7 PUSH2 0x1648 JUMP JUMPDEST SWAP2 POP DUP2 SWAP1 POP SWAP4 SWAP3 POP POP POP JUMP JUMPDEST PUSH32 0x6578697374730000000000000000000000000000000000000000000000000000 PUSH1 0x0 DUP3 ADD MSTORE POP JUMP JUMPDEST PUSH1 0x0 PUSH2 0x16BC PUSH1 0x6 DUP4 PUSH2 0x130B JUMP JUMPDEST SWAP2 POP PUSH2 0x16C7 DUP3 PUSH2 0x1686 JUMP JUMPDEST PUSH1 0x20 DUP3 ADD SWAP1 POP SWAP2 SWAP1 POP JUMP JUMPDEST PUSH1 0x0 PUSH1 0x20 DUP3 ADD SWAP1 POP DUP2 DUP2 SUB PUSH1 0x0 DUP4 ADD MSTORE PUSH2 0x16EB DUP2 PUSH2 0x16AF JUMP JUMPDEST SWAP1 POP SWAP2 SWAP1 POP JUMP JUMPDEST PUSH32 0x6261642064617465730000000000000000000000000000000000000000000000 PUSH1 0x0 DUP3 ADD MSTORE POP JUMP JUMPDEST PUSH1 0x0 PUSH2 0x1728 PUSH1 0x9 DUP4 PUSH2 0x130B JUMP JUMPDEST SWAP2 POP PUSH2 0x1733 DUP3 PUSH2 0x16F2 JUMP JUMPDEST PUSH1 0x20 DUP3 ADD SWAP1 POP SWAP2 SWAP1 POP JUMP JUMPDEST PUSH1 0x0 PUSH1 0x20 DUP3 ADD SWAP1 POP DUP2 DUP2 SUB PUSH1 0x0 DUP4 ADD MSTORE PUSH2 0x1757 DUP2 PUSH2 0x171B JUMP JUMPDEST SWAP1 POP SWAP2 SWAP1 POP JUMP JUMPDEST PUSH32 0x4E487B7100000000000000000000000000000000000000000000000000000000 PUSH1 0x0 MSTORE PUSH1 0x22 PUSH1 0x4 MSTORE PUSH1 0x24 PUSH1 0x0 REVERT JUMPDEST PUSH1 0x0 PUSH1 0x2 DUP3 DIV SWAP1 POP PUSH1 0x1 DUP3 AND DUP1 PUSH2 0x17A5 JUMPI PUSH1 0x7F DUP3 AND SWAP2 POP JUMPDEST PUSH1 0x20 DUP3 LT DUP2 SUB PUSH2 0x17B8 JUMPI PUSH2 0x17B7 PUSH2 0x175E JUMP JUMPDEST JUMPDEST POP SWAP2 SWAP1 POP JUMP JUMPDEST PUSH1 0x0 DUP2 SWAP1 POP DUP2 PUSH1 0x0 MSTORE PUSH1 0x20 PUSH1 0x0 KECCAK256 SWAP1 POP SWAP2 SWAP1 POP JUMP JUMPDEST PUSH1 0x0 PUSH1 0x20 PUSH1 0x1F DUP4 ADD DIV SWAP1 POP SWAP2 SWAP1 POP JUMP JUMPDEST PUSH1 0x0 DUP3 DUP3 SHL SWAP1 POP SWAP3 SWAP2 POP POP JUMP JUMPDEST PUSH1 0x0 PUSH1 0x8 DUP4 MUL PUSH2 0x1820 PUSH32 0xFFFFFFFFFFFFFFFFFFFFFFFFFFFFFFFFFFFFFFFFFFFFFFFFFFFFFFFFFFFFFFFF DUP3 PUSH2 0x17E3 JUMP JUMPDEST PUSH2 0x182A DUP7 DUP4 PUSH2 0x17E3 JUMP JUMPDEST SWAP6 POP DUP1 NOT DUP5 AND SWAP4 POP DUP1 DUP7 AND DUP5 OR SWAP3 POP POP POP SWAP4 SWAP3 POP POP POP JUMP JUMPDEST PUSH1 0x0 DUP2 SWAP1 POP SWAP2 SWAP1 POP JUMP JUMPDEST PUSH1 0x0 PUSH2 0x1867 PUSH2 0x1862 PUSH2 0x185D DUP5 PUSH2 0xFC6 JUMP JUMPDEST PUSH2 0x1842 JUMP JUMPDEST PUSH2 0xFC6 JUMP JUMPDEST SWAP1 POP SWAP2 SWAP1 POP JUMP JUMPDEST PUSH1 0x0 DUP2 SWAP1 POP SWAP2 SWAP1 POP JUMP JUMPDEST PUSH2 0x1881 DUP4 PUSH2 0x184C JUMP JUMPDEST PUSH2 0x1895 PUSH2 0x188D DUP3 PUSH2 0x186E JUMP JUMPDEST DUP5 DUP5 SLOAD PUSH2 0x17F0 JUMP JUMPDEST DUP3 SSTORE POP POP POP POP JUMP JUMPDEST PUSH1 0x0 SWAP1 JUMP JUMPDEST PUSH2 0x18AA PUSH2 0x189D JUMP JUMPDEST PUSH2 0x18B5 DUP2 DUP5 DUP5 PUSH2 0x1878 JUMP JUMPDEST POP POP POP JUMP JUMPDEST JUMPDEST DUP2 DUP2 LT ISZERO PUSH2 0x18D9 JUMPI PUSH2 0x18CE PUSH1 0x0 DUP3 PUSH2 0x18A2 JUMP JUMPDEST PUSH1 0x1 DUP2 ADD SWAP1 POP PUSH2 0x18BB JUMP JUMPDEST POP POP JUMP JUMPDEST PUSH1 0x1F DUP3 GT ISZERO PUSH2 0x191E JUMPI PUSH2 0x18EF DUP2 PUSH2 0x17BE JUMP JUMPDEST PUSH2 0x18F8 DUP5 PUSH2 0x17D3 JUMP JUMPDEST DUP2 ADD PUSH1 0x20 DUP6 LT ISZERO PUSH2 0x1907 JUMPI DUP2 SWAP1 POP JUMPDEST PUSH2 0x191B PUSH2 0x1913 DUP6 PUSH2 0x17D3 JUMP JUMPDEST DUP4 ADD DUP3 PUSH2 0x18BA JUMP JUMPDEST POP POP JUMPDEST POP POP POP JUMP JUMPDEST PUSH1 0x0 DUP3 DUP3 SHR SWAP1 POP SWAP3 SWAP2 POP POP JUMP JUMPDEST PUSH1 0x0 PUSH2 0x1941 PUSH1 0x0 NOT DUP5 PUSH1 0x8 MUL PUSH2 0x1923 JUMP JUMPDEST NOT DUP1 DUP4 AND SWAP2 POP POP SWAP3 SWAP2 POP POP JUMP JUMPDEST PUSH1 0x0 PUSH2 0x195A DUP4 DUP4 PUSH2 0x1930 JUMP JUMPDEST SWAP2 POP DUP3 PUSH1 0x2 MUL DUP3 OR SWAP1 POP SWAP3 SWAP2 POP POP JUMP JUMPDEST PUSH2 0x1973 DUP3 PUSH2 0x1300 JUMP JUMPDEST PUSH8 0xFFFFFFFFFFFFFFFF DUP2 GT ISZERO PUSH2 0x198C JUMPI PUSH2 0x198B PUSH2 0x118C JUMP JUMPDEST JUMPDEST PUSH2 0x1996 DUP3 SLOAD PUSH2 0x178D JUMP JUMPDEST PUSH2 0x19A1 DUP3 DUP3 DUP6 PUSH2 0x18DD JUMP JUMPDEST PUSH1 0x0 PUSH1 0x20 SWAP1 POP PUSH1 0x1F DUP4 GT PUSH1 0x1 DUP2 EQ PUSH2 0x19D4 JUMPI PUSH1 0x0 DUP5 ISZERO PUSH2 0x19C2 JUMPI DUP3 DUP8 ADD MLOAD SWAP1 POP JUMPDEST PUSH2 0x19CC DUP6 DUP3 PUSH2 0x194E JUMP JUMPDEST DUP7 SSTORE POP PUSH2 0x1A34 JUMP JUMPDEST PUSH1 0x1F NOT DUP5 AND PUSH2 0x19E2 DUP7 PUSH2 0x17BE JUMP JUMPDEST PUSH1 0x0 JUMPDEST DUP3 DUP2 LT ISZERO PUSH2 0x1A0A JUMPI DUP5 DUP10 ADD MLOAD DUP3 SSTORE PUSH1 0x1 DUP3 ADD SWAP2 POP PUSH1 0x20 DUP6 ADD SWAP5 POP PUSH1 0x20 DUP2 ADD SWAP1 POP PUSH2 0x19E5 JUMP JUMPDEST DUP7 DUP4 LT ISZERO PUSH2 0x1A27 JUMPI DUP5 DUP10 ADD MLOAD PUSH2 0x1A23 PUSH1 0x1F DUP10 AND DUP3 PUSH2 0x1930 JUMP JUMPDEST DUP4 SSTORE POP JUMPDEST PUSH1 0x1 PUSH1 0x2 DUP9 MUL ADD DUP9 SSTORE POP POP POP JUMPDEST POP POP POP POP POP POP JUMP JUMPDEST PUSH1 0x0 PUSH2 0x1A48 DUP4 DUP6 PUSH2 0x130B JUMP JUMPDEST SWAP4 POP PUSH2 0x1A55 DUP4 DUP6 DUP5 PUSH2 0x1238 JUMP JUMPDEST PUSH2 0x1A5E DUP4 PUSH2 0x117B JUMP JUMPDEST DUP5 ADD SWAP1 POP SWAP4 SWAP3 POP POP POP JUMP JUMPDEST PUSH1 0x0 PUSH1 0x60 DUP3 ADD SWAP1 POP DUP2 DUP2 SUB PUSH1 0x0 DUP4 ADD MSTORE PUSH2 0x1A84 DUP2 DUP8 DUP10 PUSH2 0x1A3C JUMP JUMPDEST SWAP1 POP DUP2 DUP2 SUB PUSH1 0x20 DUP4 ADD MSTORE PUSH2 0x1A99 DUP2 DUP6 DUP8 PUSH2 0x1A3C JUMP JUMPDEST SWAP1 POP PUSH2 0x1AA8 PUSH1 0x40 DUP4 ADD DUP5 PUSH2 0x138E JUMP JUMPDEST SWAP7 SWAP6 POP POP POP POP POP POP JUMP JUMPDEST PUSH32 0x6261642073746174650000000000000000000000000000000000000000000000 PUSH1 0x0 DUP3 ADD MSTORE POP JUMP JUMPDEST PUSH1 0x0 PUSH2 0x1AE8 PUSH1 0x9 DUP4 PUSH2 0x130B JUMP JUMPDEST SWAP2 POP PUSH2 0x1AF3 DUP3 PUSH2 0x1AB2 JUMP JUMPDEST PUSH1 0x20 DUP3 ADD SWAP1 POP SWAP2 SWAP1 POP JUMP JUMPDEST PUSH1 0x0 PUSH1 0x20 DUP3 ADD SWAP1 POP DUP2 DUP2 SUB PUSH1 0x0 DUP4 ADD MSTORE PUSH2 0x1B17 DUP2 PUSH2 0x1ADB JUMP JUMPDEST SWAP1 POP SWAP2 SWAP1 POP JUMP JUMPDEST PUSH32 0x6F6E6C79206469737472696275746F7200000000000000000000000000000000 PUSH1 0x0 DUP3 ADD MSTORE POP JUMP JUMPDEST PUSH1 0x0 PUSH2 0x1B54 PUSH1 0x10 DUP4 PUSH2 0x130B JUMP JUMPDEST SWAP2 POP PUSH2 0x1B5F DUP3 PUSH2 0x1B1E JUMP JUMPDEST PUSH1 0x20 DUP3 ADD SWAP1 POP SWAP2 SWAP1 POP JUMP JUMPDEST PUSH1 0x0 PUSH1 0x20 DUP3 ADD SWAP1 POP DUP2 DUP2 SUB PUSH1 0x0 DUP4 ADD MSTORE PUSH2 0x1B83 DUP2 PUSH2 0x1B47 JUMP JUMPDEST SWAP1 POP SWAP2 SWAP1 POP JUMP JUMPDEST PUSH1 0x0 PUSH1 0x40 DUP3 ADD SWAP1 POP DUP2 DUP2 SUB PUSH1 0x0 DUP4 ADD MSTORE PUSH2 0x1BA5 DUP2 DUP6 DUP8 PUSH2 0x1A3C JUMP JUMPDEST SWAP1 POP PUSH2 0x1BB4 PUSH1 0x20 DUP4 ADD DUP5 PUSH2 0x138E JUMP JUMPDEST SWAP5 SWAP4 POP POP POP POP JUMP JUMPDEST PUSH32 0x6F6E6C7920706861726D61637900000000000000000000000000000000000000 PUSH1 0x0 DUP3 ADD MSTORE POP JUMP JUMPDEST PUSH1 0x0 PUSH2 0x1BF2 PUSH1 0xD DUP4 PUSH2 0x130B JUMP JUMPDEST SWAP2 POP PUSH2 0x1BFD DUP3 PUSH2 0x1BBC JUMP JUMPDEST PUSH1 0x20 DUP3 ADD SWAP1 POP SWAP2 SWAP1 POP JUMP JUMPDEST PUSH1 0x0 PUSH1 0x20 DUP3 ADD SWAP1 POP DUP2 DUP2 SUB PUSH1 0x0 DUP4 ADD MSTORE PUSH2 0x1C21 DUP2 PUSH2 0x1BE5 JUMP JUMPDEST SWAP1 POP SWAP2 SWAP1 POP JUMP JUMPDEST PUSH1 0x0 PUSH1 0x20 DUP3 ADD SWAP1 POP DUP2 DUP2 SUB PUSH1 0x0 DUP4 ADD MSTORE PUSH2 0x1C43 DUP2 DUP5 DUP7 PUSH2 0x1A3C JUMP JUMPDEST SWAP1 POP SWAP4 SWAP3 POP POP POP JUMP JUMPDEST PUSH32 0x6E6F206261746368000000000000000000000000000000000000000000000000 PUSH1 0x0 DUP3 ADD MSTORE POP JUMP JUMPDEST PUSH1 0x0 PUSH2 0x1C82 PUSH1 0x8 DUP4 PUSH2 0x130B JUMP JUMPDEST SWAP2 POP PUSH2 0x1C8D DUP3 PUSH2 0x1C4C JUMP JUMPDEST PUSH1 0x20 DUP3 ADD SWAP1 POP SWAP2 SWAP1 POP JUMP JUMPDEST PUSH1 0x0 PUSH1 0x20 DUP3 ADD SWAP1 POP DUP2 DUP2 SUB PUSH1 0x0 DUP4 ADD MSTORE PUSH2 0x1CB1 DUP2 PUSH2 0x1C75 JUMP JUMPDEST SWAP1 POP SWAP2 SWAP1 POP JUMP JUMPDEST PUSH32 0x6F6E6C79206D616E756661637475726572000000000000000000000000000000 PUSH1 0x0 DUP3 ADD MSTORE POP JUMP JUMPDEST PUSH1 0x0 PUSH2 0x1CEE PUSH1 0x11 DUP4 PUSH2 0x130B JUMP JUMPDEST SWAP2 POP PUSH2 0x1CF9 DUP3 PUSH2 0x1CB8 JUMP JUMPDEST PUSH1 0x20 DUP3 ADD SWAP1 POP SWAP2 SWAP1 POP JUMP JUMPDEST PUSH1 0x0 PUSH1 0x20 DUP3 ADD SWAP1 POP DUP2 DUP2 SUB PUSH1 0x0 DUP4 ADD MSTORE PUSH2 0x1D1D DUP2 PUSH2 0x1CE1 JUMP JUMPDEST SWAP1 POP SWAP2 SWAP1 POP JUMP INVALID LOG2 PUSH5 0x6970667358 0x22 SLT KECCAK256 PUSH4 0xD4727448 0xDE 0xB0 SELFDESTRUCT 0xBF 0xD2 DIV SLOAD PUSH16 0x7C27DB1709464B35E775298A26E08F2C PUSH27 0x6B3E64736F6C634300081800330000000000000000000000000000 "
				},
				"gasEstimates": {
					"creation": {
						"codeDepositCost": "1502800",
						"executionCost": "1568",
						"totalCost": "1504368"
					},
					"external": {
						"batches(string)": "infinite",
						"createBatch(string,string,uint256,uint256,address)": "infinite",
						"getBatch(string)": "infinite",
						"markSold(string)": "infinite",
						"receiveAtPharmacy(string,address)": "infinite",
						"ship(string)": "infinite"
					}
				},
				"methodIdentifiers": {
					"batches(string)": "7ef1446a",
					"createBatch(string,string,uint256,uint256,address)": "0ed5bdae",
					"getBatch(string)": "f9ca4274",
					"markSold(string)": "951d1029",
					"receiveAtPharmacy(string,address)": "2692fdec",
					"ship(string)": "dd3fa136"
				}
			},
			"storageLayout": {
				"storage": [
					{
						"astId": 30,
						"contract": "contracts/SupplyChain.sol:SupplyChain",
						"label": "batches",
						"offset": 0,
						"slot": "0",
						"type": "t_mapping(t_string_memory_ptr,t_struct(Batch)25_storage)"
					}
				],
				"types": {
					"t_address": {
						"encoding": "inplace",
						"label": "address",
						"numberOfBytes": "20"
					},
					"t_enum(State)7": {
						"encoding": "inplace",
						"label": "enum SupplyChain.State",
						"numberOfBytes": "1"
					},
					"t_mapping(t_string_memory_ptr,t_struct(Batch)25_storage)": {
						"encoding": "mapping",
						"key": "t_string_memory_ptr",
						"label": "mapping(string => struct SupplyChain.Batch)",
						"numberOfBytes": "32",
						"value": "t_struct(Batch)25_storage"
					},
					"t_string_memory_ptr": {
						"encoding": "bytes",
						"label": "string",
						"numberOfBytes": "32"
					},
					"t_string_storage": {
						"encoding": "bytes",
						"label": "string",
						"numberOfBytes": "32"
					},
					"t_struct(Batch)25_storage": {
						"encoding": "inplace",
						"label": "struct SupplyChain.Batch",
						"members": [
							{
								"astId": 9,
								"contract": "contracts/SupplyChain.sol:SupplyChain",
								"label": "drugName",
								"offset": 0,
								"slot": "0",
								"type": "t_string_storage"
							},
							{
								"astId": 11,
								"contract": "contracts/SupplyChain.sol:SupplyChain",
								"label": "batchId",
								"offset": 0,
								"slot": "1",
								"type": "t_string_storage"
							},
							{
								"astId": 13,
								"contract": "contracts/SupplyChain.sol:SupplyChain",
								"label": "mfgDate",
								"offset": 0,
								"slot": "2",
								"type": "t_uint256"
							},
							{
								"astId": 15,
								"contract": "contracts/SupplyChain.sol:SupplyChain",
								"label": "expDate",
								"offset": 0,
								"slot": "3",
								"type": "t_uint256"
							},
							{
								"astId": 17,
								"contract": "contracts/SupplyChain.sol:SupplyChain",
								"label": "manufacturer",
								"offset": 0,
								"slot": "4",
								"type": "t_address"
							},
							{
								"astId": 19,
								"contract": "contracts/SupplyChain.sol:SupplyChain",
								"label": "distributor",
								"offset": 0,
								"slot": "5",
								"type": "t_address"
							},
							{
								"astId": 21,
								"contract": "contracts/SupplyChain.sol:SupplyChain",
								"label": "pharmacy",
								"offset": 0,
								"slot": "6",
								"type": "t_address"
							},
							{
								"astId": 24,
								"contract": "contracts/SupplyChain.sol:SupplyChain",
								"label": "state",
								"offset": 20,
								"slot": "6",
								"type": "t_enum(State)7"
							}
						],
						"numberOfBytes": "224"
					},
					"t_uint256": {
						"encoding": "inplace",
						"label": "uint256",
						"numberOfBytes": "32"
					}
				}
			},
			"userdoc": {
				"kind": "user",
				"methods": {},
				"notice": "Sirsha – Pharma Supply Chain (MVP) Roles: Manufacturer -> Distributor -> Pharmacy States: Created -> Shipped -> Received -> Sold",
				"version": 1
			}
		}
	}
}